:020000040800F2
:10000000002E0020253700086B9F000811370008DC
:1000100011370008113700081137000800000000F0
:10002000000000000000000000000000213800086F
:10003000113700080000000085370008555B0008F4
:10004000A53A0008A53A0008A53A0008A53A000814
:10005000A53A0008A53A0008A53A0008A53A000804
:10006000A53A0008A53A0008A53A0008A53A0008F4
:10007000A53A0008A53A0008A53A0008A53A0008E4
:10008000A53A0008A53A0008A53A0008A53A0008D4
:10009000A53A0008A53A0008A53A0008A53A0008C4
:1000A000A53A0008A53A0008A53A0008A53A0008B4
:1000B000A53A0008A53A0008A53A0008A53A0008A4
:1000C000A53A0008A53A0008A53A0008A53A000894
:1000D000A53A0008A53A0008A53A0008A53A000884
:1000E000A53A0008A53A0008A53A0008A53A000874
:1000F000A53A0008A53A0008A53A0008A53A000864
:10010000A53A0008A53A0008A53A0008A53A000853
:10011000A53A0008A53A0008A53A0008A53A000843
:10012000A53A0008A53A0008A53A0008A53A000833
:10013000A53A0008A53A0008A53A0008A53A000823
:10014000A53A0008A53A0008A53A0008A53A000813
:10015000A53A0008A53A0008A53A0008A53A000803
:10016000A53A0008A53A0008A53A0008A53A0008F3
:10017000A53A0008A53A0008A53A0008A53A0008E3
:10018000A53A0008A53A0008A53A0008A53A0008D3
:08019000A53A0008A53A000899
:1001980081F0004102E000BF83F0004330B54FEA30
:1001A80041044FEA430594EA050F08BF90EA020F9D
:1001B8001FBF54EA000C55EA020C7FEA645C7FEA30
:1001C800655C00F0E2804FEA5454D4EB5555B8BF53
:1001D8006D420CDD2C4480EA020281EA030382EAC4
:1001E800000083EA010180EA020281EA0303362D56
:1001F80088BF30BD11F0004F4FEA01314FF4801C29
:100208004CEA113102D0404261EB410113F0004F3A
:100218004FEA03334CEA133302D0524263EB4303F1
:1002280094EA050F00F0A780A4F10104D5F1200E8F
:100238000DDB02FA0EFC22FA05F2801841F10001EA
:1002480003FA0EF2801843FA05F359410EE0A5F1BE
:1002580020050EF1200E012A03FA0EFC28BF4CF0EF
:10026800020C43FA05F3C01851EBE37101F00045A5
:1002780007D54FF0000EDCF1000C7EEB00006EEBB2
:100288000101B1F5801F1BD3B1F5001F0CD349083C
:100298005FEA30004FEA3C0C04F101044FEA445293
:1002A80012F5800F80F09A80BCF1004F08BF5FEA1A
:1002B800500C50F1000041EB045141EA050130BDFA
:1002C8005FEA4C0C404141EB0101013C28BFB1F50C
:1002D800801FE9D291F0000F04BF01460020B1FA57
:1002E80081F308BF2033A3F10B03B3F120020CDA2A
:1002F8000C3208DD02F1140CC2F10C0201FA0CF008
:1003080021FA02F10CE002F11402D8BFC2F1200C6C
:1003180001FA02F120FA0CFCDCBF41EA0C01904022
:10032800E41AA2BF01EB0451294330BD6FEA04046B
:100338001F3C1CDA0C340EDC04F11404C4F1200256
:1003480020FA04F001FA02F340EA030021FA04F368
:1003580045EA030130BDC4F10C04C4F1200220FABF
:1003680002F001FA04F340EA0300294630BD21FAFD
:1003780004F0294630BD94F0000F83F4801306BFC3
:1003880081F480110134013D4EE77FEA645C18BFB7
:100398007FEA655C29D094EA050F08BF90EA020F4E
:1003A80005D054EA000C04BF1946104630BD91EA46
:1003B800030F1EBF0021002030BD5FEA545C05D149
:1003C8004000494128BF41F0004130BD14F5800488
:1003D8003CBF01F5801130BD01F0004545F0FE41FC
:1003E80041F470014FF0000030BD7FEA645C1ABF31
:1003F800194610467FEA655C1CBF0B46024650EA68
:10040800013406BF52EA033591EA030F41F4002193
:1004180030BD00BF90F0000F04BF0021704730B519
:100428004FF4806404F132044FF000054FF00001EE
:1004380050E700BF90F0000F04BF0021704730B5AF
:100448004FF4806404F1320410F0004548BF404284
:100458004FF000013EE700BF42004FEAE2014FEAD9
:1004680031014FEA02701FBF12F07F4393F07F4FB4
:1004780081F06051704732F07F4208BF704793F0B7
:100488007F4F04BF41F40021704730B54FF46074CA
:1004980001F0004521F000411CE700BF50EA0102CD
:1004A80008BF704730B54FF000050AE050EA010276
:1004B80008BF704730B511F0004502D5404261EBE6
:1004C80041014FF4806404F132045FEA915C3FF427
:1004D800D8AE4FF003025FEADC0C18BF03325FEAC4
:1004E800DC0C18BF033202EBDC02C2F1200300FA75
:1004F80003FC20FA02F001FA03FE40EA0E0021FA9A
:1005080002F11444BDE600BF53B94AB9002908BF37
:1005180000281CBF4FF0FF314FF0FF3000F00CB83F
:10052800ADF1080C6DE904CE00F010F8DDF804E038
:10053800DDE9022304B07047704700BF034613F893
:10054800012B002AFBD1181A013870472DE9F04712
:1005580086468C460846089E154674461946002B62
:1005680040F0C2808542B2FA82F245D94AB1C2F15E
:10057800200300FA02FC2EFA03F3954043EA0C0C20
:1005880094404FEA154EA8B2BCFBFEF8230C0EFBB4
:1005980018CC08FB00F943EA0C43994528D9EB1815
:1005A80008F1FF3704D2994502D9A8F102072B4474
:1005B800A3EB0903A4B2B3FBFEFC0EFB1C330CFB3C
:1005C80000F044EA0344A04214D92C190CF1FF337B
:1005D80004D2A04202D9ACF102032C44241A43EA03
:1005E80007401EB1D440002334607360BDE8F08733
:1005F8004746DDE76346F1E792BB431B01214FEA1B
:10060800154EAFB2B3FBFEFC200C0EFB1C330CFBEB
:1006180007F840EA0343984562D9EB180CF1FF301C
:1006280004D2984502D9ACF102002B44A3EB08038D
:10063800A4B2B3FBFEFC0EFB1C330CFB07F744EA29
:100648000344A7424ED92C190CF1FF3304D2A74218
:1006580002D9ACF102032C44E41B43EA0040C0E792
:10066800C2F1200320FA03F1954090402EFA03F3DB
:1006780003434FEA154EAFB2B1FBFEFC0EFB1C1054
:10068800190C0CFB07F841EA0041884504FA02F40A
:1006980022D969180CF1FF3004D2884502D9ACF18F
:1006A80002002944A1EB08019BB2B1FBFEFC0EFB42
:1006B8001C110CFB07F743EA01439F420ED9EB18C4
:1006C8000CF1FF3104D29F4202D9ACF102012B4454
:1006D800DB1B41EA004192E76046E3E76146F7E742
:1006E8006046A3E76346B7E7834206D916B90021F7
:1006F80008467BE7C6E900E0F9E7B3FA83F78FB964
:10070800834201D3724508D8BEEB020460EB0303B1
:1007180001209C461EB9002168E73846FAE7C6E979
:10072800004CF8E7C7F1200CBB4022FA0CF41C433C
:100738002EFA0CF120FA0CF3B84001434FEA1449A1
:100748000EFA07F5B3FBF9F81FFA84FE09FB183017
:100758000B0C08FB0EFA43EA00439A4502FA07F22B
:1007680040D9E31808F1FF3004D29A4502D9A8F11C
:1007780002002344A3EB0A0389B2B3FBF9F809FB8F
:10078800183308FB0EFE41EA03418E452CD9611847
:1007980008F1FF3304D28E4502D9A8F1020321449F
:1007A80043EA0040A0FB0298A1EB0E014145CE466A
:1007B800434602D306D14D4504D2B9EB020E68EB8D
:1007C80004030138002EA6D0B5EB0E0261EB03013D
:1007D80001FA0CFC22FA07F34CEA0303F940C6E9D4
:1007E800003198E74046C5E74346D9E730B52DEDD7
:1007F800028B002083B001F06DFE014640B129480C
:1008080008F090FD4FF0FF3003B0BDEC028B30BD17
:10081800002142F210700BF03BF8234808F082FDEB
:10082800224808F07FFD224808F07CFD214808F0A6
:1008380079FD1E4808F076FD1B4808F073FD1E4838
:1008480008F070FD1D491E4800F046F8011E01DA47
:100858001C48D5E71C481A4D9FED1C8ADFED1C8A01
:1008680008F060FD0DF10601284600F057F898B928
:10087800BDF8064007EE904AF8EE677A67EE887A88
:1008880067EEA87A17EE900AFFF7E6FD02460B46D8
:100898001048214608F046FD00214FF47A700AF00E
:1008A800F7FFDFE7AECC00089CCD0008C8CC0008F5
:1008B800FACC000817CD00083DCD0008D0C70008C5
:1008C800500C00205ECD000887CD0008000080385D
:1008D8000000B4439ECD000838B50C460546A0B1CB
:1008E80099B108680AF09EFE38B90948094A0121F9
:1008F80009F0DCF86FF0120038BD2C600448064A95
:10090800032109F0D3F80020F6E76FF01500F3E7AC
:100918008CC40008BCCD0008CECD0008F0B50D464B
:100928008BB0002831D000292FD04FF6FF7302AAD0
:10093800ADF8043001AB0293049202230DF10602D4
:10094800CDE906230393012606ABCDE908360168F5
:100958000596002751F8040BADF80670836804AAC1
:100968001C6808ABA047041E08DA094A0948234650
:10097800314609F0A4F820460BB0F0BDBDF80630AA
:10098800C3F30D032B803C46F5E76FF01504F2E73F
:10099800EACD00088CC400082DE9F04F91B0840717
:1009A800009302F004030293C2F3C20303F10103AC
:1009B800DDF86880039205460E46059340F0BA813B
:1009C800041D30B1072909D86FF01B0011B0BDE82C
:1009D800F08F01F007063444C6F10806009B4FF07B
:1009E8000009591E4FF0040A4FF0FF330193CDF868
:1009F80010904F46CB4653460DB10098206005989D
:100A0800002800F3E8809848009A824203D3974868
:100A18008242C0F0E080039AA4EB050E92074FEAE9
:100A28009E0000F103810F2F00F2B180002D00F02D
:100A3800058107F140020DEB020C019A0CF8200C1D
:100A48000CF8102C049801300490E7E07A285DD85F
:100A58004B280ED8472859D829282DD8252852D0D0
:100A680054D820287AD02338D0F1000B4BEB000B58
:100A780074E04C382E2849D8DFE800F07048484820
:100A880048484848484848484B48484848484848DB
:100A98004859484B4B595959704B6D487048184B39
:100AA800184848827F4B48484B487F0000204FF049
:100AB800000B4FF0040A38E02A38C0B2012202FACB
:100AC80000F010EA0E0F49D110F0625C2FD110EA45
:100AD800020B43D06046013C5444B4FBFAF40AFBD1
:100AE80004F4002D61D0A3EB050CA444B4453FF6F3
:100AF8006BAF002868D1042B47D158F8043B23601A
:100B0800043404232AE0019A013A01924FF0000BC1
:100B180024E011F8010C6C2834D111F8023C0020B3
:100B28006C2B8346C5D14FF0080A5346D3E708F12A
:100B3800070828F007080734F8E802AB24F0070490
:100B480035B106982044B0423FF63EAFC4E900AB49
:100B580008344FF0000B4FF0080A534611F8010F04
:100B6800002878D0BBF1000F7FF470AF2528F5D1AD
:100B7800019B013301934FF0010B4FF0040AECE79E
:100B8800584694E700208346A5E7082B02D06FF06B
:100B980015001BE708F1070828F00708B8EC027BE6
:100BA80084ED007B08340823D8E768B9042B02D108
:100BB80008F10408A4E7082BE9D108F1070828F090
:100BC800070808F10808EDE705980138059058F876
:100BD800040B009010E7039A900720D5A4EB050EAC
:100BE8004FEA9E004FF0010CBEF5007FCFD20F2FC9
:100BF800CDD8F5B107F140020DEB020EC0B2019A53
:100C08000EF8200C0EF8102CBCF1000F3FF41AAFB0
:100C180060F07F000EF8200C09F101090137C5F1D9
:100C28000802043406924FF6DA7E97E74FF0000C7C
:100C3800DAE7BCF1000F01D00136EFE7029A02367D
:100C4800002AEBD10098CDE90631FFF777FCDDE902
:100C580006310644E2E7631BB3F5806F97D23DB9CE
:100C6800A6F10804E018B1E630BE000888E00008E4
:100C7800029A28609B082B709DF81030C2B1EB7067
:100C880085F80290B9F1000F05D008A80022C5F137
:100C9800010C97420ED1C5F101030DF120084FF068
:100CA800000A01930DF1300B574512D1601B8DE6F8
:100CB8006B70E5E710F8013B190608D50CEB040E3C
:100CC800B64503F07F033FF67FAE04F8013B0132DF
:100CD800DFE7B9F1000F03D098F90020002A17DBED
:100CE800029BD3B11AF80B2004F8012B0022019BB8
:100CF80018191044B0423FF667AE98F8000004F89F
:100D0800010B0099039220460AF0ACFF039A1444A1
:100D18000AF1010A08F10108C6E798F8002055F819
:100D280022300093029B45F822300098FFF706FC1A
:100D3800421CDCE76FF00D0048E600BF2DE9F04FDC
:100D480097B000AF90F802A0D7F880B03B62CBF321
:100D5800C0030446FA62BB61894641B94578007808
:100D68000AEB800020444D4517D8A0EB0409E3782E
:100D7800FB61BAF1000F02D01BF0010F16D1FB691D
:100D880053BBFB6A1BB13A6A4946204698474D4611
:100D980028465C37BD46BDE8F08F461C3046FFF755
:100DA800CDFB0130304409F10109DCE723786268A2
:100DB8007A62FA6A9900796104EB8301002A40F0AB
:100DC80000814D460E4601EB0A094FF000084E45DA
:100DD8004CD101EB0A0610E01BF0020FD1D02378AA
:100DE8009A007A6162687A62FA6A04EB8301002ADF
:100DF80077D14D4601EB0A0690461BF0050F0CBF54
:100E080002230123FB62FB6906EB430A0BF0020392
:100E1800BB625645BCD016F8021B16F8013C54F8C4
:100E28002390994B994502D3984B994536D3BB6982
:100E3800002B40D0786A08F04EFA00283BD0E946EB
:100E48008AB06A46924B53617B6AC2E906314FF415
:100E5800007313848F4B42F8103F8F4800234FF4E0
:100E6800125100F02FFC023DCD46D2E716F8013BA7
:100E7800F96254F82300FFF761FBD7F88430F96A68
:100E880001304BB1D7F8883098453EBFD7F8843049
:100E980023F8180008F10108054498E7BB6923B155
:100EA800786A08F018FA0028C9D11BF0010F05D19B
:100EB800FB6AED1AADE7BB6A002BAAD04846FFF7DC
:100EC8003DFBD7F8843053B1D7F8883098453FBFF9
:100ED800D7F88420431C22F8183008F1010805448B
:100EE80097E7BAF1000F72D01BF0040672D0D04613
:100EF800002607F1480052463B61B9620AF0B2FE8B
:100F0800B96A3B6901EB0A02BA62FA69F9695200E7
:100F1800FA60BA6A02EB41023A610BF00202BA6067
:100F28003A69B96A8A4257D162787A621BF0020F2D
:100F380032440CBF4FEA580100211BF0010FD2B216
:100F480040F09F801BF0040F14BF40460020BB6197
:100F58006270A070E1703A6A7969FB6A2046984726
:100F6800051EFFF615AFBB6923707B6A6370FB69CA
:100F7800E37041463A6AFB6A84F802A007F1480028
:100F88009847B0F10008C0F2BB807B693A6AA9EBC8
:100F98000A01C91AFB68C91AD7E90A039847002841
:100FA800C0F2B080A84408EB00054FF0000B07F131
:100FB800380AB34572D300213A6AFB6A0846984753
:100FC800E6E656464FF0000807F1380093E7564624
:100FD800D04697E7B04695E7BA6A12F8021BBA629C
:100FE80012F8015C284A54F82500904202D3274A97
:100FF80090421ED3BA6932B1786A7B6008F06BF907
:101008007B6800288CD1BA6802BB08F1280207F176
:10101800300C08F10100944407F1580252FA80F0AC
:1010280008F102080CF8101C5FFA88F800F8105C48
:1010380076E7BA693AB1786A7B6008F04CF97B6860
:1010480000287FF46DAF1BF0010F09D006F12802CC
:1010580007F13000711C161806F8205CCEB25FE765
:101068001BF0040F3FF45CAF08F1280207F13000D1
:1010780008F1010102EB000808F8105C5FFA81F83A
:101088004EE7002063E700BF30BE000888E0000894
:101098000CCE00080400000194C400081BF80A30B4
:1010A80087F8373054F82390D7F884302BB3D7F823
:1010B80088309B4521D2D7F8843033F81B803A6AB0
:1010C800FB6A012107F13700984700281ADB05441D
:1010D800B8F1000F06D14846FFF730FA00F10108D1
:1010E8001FFA88F83A6AFB6A41464846984700283A
:1010F80008DB05440BF1010B5BE74FF00008DEE766
:10110800454645E6054643E6014B1860704700BF73
:10111800B000002080B505460E461746984606F0F2
:10112800B7FB034602F0CCFCDFF81890044649F8F8
:101138000030424630463946A84754F8090002F0C4
:1011480007FB00BF08000000034A536823F00203AE
:1011580053600020704700BF002004E0084B1A6865
:1011680042F480721A601A6842F400721A601A68AF
:1011780042F480621A60034B034A1A60704700BF4A
:10118800003C0240A00100200024F4002DE9F047B3
:10119800DFF85880044607464FF0010914B938466D
:1011A800BDE8F08794FAA4F5B5FA85F509FA05F3D0
:1011B8002E0108EB05156FEA030A24EA03042B7BCA
:1011C800002BEBD058F806301B694BB94644042273
:1011D80073682846196807EA0A0708F0F7FBDDE78D
:1011E800284698470028D9D1F0E700BF1CC5000859
:1011F80030B51049104889B000220AF0E0FB0F4DC5
:101208000F4900220023CDE9062300240E23CDE94F
:101218000334CDE901440B4B00944FF44072284647
:1012280006F086F8084928460AF09CFA204609B0D4
:1012380030BD00BF55120008E80700202003002039
:101248008017002071150008DFCE0008014805F05E
:101258005DBE00BF340200202DE9F04780462048DB
:101268000F4608F08BFB0646002832D0002528469A
:10127800BDE8F087237B83B12368DB680BB1204688
:101288009847636883F8069023681B69CBB963683D
:1012980004221968204608F099FB01361034544599
:1012A800E8D3B8F1000FE2D0002DDFD02846FFF7D1
:1012B8006DFF0546002FF7D0002164200AF0E8FAF8
:1012C800F2E7204698470028E1D009FA06F31D43C3
:1012D800E3E7044CDFF810A005464FF00109DEE70C
:1012E800640C00201CC500082CC50008014B53F8ED
:1012F8002000704704C8000808B5034608462BB10B
:10130800044A136000F076FC002008BD6FF0150059
:10131800FBE700BFB400002010B5044C237813B9D4
:10132800034805F0F3FD0123237010BDF4160020D7
:101338003402002010B504460B4808F01FFB5CB1CE
:10134800BFF35B8F094B53E8001F013943E80012D4
:10135800002AF8D1BFF35B8F05480AF03CFB05482B
:10136800BDE8104005F0D2BD5C0C0020600C0020E8
:10137800E8070020340200200020064BBFF35B8FF3
:10138800014653E8000F43E80012002AF9D1BFF3E1
:101398005B8F70475C0C002070B5FFF7EDFF084CC1
:1013A800084E0546B44200D370BD63685B792BB123
:1013B80023685B6813B12946204698471034F1E743
:1013C8001CC500082CC5000810B5044C044920466B
:1013D80008F0B7F8034B1C6010BD00BFE401002003
:1013E800F0C70008540C00200D4A0E48002310B521
:1013F80013700D4A13600D4A4FF47A711360FFF7AA
:101408007BFFFFF7E1FF0A4B0A4918468B4200D3DE
:1014180010BD1A1A5C681211013222711033F5E7F7
:10142800F51600209F9900085C0C0020600C002035
:101438001CC500082CC500080146002201480023ED
:1014480008F0A0B8E4010020014808F039B900BF4D
:10145800E4010020024B0146186808F08CB900BF6F
:10146800540C0020014808F0C1B900BFE401002075
:1014780070B5264B1878002846D0FFF7E5FF0546DB
:1014880000283ED1224B234C1B68002B12DD0AF0AA
:1014980094FA0A220023FFF737F8D4E90032C01A79
:1014A80040F2E93361EB0201984271F1000101D386
:1014B800FFF772FFD4E9003213F57A7342F10002A4
:1014C800C4E90032BDE87040FFF7CCBF63685B79C0
:1014D80023B1236829461B68204698471034B44234
:1014E800F4D32846FFF7B6FFBFF35B8F0A4B53E8E8
:1014F800001F013943E80012002AF8D1BFF35B8FBF
:10150800C0E7064C064EEAE770BD00BFF41600209F
:101518005C0C0020E0070020600C00201CC50008BF
:101528002CC5000870B50D4D297861B90120FFF769
:1015380093FE0B4C0B4EB44206D3FFF799FF0028DD
:10154800FBD101232B7070BD63685B791BB12368E5
:1015580020469B6898471034EDE700BFF516002039
:101568001CC500082CC5000800212DE9F0470846D5
:10157800FFF772FE044658B34FF4FA784FF00009AB
:1015880002F09EFA1B4B1C4A1B58136033B11B4BCD
:101598001B68092B02DD1A4805F0B8FC194FDFF863
:1015A80060A0002544B12046FFF7F0FD044618B9B5
:1015B8004FF0FF384FF0FF39FFF75AFF064628B9BA
:1015C800B5B942464B46504605F0D4FC3546E9E7E6
:1015D8004FF0FF384FF0FF39D2E72B689B691BB1FA
:1015E80000221146284698471035BD42F5D3E8E752
:1015F800054DFAE708000000580C0020600C002098
:10160800340200202CC500081CC5000813B5184872
:1016180008F0B4F9174B1B7873B1EFF3118410235A
:1016280083F31288BFF36F8FFFF722FF84F31188CB
:10163800BFF36F8F02B010BD0F4B1B68002BF9D0A2
:1016480050B900220023CDE900230C4842F2107261
:10165800002306F009FCEDE70928EBD107480AF05A
:10166800BAF9074802B0BDE8104005F04FBC00BF0A
:10167800600C0020F5160020580C0020E807002018
:101688003402002010B5064B1B68044698472146D3
:10169800A060044807F0F5FFBDE81040FFF7B6BFAB
:1016A800B4000020E4010020044A054B9B1AB1EB6A
:1016B800D30F34BF52F83100002070478CC40008A3
:1016C8001CC500082DE9F04F8FB004AFC1F34A28BC
:1016D800B8600D4691467B600C0DB8F1000F63D0E1
:1016E800002607F114034FF0040B4FF00A0AC7F85D
:1016F8000C80C7E907667E620193CDF808B0CDF883
:1017080000A007F11C03F96832464846FFF716FBAC
:10171800B0F5006F03461CD36C468AB0D9F80410A4
:1017280004AB2648C3E9050140F2FF71D9611A46A6
:101738004FF400711984224B42F8103F2148334678
:101748004FF41251FFF7BEFFA5462C37BD46BDE842
:10175800F08FC0F30A0804F11700184420F00700BE
:1017680080083B60FFF768FE68F35325044690B194
:101778003B68154AC7E9083600F1100107F1140360
:10178800F961CDE900A3CDF808B0F96807F11C03A9
:101798004846FFF7D3FA68F353257B68B9682A46A9
:1017A800204608F033F9D0E704F1170020F00700CD
:1017B8008008FFF741FE0446EDE700BFF4CE0008BD
:1017C80004000001A4C40008E79900082DE9F04FBF
:1017D80087B0DDE91279DDE9105A04460391934692
:1017E8009846BFB1CDF800903B46524610210020E4
:1017F800CDF81490FFF7D0F8B0F5006F06460AD37D
:10180800184A194840F2FF73022107B0BDE8F04FAB
:1018180008F055B93E4605F11700304420F007009E
:1018280004F007048008FFF707FE0BF0070BE4003D
:1018380044EA8B1444EA462444EA0554054640B178
:101848003FB1CDF800903B46524631461030FFF785
:10185800A3F8039943462246284607B0BDE8F04F4F
:1018680008F0D4B833CF0008A4C40008406820B1F9
:10187800034BC01A40F3CF0070474FF0FF3070475A
:101888008CC400080EB403B503AB014653F8042B0F
:101898000448019302F0A2FA02B05DF804EB03B029
:1018A800704700BF299B0008CA0605D48B064CBFA9
:1018B80002490349FFF7E6BF704700BF9CCD000807
:1018C8006BCF00082DE9F04F8BB09B46169B069313
:1018D8009DF854A0179B0593189B199E04930446E2
:1018E8000D469046BAF1000F00F09E8006F0010305
:1018F800089306F00803079306F48073099308F029
:1019080063F806F00209024600283BD08F492046BA
:10191800FFF7B8FF0746B9F1000F08D016F0440FDB
:1019280032D18B492A462046FFF7ACFF0744089B73
:1019380053B1884B884953F82A20884B2046002AFF
:1019480008BF1A46FFF79EFF099B002B48D0079B4C
:10195800002B62D1B8F1000F64D08149424620467D
:10196800FFF790FF0546069B3D44002B6BD1049B77
:10197800002B71D1F30700F1E28031462046FFF7D2
:1019880093FFD6E00746C6E7764B18680028CDD007
:10199800754B4FF47A791B68B5FBF3F54FF4616327
:1019A800B5FBF0F100FB115509FB05F54FF03C0CB8
:1019B800B1FBF3F203FB1211B5FBF0FEB1FBFCF334
:1019C80000FB1E550CFB131109FB05F50091B5FB37
:1019D800F0F56649CDE901E52046FFF753FFA5E795
:1019E800079BEBB1624B634953F82A202046FFF767
:1019F80049FF0546B8F1000F05D05949424620462F
:101A0800FFF740FF0544BBF1000FACD05A495A46D6
:101A18002046FFF737FF0544A5E74FF0000BE1E745
:101A2800079DE7E745469EE7BBF1010F069B06D1F8
:101A3800002B64D1049B002B7BD000250CE0002BED
:101A4800F8D04E485CE04E48069B4E49224607F0C7
:101A580011FC049B002B68D0DFF83881DFF838913F
:101A6800049F3146102F204628BF1027FFF71CFF80
:101A78004FF0000B5D4545DC059B49461A7820462A
:101A8800FFF700FF4FF0010B1BF0070F03D1414692
:101A98002046FFF7F7FE5F453BD9059B494613F8FB
:101AA8000B202046FFF7EEFE0BF1010BBBF1100FE8
:101AB800EAD1354920464FF0000BFFF7E3FE5A46BE
:101AC800059B9A5CA2F120015F2928BF2E222F498D
:101AD8002046FFF7D7FE0BF1010BBBF1100F1DD00D
:101AE8001BF0070F03D141462046FFF7CBFE5F45A9
:101AF8005A46E5D841462046FFF7C4FEEBE72048A2
:101B08005546A1E741462046FFF7BCFE0BF1010B05
:101B1800B0E71F492046FFF7B5FEC5E7059B3B44E4
:101B28000593049BDB1B04939AD1BAF1000F7FF451
:101B380021AF20460BB0BDE8F04F07F0E4BF074ADD
:101B480005492046FFF79EFE17E700BF73CF000840
:101B580077CF000814C800085EDD00086ECF0008C3
:101B68009CCF00086C0C0020680C002080CF000877
:101B780028C80008A0CF0008A6CF00085F9B00086F
:101B8800299B0008E53D0008B5CF0008B7CF00083D
:101B9800B1CF0008B3CF0008ABCF000873B542F24D
:101BA8000F738B4228BF0B4605680F4A0446052170
:101BB800684606F0ADF963680C495B6806460B2277
:101BC800284607F092FF63683246694628465B68F4
:101BD80007F08BFF636806495B681B22284607F0FD
:101BE80084FF02B070BD00BFFDDA0008D6CF000840
:101BF800BACF0008074A00210123904206D8064AB6
:101C080001B901231360054B1860704740085B0059
:101C18000121F2E740420F00680C00206C0C002004
:101C2800F8B5074F0D4604464618B44201D1284678
:101C3800F8BD14F8011BBB6801485B689847F4E7D6
:101C48002CC00008014B03600020704770C80008D2
:101C5800F0B40D4B0D4E5F6A0D4BB34203D36FF0DA
:101C68008500F0BC70475C68BC420AD31D6945B169
:101C780094F802C08488E4B2A44502D12B46F0BC93
:101C880018472433E9E700BF940C00202003002004
:101C9800FC0200202DE9F047144CDFF85480DFF8EF
:101CA800549005460E461746444503D36FF0850009
:101CB800BDE8F0876268D9F824309A4213D3A36943
:101CC8008BB1A9889078C9B2884205D13A46314685
:101CD8002846BDE8F04718475279012A03D13A4609
:101CE8003146284698472434DEE700BFFC0200202E
:101CF80020030020940C00202DE9F0410B4CDFF864
:101D0800308005460E461746444502D36FF08500DD
:101D180009E063690BB92434F6E73A4631462846A8
:101D280098470028F7D1BDE8F08100BFFC020020E9
:101D380020030020024B00221A605A60704700BF3F
:101D48004F0D002070B50B4B0B4CA34201D3002064
:101D580070BD196A1E7F00220439D5B2AE4201D87F
:101D68002433F2E7013211F832508542F5D10120CF
:101D7800EEE700BFFC0200202003002073B5848832
:101D8800E4B263060D468DF8074007D02046FFF7FA
:101D9800D9FFB0B1144B93F8BA0090B1124E234654
:101DA8008DB1124A1248032107F051FF9DF8070030
:101DB80002F0F2FAF3691BB10DF107010820984708
:101DC800012002B070BD0B4A0948032107F03FFF0C
:101DD8009DF8070002F002FBF369002BF0D00DF12B
:101DE80007010920EBE700BF940C00201CD0000875
:101DF8000CC500082FD0000808B5044A0346012185
:101E0800034807F024FF002008BD00BF44D00008A5
:101E18000CC5000838B5054602F036FB10F1780FFE
:101E2800044611D10D4A0E482B46022107F00FFF38
:101E3800284607F00EFF0B4AD2F8C43023EA000305
:101E4800C2F8C430002407E00028F1D0064A04484C
:101E58002B46012107F0FBFE204638BD5FD0000865
:101E68000CC50008940C002080D0000808B509486B
:101E78000378C3F341130A3350F823303BB100F120
:101E8800080200F110019847C043C00F08BD18466A
:101E9800FCE700BF940C002004282DE9F74FDFF879
:101EA800A49004460F4615D001282FD1DFF8908062
:101EB80098F8B93053B300F0B3FE204D4D4522D207
:101EC8002A6A4FF0000A2B7F5FFA8AF6B34204D8D9
:101ED8002435F3E7FFF72EFFE8E702EBC606019289
:101EE800307902F0D1FA8346307907F0B2FED8F89B
:101EF800C430019A23EA0003BBF1000FC8F8C430CC
:101F08000AF1010ADFDA002388F8B9300B4D4D4594
:101F180008D30B4B1B6A6BB13946204603B0BDE8AA
:101F2800F04F1847EB681BB13A46214628469847B8
:101F38002435ECE703B0BDE8F08F00BFFC020020B9
:101F4800940C00202003002073B5044680788DF897
:101F5800000023796279294D43EA0223ADF8023063
:101F6800E37803F003038DF8043007F072FED5F828
:101F7800C430184206460CD0A478204600F032FE41
:101F88002046FFF747FF09F0E7FB10B9962009F054
:101F98009EFC684608F0A2F810F1780F9DF8003012
:101FA8001BD1174A1748022107F051FE9DF800007F
:101FB80002F03AFA10F1780F19D19DF80030124A60
:101FC8001048022107F043FED5F8C43001203343FE
:101FD80085F8B900C5F8C43007E00028E6D00B4AF8
:101FE8000848012107F033FE002002B070BD002828
:101FF800EAD09DF80030064AF2E700BF940C0020B2
:10200800A2D000080CC50008E9D00008C5D0000817
:1020180009D100082DE9F047A84EB36904460F46D8
:102028001546FBB9237803F01F03012B00F09E80AF
:10203800022B00F0068133BB94F900002A6861780E
:10204800002834DA062912D008292BD0D9B901235F
:102058001370517096F8C3305B0043F0010313709E
:10206800022328E198470028DCD100200DE062888F
:10207800100A011F0129844605D9072803D8716A67
:10208800D2B20C781CB96FF01500BDE8F0874E7815
:10209800664503D19A4200F0098101332144F0E7F3
:1020A8000B7808E196F8BA301370012303E101397F
:1020B8000829E8D801A353F821F000BF5F210008E0
:1020C8008F2000086D2100088F200008E9200008F3
:1020D8008F2000088F2000088F200008F7200008B4
:1020E8006088C0B202F0E4F80028BED0CBE763886D
:1020F800756A63BBFFF71EFE638886F8BA30F3691A
:10210800002BB2D06E4903209847AEE76B78042BBA
:1021180010D0052B11D0022B04D16F796388BB42F4
:1021280008BF01202B781D442B78002BEED1002806
:10213800A9D0DFE795F80380F4E76388BB42F1D1C3
:10214800B8F1000FEED12846FFF7FEFEEAE7FF27B9
:102158000020B846E8E76388012B94D1002386F86D
:10216800C33082E76388012B8DD1F8E796F8BA303F
:10217800D5F800C0002B86D0A388756A5FFA83FE65
:102188002A46107800283FF47EAF5178022904D1FE
:1021980092F80480F04500F295800244F1E78CF84B
:1021A80000208CF8012039605FE7154496E00B2A7F
:1021B8007FF469AF00274FF0FF08C146BA4606E032
:1021C8006B78042B0FD0052B21D02B781D442B784E
:1021D800002BF5D1F36913B1514607209847002F1A
:1021E8007FF443AF4FE795F80280A38895F80390F2
:1021F8009845EAD163889945E7D1B8F1070F1DD80A
:1022080006EB0803AA4683F8BB900127DDE7A388FD
:102218004345DAD16388DBB24B450AD0AF783846FC
:1022280000F0E0FC3846FFF7F5FDB0FA80F77F09CB
:10223800CBE72846FFF788FE0746C6E7AA460027E9
:10224800C3E794F900206378002A19DA002B7FF499
:102258001AAFA3882D68DCB25B060AD02046FFF7C8
:1022680071FD00283FF40FAF96F8BA30002B3FF409
:102278000AAF2946204607F046FF00236B70EFE6B9
:10228800012B08D0032B7FF4FEAE6388002B7FF46C
:10229800FAAE012103E0618800297FF4F4AE2046FC
:1022A800FFF76CFD00287FF4E0AEECE60228296019
:1022B8007FF4F6AE4B883B60D7E600BF940C002055
:1022C8004E0D002094F9000062780028BFF66FAF29
:1022D800002A3FF464AF0A2A7FF4D5AE2A78002A90
:1022E8003FF4D1AE697804297FF45FAFA9788B42B7
:1022F8007FF45BAF072B96BF9B19002393F8BB3085
:102308008CF80030D1E600BF2DE9F84FDFF83CB07B
:10231800DFF83CA005460F469046994604264B46F2
:1023280042463946284602F0DDF810F10B0F044604
:1023380009D12B465A460221504607F088FC05F081
:1023480003FA013EEBD12046BDE8F88F2AD10008F8
:102358000CC5000813B5164C237DF3B9E268A168D3
:10236800019201AB8020FFF7CFFF019AA3681344C5
:10237800A360E3689B1AE3606BB962B12369E288E2
:102388009A4208DD94F8C82093FBF2F102FB11335E
:102398000BB90123237502B010BD00231A46194654
:1023A8008020237502B0BDE8104002F09BB800BF42
:1023B800940C00207FB500230D46019306460028A3
:1023C80062D100293AD108220B460DEB020107F031
:1023D800A7FE002804DA802001F0DEFF04B070BDFB
:1023E8002E4C029A2260039A626004F13802A260BD
:1023F8009DF90820BDF80E302575002AC4E903555B
:102408000FDB802B09D9264A2648012107F04EFB0D
:10241800802001F0C1FF2846DEE713B1C4E9033389
:10242800DCE7FFF723FD0028D5D0E28823699A422C
:10243800D4BFE260E360FFF78DFFCFE7174CD4E924
:102448000212002A01AB05DC024607F069FE0028EB
:10245800C4DAC0E707F064FE002804DA802001F03F
:102468009BFF3046B8E7019AA3681344A360E3686A
:102478009B1AE360002BB1D104F13803A360FFF786
:10248800F5FC0028D7D1A6E78028A7D1034BDA6846
:10249800002AD0D11B7D002BCDD19FE7940C0020C2
:1024A80051D100080CC50008054B064A9A62064A35
:1024B800DA62064A1A63064A58629A61002070472F
:1024C800940C00201D200008591C0008011D00085C
:1024D8009D1C00082DE9F34104464C4D4C484FF033
:1024E800FF334FF0FF3204F049FC95F8B8306BB178
:1024F800484A4948022107F0D9FA6FF0770444485E
:1025080004F0B4FC204602B0BDE8F0816B6A6BB9F8
:1025180000F0D4F8FFF7C8FF6B6A3BB93F4A3E4862
:10252800012107F0C3FA4FF0FF34E8E73C482C627A
:10253800E8616E6A01F0B6FE01F0E8FD041EDEDB1C
:1025480000F090FB041EDADB7378012B01D1F379DC
:102558003BB9344A3048012107F0A8FA6FF0150456
:10256800CDE70026684685F8C830ADF802308DF80A
:1025780004608DF8006007F0B1FD041EBFDB802702
:1025880068468DF8007007F0A9FD041EB7DB2649E0
:10259800304607F098FD041EB1DB2349384607F0A2
:1025A80092FD041EABDB214CDFF8848044451AD32E
:1025B800002001F039FF041EA1DBD5F8C4308020CB
:1025C80043F00103C5F8C43001F02EFF041E96DB6A
:1025D800D5F8C43043F48033C5F8C430012385F8F6
:1025E800B83000248BE7276A0026227FF3B29A428C
:1025F80001D82434DAE707EBC30257F8331010790F
:1026080007F061FD01360028EFD08CE7940C00201C
:10261800200200206AD100080CC500088DD10008EE
:10262800A11E0008B2D10008BD230008FC0200204A
:102638002003002030B51F4B8BB005AA03F110050D
:1026480018685968144603C40833AB422246F7D1C8
:102658001B7823701022002101A809F011FB122217
:102668000021154809F00CFB102101A802F07AFAA4
:1026780000281BDD0828B8BF0820093801AB0E491F
:102688001A18002012F8013F0AAC04EB131403F0E7
:102698000F0328336B44013014F8144C13F8143C1E
:1026A8000C7008284B7001F10201EBD102480BB005
:1026B80030BD00BFECD10008F81600202DE9F04F1E
:1026C8008A4B87B093F800A000AFBAF1000F04D08E
:1026D80087481C37BD46BDE8F08F854C00264FF073
:1026E8000119FE603546B04623783BB9814B023468
:1026F8009C42F3D17D4A01231370E9E76378052BE7
:102708001DD8DFE813F0AF000600F000AF001F008F
:102718005000402387F810A07B8287F814A007F1A7
:10272800100001F021FE40B108237B8207F1100060
:1027380001F01AFE08B1A7F812A07B8AE37123788A
:102748001C44D1E7E378002BF9D1A37813B3FB68D5
:102758000133DBB2FB60F2E76B689C421CD0243586
:10276800654B9D42F8D36D4688B06A46634BC2E913
:102778000534032342F8103F614800234FF4C25147
:10278800FEF7A0FFAD465E485E4A012107F08EF9CC
:1027980000209EE75C4DE3E7AB68002BD7D0F968D3
:1027A80020469847D3E7002D5AD1584A544801216A
:1027B80007F07CF9E7E72B6AA07803EBC2010B79F5
:1027C800984247D14FF0010BE07800F003003875CC
:1027D800207994F805C040EA0C20788294F9020028
:1027E80000285FFA8BF328DA0BF110004FF0010C88
:1027F8000CFA00F010EA090F27D143F08000387472
:1028080007F11000C7E90031BA6001F0ADFDD7E962
:1028180001123B68C8B93A7CA27012F0800F18BF49
:1028280010330A7118BFDBB24FF0010214BF9A408F
:1028380002FA0BF249EA020981E7012000FA0BF0DB
:1028480010EA090F01D11846D9E70BF1010BBBF1CA
:10285800100FB9D101322B7F9A42ACD32C4AA5E78D
:102868000022F8E7032E24D1FFF7E4FE8346A0B147
:10287800FDF764FE034680B1102806D0B860254AEB
:102888001F48022107F012F9BB68102BA8BF1023BC
:102898001A465946A01C09F0E5F923786FF00201A1
:1028A800E218091B04EB5303D14209D50136F6B2ED
:1028B80045E7002EF1D1B8F1000F08D1164A75E7A7
:1028C80002F801AC13F8010902F8020DECE7A4EBD9
:1028D800080388F80230C3F3072388F80330FB683D
:1028E80088F80430E2E7A04629E700BFF716002081
:1028F80044020020FB02002020030020FDD1000834
:1029080004C50008E3D20008FC0200201DD200081C
:102918005ED200087BD20008C6D2000810B5094B69
:1029280000211A461C78844204D15C6814B102EB79
:10293800811010BD0131042903F14003F2D10020B8
:10294800F7E700BF600D00202DE9FF4150F8283C53
:1029580010F82C6C103304460AD1036950F8202C67
:1029680098073DD5D2B9590715D5002344F8283C16
:1029780054F8283C10330BD054E9077554F8148CDC
:1029880008F0EAFE002857D03248214608F0C8FE71
:1029980004B0BDE8F08143F00403236103AB54F8AD
:1029A800241C3046FFF7B0FC034640B12A4A2B48A6
:1029B8000096012107F08DF86FF01503D6E7039A0A
:1029C80054F8243C134444F8243C54F8203C9B1A03
:1029D80044F8203C54F81C3C134444F81C3CC7E71A
:1029E80003AB54F8241C304601F0E6FD03460028EA
:1029F800DCD1039D54F8243C2B4444F8243C54F87F
:102A0800203C5B1B44F8203C54F81C3C2B4444F805
:102A18001C3C002DA9D0304607F090FBB5FBF0F325
:102A280003FB1055002DA0D154F8203C002B9CD05E
:102A3800304601F009FE9BE744F8180CA4F1100099
:102A480004F064FA002DA3D0424639463046A84720
:102A58009EE700BF2008002011D3000814C5000815
:102A68004B1E012B73B506460D4614D8FFF756FFCB
:102A7800044690B9012D0ED101AB01220DF10301DD
:102A8800304601F099FD019B002BF5D10C4A0D4809
:102A9800012107F00BF802B070BD08F05DFE04F1EB
:102AA8002C0108B1012D05D1084602B0BDE87040DF
:102AB800FFF74ABF044802B0BDE8704008F030BED6
:102AC8002ED3000814C50008200800202DE9F74F70
:102AD800054601911646984607F0F9F8002871D185
:102AE800EFF311831022009382F31288BFF36F8FE4
:102AF800DFF8E890834600220023484604F03AFABB
:102B0800A0B9DFF8DCA04FEA8B170AEB8B1BDBF8C8
:102B1800044014F1100F20D12C4A2D482B460121D6
:102B280006F0CDFF484604F0F1F90DE00BF1010B7A
:102B3800BBF1040F09F14009DDD1264A24480121DF
:102B480006F0B4FF6FF00B04009B83F31188BFF30A
:102B58006F8F204603B0BDE8F08F0C99019BCBF82E
:102B680014100D99CBF81000CBF8181028466FF008
:102B78000F01CBE902360AF80750CBF83C80CBF8B6
:102B8800041007F0DBFA68B1284607F0D7FAB6FB5D
:102B9800F0F101FB10662EB1DBF83C1041F00401A6
:102BA800CBF83C1018F0020F07D007F12C010A48A7
:102BB800514408F0B5FD0024C6E7284601F044FD5D
:102BC8000446C1E76FF00F04C3E700BF63D30008F2
:102BD80014C5000848D30008200800207C0D0020F8
:102BE800600D002010B5EFF31184102383F31288D1
:102BF800BFF36F8FFFF792FE50B14368103307D1D0
:102C08006FF08B03436000F12C01044808F088FD45
:102C180084F31188BFF36F8F10BD00BF2008002018
:102C2800F8B50E4C04251027EFF3118687F31288A8
:102C3800BFF36F8F6368103307D16FF08B030848B9
:102C4800636004F12C0108F06BFD86F31188BFF373
:102C58006F8F013D04F14004E6D1F8BD600D0020FE
:102C68002008002070B50A4C0A4E0025314620463F
:102C780008F03AFD0122A4F110001146013508F0D0
:102C8800F7FC042D04F14004F0D1002070BD00BF12
:102C98008C0D0020512900080169012381F84B306F
:102CA8000B6833B191F849301BB10248083108F07C
:102CB80037BD7047200800200169012381F84A3098
:102CC8000B6833B191F848301BB10248083108F05D
:102CD80027BD70472008002070B50569EFF31186FD
:102CE800102383F31288BFF36F8FD5F8900006F096
:102CF800E5FD044686F31188BFF36F8F30B10448B1
:102D08000022002305F1180104F09CFA204670BD4A
:102D18002008002070B5012382F8483013680D465A
:102D280014463BB192F84A3023B10E4802F108012B
:102D380008F0F6FCD4F89030DA885B899A4205D11D
:102D48007DB904F118014FF47A7204E004F1180116
:102D5800002DF8D00022BDE870400248002304F09E
:102D680071BA70BD2008002070B50E4681880446EF
:102D7800C9B21548154606F086FF10B394F900202D
:102D88006378002A16DB202B04D0222B0ED06FF09C
:102D980085000AE02B681A6840F8102C9A8820F8F9
:102DA8000C2C9B7900F80A3C002070BD638800F861
:102DB800093CF9E7212BEAD1103807232860336052
:102DC800F2E76FF01200F0E7640E002008B5014644
:102DD800034806F066FF10B1012300F8073C08BD60
:102DE800640E00200D4A03460021A0F84810106820
:102DF800C3F8940090889279A3F8980083F89A20F1
:102E080083F89C1083F89B10A3F89E1083F8A010F9
:102E1800402203F14C0008F033BF00BF38C500085A
:102E280010B504690023C4F8A8300C4BC4F8A400FA
:102E3800596804F1A80269B9C3E9002204F108003D
:102E4800074908F051FC04F11800064908F078FC1D
:102E5800002010BD0A605A60F0E700BF640E002031
:102E6800019D0008392F000830B54FF4003342683F
:102E780005690D4C85B042F2A100CDE9010300239C
:102E880085F89D30106AADF80C1000790A2201A966
:102E9800FFF73AFA95F89D3023B9012008F09CFB1A
:102EA800013CF7D105B030BDA186010073B50469B6
:102EB8008DF80710002384F848301025EFF31186A9
:102EC80085F31288BFF36F8F0122D4F890000DF1BB
:102ED800070106F0F3FC86F31188BFF36F8F012812
:102EE80013D008F039FC10B994F8A130B3B90E4BDF
:102EF800BFF35B8F012253E8001F002903D143E889
:102F080000200028F7D1BFF35B8F0A22002304F1C9
:102F18001801064804F096F902B070BD00210A2095
:102F280008F0B6FCCAE700BF600E002020080020A9
:102F3800F0B5D0F88C305B681B6A1F7D85B00546FC
:102F4800384606F0C4FE064650BB95F886303BB3BB
:102F5800A86F0146C38831F80A2F9B1A9BB2B3F5B4
:102F6800806F28BF4FF4806303AA06F058FC04461C
:102F7800B0B18306A5F1180308BF00F1FF3485F846
:102F880030600193074B0399009322460223384689
:102F9800FFF79CFDA86F224600F10A0106F075FCB8
:102FA80005B0F0BD1D2D000837B514460A1E0546AC
:102FB80021DDD4F88C0004F14C0106F07FFC0123DC
:102FC80084F8493023683BB194F84B3023B1114859
:102FD80004F1080108F0A4FBD4F88C2093889189A7
:102FE80012695B1A9BB2D31A3F2B04D8012384F8C9
:102FF800A03003B030BD94F89E30002BF9D0064BBA
:10300800009301940123402204F14C012846FFF764
:103018005DFDEEE720080020B12F0008F7B50D464A
:1030280001461D4806F023FE044610B30646691EF5
:1030380056F8A4395F6805291BD8DFE801F01C1A87
:10304800031C222610F8061C99B9012300F8063C37
:103058003B6A3246187BFFF7A7FF14F85C2C42B98D
:103068003B6A187D0D4B0093019602231146FFF72A
:103078002DFD03B0F0BD304603B0BDE8F040FFF7CA
:10308800B1BE012304F8053CF3E710F8053C002B1A
:10309800EFD00023F6E700BF640E00201D2D0008C6
:1030A80037B5094D0949002400944FF0FF334FF418
:1030B8008062284604F086F80549284608F052FB45
:1030C800204603B030BD00BF20080020001B0020B0
:1030D800A7D3000808B50348034A0021121A06F0CE
:1030E80038FF08BD20030020101700200748084AB1
:1030F800084908B5121A06F02EFF0748074A08497A
:10310800BDE80840121A06F026BF00BF00000020E4
:103118002003002088E000080000002000000020B4
:1031280088E000082DE9F84F804600AF0C460029DA
:1031380065D0E9468AB0D1E90012A3686D463948DE
:103148002E464FF0050AC5E90501C5E9072346F8EB
:1031580010AF3548324600234FF42151FEF7B2FA3A
:10316800CD46D4E903126369AD463048C5F810A0CE
:10317800C5E90501C5E907232B48002332464FF46A
:103188002151FEF79FFACD46E369294A2648DFF820
:10319800B0B0012106F093FC264600254FF00A0A3C
:1031A800E9468EB0D6E908E0D6E90A136A46C2F8BD
:1031B8001CE005F1010EC2E908E0A81CC2E90A01F9
:1031C800E91CC2E905B5C2E90C1342F810AF16486C
:1031D800002345F240010435FEF774FA102DCD4660
:1031E80006F11006DCD1236E124A0F48012106F0C1
:1031F80066FCA369104A0C48012106F060FCB8F18E
:10320800010F07D1EFF305830C4A0748103B4146ED
:1032180006F055FC2146404603F026FCBD46BDE8B5
:10322800F88F00BFB0D30008C4C40008DFD300087B
:103238000ED4000860D400086FD400089DD400089C
:103248001DD4000830BFFFF7FDBF00BF2DE9F041D6
:103258000B4EDFF8348006EB0807CC1B05463246D8
:103268000849204608F0FEFCA01942460021083C07
:1032780008F006FD2C6707F10800BDE8F08100BFE3
:10328800000000002CC5000804000000054B9A69E6
:103298009B689A421FBF044A536843F080535360A7
:1032A800704700BFBC16002000ED00E070B5294C47
:1032B80006460D462848294906F05AFEA36AD9044D
:1032C8003CD52548264906F053FE1720A36A1A055F
:1032D80004D52148234906F04BFE18201D4CA36A4B
:1032E8009B0512D51C48204906F042FEA36BA26A32
:1032F800100409D51D4A1848012106F0E0FB1EB14B
:10330800A36A23F40043A3621920124CA36A590547
:1033180004D51148164906F02BFE1A20A36ADA05CF
:103328000ED50D48134906F023FE1B20094A936A5F
:1033380043F47F43936200232B7070BD1620C5E7CA
:10334800A36A9B04F2D504480B4906F011FE1C2021
:10335800ECE700BF00ED00E0C4C40008B0D40008EA
:10336800C6D40008D7D40008EAD4000803D500085A
:1033780018D5000833D500084BD5000810B5204CE7
:103388002049214806F0F4FDA36A990136D51E4864
:103398001E4906F0EDFD1E20A36ADA0104D51A487D
:1033A8001B4906F0E5FD1F20154CA36A1B0304D535
:1033B8001548184906F0DCFD2120A36A590304D5F5
:1033C8001148154906F0D4FD22200D4CA36A9A0332
:1033D80004D50D48114906F0CBFD2320A36ADB0371
:1033E80004D509480E4906F0C3FD2420044A936A0F
:1033F8006FEA03436FEA1343936210BD1D20CBE7C6
:1034080000ED00E07AD50008C4C4000892D5000891
:10341800A5D50008BFD50008DDD5000802D60008EC
:103428001CD600082DE9F843364D804689463648B3
:103438003649174606F09CFDAB6ADE0627D53449A7
:10344800314806F095FD1124AB6A1D0704D53149B2
:103458002D4806F08DFD12242A4DAB6A980718D521
:103468002D49294806F084FD6E6BAB6A190646D5CE
:103478002A4A25483346012106F021FBB9F1000FFD
:1034880003D0AB6A23F08003AB62132403E010245B
:10349800DAE76FF015061B4DAB6ADA0704D5204949
:1034A800194806F065FD1424AB6A9B0604D51D492E
:1034B800154806F05DFD1524124B9A6AD50602D40C
:1034C8009A6A90070AD55B68190507D541463046C0
:1034D80000F06CFA10B180F309880224094B9A6A4B
:1034E800920642BF5A6A22F400525A629A6A42F01D
:1034F800FF029A6200233B702046BDE8F8836FF014
:103508001506C2E700ED00E0C4C4000847D600086D
:103518005DD60008D7D4000890D60008A8D60008C1
:10352800BED600084BD500082DE9F041634B9CB08E
:10353800D3F8048000AF0546C8F30804002686F3D4
:103548001188BFF36F8F02F07F43B3F17F4F07D12C
:1035580002F00C03082B12D159495A4806F008FD0D
:10356800002635460023FB71E31E092B00F28480F8
:10357800DFE803F00A7A7D768282828282801007F1
:103588004CBF0D460126EDE74F494E484B4C06F01F
:10359800EFFC0023FB71E36A9A0705D54B494948BC
:1035A80006F0E6FC002432E0E36A002B01DA484921
:1035B800F5E7E36A5B00F5D54649424806F0D8FCD2
:1035C8006369AA6943F480736361BFF34F8FBFF3E4
:1035D8006F8F636932F8022C23F480736361BFF341
:1035E8004F8FBFF36F8F4DF602739A4208D0A36ACC
:1035F800DBB243B3FA1D01212846FFF713FF31E080
:103608002B68354A2F48012106F059FA2C68FB79B6
:10361800ABB96822294607F1080008F023FB7B6A4A
:10362800002E45D0C3F3080222B96FEA53236FEA8C
:1036380043237B6207F108012046FFF773FD7037CB
:10364800BD46BDE8F081A36A13F47F4F04D0F91D8D
:103658000120FFF72BFE05E0A36AB3F5803FA1D355
:10366800FFF78CFE0446D2E7FA1D0021C4E7F91DD6
:103678000020EEE7194992E7194A1A4B18F4F87F27
:10368800E8468AB018BF13466A461749C2E90513C7
:103698004FF400731384103C144BD46142F8103F6C
:1036A800084800234FF41151FEF70CF8C54679E796
:1036B80023F4FF7323F00103BBE700BF00ED00E034
:1036C8000BD70008C4C4000836D700084DD7000837
:1036D8006ED700087CD700089BD70008B7D700082A
:1036E800F2D60008DDD60008DBD700080400000188
:1036F800044B5A6942F010025A615A6922F00802D2
:103708005A61704700ED00E0EFF30880EFF309819C
:1037180001B57246FFF708FF01BD00BF0A4880F3F4
:103728000888102080F3118808484FF40861401871
:1037380080F30988EFF314800221084380F314888A
:10374800BFF36F8F00F0C2F8002E0020801F00200A
:10375800084B9B6883420BD1EFF3058343B1064BBB
:103768005A6842F080525A605A6A22F400425A62F9
:1037780004F094B8BC16002000ED00E023498A68E4
:1037880082F8BDE04FF030001044EFF3098C80E878
:10379800F01F1EF0100F03D102F17C0080EC108A9C
:1037A800102080F31288BFF36F8F194F4FF0006617
:1037B8008A698A603E60106F164C206092F9BDE0FD
:1037C800506F0023536780F311881EF0100F03D049
:1037D8000023E1EE103A03E002F17C0090EC108A3D
:1037E800EFF3148323F0040383F31488BFF36F8F7C
:1037F80004B5104600F076F9BDE8044002F1300047
:1038080090E8F01F8CF3098870470000BC16002070
:1038180004ED00E06C0E00201EF0040F0CBFEFF367
:103828000880EFF30980816911F8021C0229FFD092
:1038380001B5724606F091FB01BD00BF40B20028F9
:1038480007DB044A4109012300F01F00834042F8C6
:103858002130704700E100E040B200280CDB43094A
:10386800064900F01F0020330122824041F823203E
:10387800BFF34F8FBFF36F8F704700BF00E100E0C9
:1038880040B20028A8BF00F1604001F10101B8BFB3
:10389800064B4FEA0111ACBF00F5614000F00F0084
:1038A800C9B2B4BF195480F80013704714ED00E092
:1038B800044B054A23F07F039360BFF34F8FBFF398
:1038C8006F8F70470000000800ED00E008B5FFF7B3
:1038D800EFFF104BD3F8882022F47002C3F8882039
:1038E800D3F8882042F4A002C3F888204FF0404261
:1038F800C3F83422BFF34F8FBFF36F8F0023E1EE7D
:10390800103AFFF7E7FBFFF7F1FB00F0BBF803F015
:10391800CDF900BF00ED00E04FF47D41C0F8BC10C8
:1039280042F8203C009B42F81C3C0A49019B42F8A3
:10393800183C029B42F8143C21F001014FF08073BF
:1039480042F8043C42F8081C0023203A0265436709
:10395800704700BF1D110008838913F0020F124B36
:1039680003D190F8BD20D20611D45A6B42F08042A0
:103978005A63D0F8BC3019075CBF43F00803C0F89D
:10398800BC30838943F002038381802070475A6BDF
:1039980022F080425A63D0F8BC301A0744BF23F0A3
:1039A8000803C0F8BC30F0E700EF00E0094A03461E
:1039B800906870B113F1160F006E05D0A0F1800267
:1039C8009A4205D8834203D2814228BF002070471B
:1039D80000207047BC160020104B9B6883421AD108
:1039E800EFF30580B8B9EFF31181102282F3128842
:1039F800BFF36F8F9A8922F002029A81EFF3148342
:103A080023F0040383F31488BFF36F8F81F31188C5
:103A1800BFF36F8F70476FF015007047BC1600201A
:103A280008B515460E460022E1EE102AEFF314827F
:103A380022F0040282F31488BFF36F8FBFF36F8FF5
:103A48000B4A0C4B9060026F1A6000F04BF82C4642
:103A580086F309880020044B98472046002100225D
:103A68000023024C204700008D9F00081D1100080C
:103A7800BC1600206C0E0020014B10221A61704702
:103A880000ED00E0044800231021C2180133562B32
:103A980082F80013F9D1704700E100E008B5EFF3B0
:103AA8000583064A103B02EBC30152F8330049680C
:103AB8008847BDE80840FFF7E9BB00BFD4C000084D
:103AC80001480068704700006C0E0020024B034A52
:103AD8000348012100F090B80000022000000020F7
:103AE80070C8000810B50446FFF736FF226E03467B
:103AF8000548D21AC0E90023044B8360BDE8104092
:103B0800012100F083B800BF700E002000000B15E3
:103B180008B503461048D0F89020C2F30722013AAE
:103B2800934207D90D480E4A012105F0C8FF6FF0EE
:103B3800150008BDC0F898300A6822F01F021A4321
:103B480042F01002C0F89C208A6842F00102C0F8D6
:103B5800A0201846EDE700BF00ED00E0BCC4000857
:103B6800F2D70008F0B50E4685B01F46044600257A
:103B7800B5420DDA606810B397B1431E18420AD0F7
:103B8800104A11482B46012105F099FF6FF01502E4
:103B9800104605B0F0BD7F28F2D921680B42EFD15D
:103BA8002368019306F002FAA36801A90343D0B27F
:103BB8000393FFF7ADFF10F1160FE7D0421C013554
:103BC8000C34D5E718D80008BCC40008044B0522FB
:103BD800C3F89420BFF34F8FBFF36F8F704700BFB8
:103BE80000ED00E0BFF35F8F024B0022C3F8942082
:103BF800704700BF00ED00E010B5034C01232278A8
:103C0800FFF7B0FF207010BD0A17002008B50B4A57
:103C180000231278FFF7A6FF10F1160F07D0084A05
:103C28000021D2F89030C3F30723984200DB08BD87
:103C3800C2F89800C2F8A0100130F2E70A17002075
:103C480000ED00E02DE9F0435E485F49D0F8903080
:103C58000D68C3F307239D4285B000F2B080FFF7DB
:103C6800C1FF49680022954201F10C011BD1574C54
:103C7800574F25706846FDF7E5FFDFF85881DFF8F4
:103C8800589106460025AE4220D123784D490020A0
:103C9800D1F89020C2F307229342C0F28A80FFF73E
:103CA80095FF00204FE0C0F8982051F80C3C23F015
:103CB8001F03134343F01003C0F89C3051F8043C31
:103CC80043F00103C0F8A0300132CCE7009800EBC4
:103CD80005114FEA051CCB683B40B3F5000F49D0EE
:103CE8000AD8B3F5001F31D0B3F5800F37D0B3F53C
:103CF800801F13D00135C6E7B3F1007F43D0B3F17D
:103D0800805F49D0B3F1807FF4D150F80C308868D7
:103D18004A6806F04BF940F0887009E050F80C301A
:103D280088684A6806F042F940F0885040F430202C
:103D3800039001A92078CDE90123FFF7E9FE0028C7
:103D480033DA6FF0150005B0BDE8F08350F80C3099
:103D580088684A6806F02AF940EA0900E8E750F856
:103D68000C3088684A6806F021F940F0C06040F4D9
:103D78000030DDE750F80C3088684A6806F016F91C
:103D880040F08270D4E750F80C3088684A6806F032
:103D98000DF940F48020CBE750F80C3088684A6869
:103DA80006F004F940EA0800C2E7237801332370DB
:103DB800A0E7C1F89830C1F8A000013368E74FF0D8
:103DC800FF30C0E700ED00E07CC800080A170020BB
:103DD8000000F0FF0000021100000811F0B587B0E4
:103DE80007460E4614460021102268461D4607F075
:103DF80047FF02238DF802302A46054B01932146DE
:103E08006846CDE9047604F04BF907B0F0BD00BF71
:103E1800D59F000808B5024B1B689847002008BDCD
:103E28007C0E0020034B044A1860937843F0020389
:103E3800937070477C0E00200001002008B50649E9
:103E4800064821F00701C1F1005202F5003205F0E1
:103E5800D4F9002008BD00BF073B0020800E0020D9
:103E680013B50F4C204607F0DDFB40B90D480E4A4C
:103E7800012105F01BFE6FF0120002B010BD0B4AC5
:103E880092E803006B4683E80300A26812681AB13F
:103E9800194620469047F0E76FF05700EDE700BF5E
:103EA800F8BE00089CC400084DD8000830C50008BA
:103EB80000F01F0201211F2808B501FA02F203468B
:103EC80005D90648064A05F0FAFD002008BD054B4D
:103ED8005B699A430CBF01200020F7E79CC40008E7
:103EE8006CD80008003C014000F01F0201211F2887
:103EF80008B501FA02F2034606D90548054A05F055
:103F0800DEFD6FF0150008BD034B00205A61FAE78B
:103F18009CC400086CD80008003C0140044B1844BD
:103F280000230133994200F8012BFADC704700BFE7
:103F3800B00100202DE9F041104F054600264FF052
:103F480001086B78F4B2A34201D8BDE8F0812B7860
:103F58001C442046FFF7ACFF68B12046FFF7C4FFBA
:103F680057F834303BB107EBC40204F01F04516822
:103F780008FA04F098470136E3E700BF8C0E0020EA
:103F8800034660B1B0FA80F2C2F11F02D2B205490D
:103F98008856054A11680B431360FFF74FBCFF2290
:103FA800F5E700BFB0010020003C0140024A136859
:103FB80023EA000313607047003C0140032921D81D
:103FC800DFE801F0020C10190F4B9A6822EA000290
:103FD8009A60DA6822EA0002DA6070470A4B9A6847
:103FE8000243F5E7084BDA680243DA609A6822EA86
:103FF80000029A607047044B9A6802439A60DA6834
:104008001043D860704700BF003C014030B5B0B1E4
:10401800B0FA80F3C3F11F03DBB20B4850F833400A
:104028008C4204D100EBC3056D68954205D044B9B4
:1040380040F8331000EBC3004260002030BDFF237E
:10404800EBE76FF00F00F9E78C0E002060B1B0FAD3
:1040580080F3C3F11F03DBB2044A002142F8331096
:1040680002EBC30251607047FF23F5E78C0E002076
:1040780000F00302043292000F23934043EA9000B9
:10408800C3B20233054A52F82320030C02EA104057
:1040980093FAA3F3B3FA83F3D8407047003801408A
:1040A80020F08002032A0BDC064B10F0800F03F18E
:1040B80090010CBF18460846242303FB02007047F2
:1040C80000207047F4130020014801F051BE00BFE2
:1040D8000C0F002008B502460349044805F0EAFF22
:1040E8006FF0150008BD00BFBAD80008FCC400086E
:1040F80008B502460349044805F0DCFF6FF01500D7
:1041080008BD00BFD3D80008FCC4000873B5544CE0
:10411800204607F087FA40B95249534805F0CFFFC7
:104128006FF01204204602B070BDA568AB6933B9C0
:104138004E494D4805F0C3FF6FF00404F2E74C49BF
:104148000022204698470028F2D12B680BB949492C
:10415800EFE74949204698470028F8D1EB680BB9A2
:104168004649E6E7424901AA2046984706460028FC
:10417800F6D1019A424B9A4206D042493A4805F094
:1041880099FF6FF08504CDE73F4D4FF0A0432B60BA
:1041980004232B714FF44073A873EB8001464FF44E
:1041A80010733A482B8101AA06F0EBF9041E07DBCD
:1041B800019B32461979186800F0F0FC041E05DAF4
:1041C80033492948224605F075FFABE72E4806F02B
:1041D80074FD024620B12F49234805F06BFFABE779
:1041E800294806F0F9FD024608B12B49F4E72648AC
:1041F80006F0D2FD044610B128490246ECE74023F8
:10420800A5F8E83485F8EC04A5F8783585F87C0538
:10421800234D1D48A02106F05AFF10222146A5F281
:104228008C5006F035FFA5F28C560122284611461F
:10423800013407F01DFA042C05F1240505D03022BD
:10424800E1B2304606F024FFEFE700221146432092
:10425800FFF716FB4320FFF7F1FA002462E700BFDF
:10426800F8BE0008E5D80008FCC4000804D9000816
:10427800C4C8000826D90008BCC8000841D90008ED
:10428800006CDC0265D900080C0F00209CC80008EF
:1042980081D900089FD90008B3D90008C7D90008F8
:1042A80098140020014BC3F8E40470470C0F002059
:1042B80013B504460146074806F0B4FD40B1064A66
:1042C800009023460548012105F003FC6FF0040027
:1042D80002B010BD0C0F0020DCD90008FCC4000897
:1042E8001346020613B504460BD5802800D15BB1EE
:1042F80010481149224605F0DDFE6FF0150002B0A6
:1043080010BD402B28BF402324F080020B489201A7
:1043180002F5C1620244214606F0FEFD0028EED0F7
:10432800074A009023460348012105F0D2FB6FF0AD
:104338000400E4E7FCC40008D3D800080C0F0020F0
:1043480002DA0008030610B50C4600D419B9BDE816
:104358001040FFF7CDBE0146024806F0FBFD206085
:10436800002010BD0C0F002008B50279037842B96F
:104378005A0606D00549064805F0A1FE4FF0FF3061
:1043880008BD13F07C00FBD00249F4E728DA0008E6
:10439800FCC4000847DA000837B50546FFF780FE79
:1043A800044690B10A48294606F0F6FD50B1094A7C
:1043B80000902B460848012105F08BFB6FF00400A4
:1043C80003B030BD01236371FAE76FF01500F7E71A
:1043D8000C0F00206BDA0008FCC4000837B505464E
:1043E800FFF75EFE0446A8B143798BB10B48294616
:1043F80006F009FE50B10A4A00902B4609480121EF
:1044080005F067FB6FF0040003B030BD6071E06039
:104418000020F9E76FF01500F6E700BF0C0F002049
:1044280092DA0008FCC4000873B50446FFF738FEAA
:10443800054600B3114E037902882146304606F03E
:1044480004FD50B10E4A009023460E48012105F0A4
:1044580040FB6FF0040002B070BD63B2002BFADDC0
:1044680006EB84112A8801F5C161204602B0BDE837
:104478007040FFF735BF6FF01500ECE70C0F002018
:10448800B9DA0008FCC4000813B50446FFF708FEB3
:10449800D0B10F4883681B6913B9002002B010BD62
:1044A8000C4998470228F8D10B48214606F006FD2A
:1044B8000028F2D0094A009023460948012105F056
:1044C80008FB6FF00400E9E76FF01500E6E700BFAE
:1044D800F8BE0008BCC800080C0F0020DCDA000891
:1044E800FCC400082DE9F743044689461646984659
:1044F800FFF7D6FD08B123060AD42A492A482246DE
:1045080005F0D8FD6FF01505284603B0BDE8F08327
:1045180000F1140700220023384602F02BFD05465F
:1045280038B102462149204805F0C4FD6FF00A055C
:10453800EAE707F011F910B94320FFF78DF9802C4D
:1045480002D1402E28BF40264A4619483346214604
:1045580006F008FD024690B1164A0090234612481C
:10456800012105F0B6FA384602F0D0FC07F0F4F85D
:1045780010B94320FFF762F96FF00405C4E7802CF7
:1045880004D11EB101462046FFF7AAFE07F0E4F861
:1045980010B94320FFF752F9B8F1000FB4D0C8F8AA
:1045A8000060B1E7D3D80008FCC4000800DB0008AD
:1045B8000C0F00201EDB00082DE9F843064688464C
:1045C80091461F46FFF76CFD044640B9194932462B
:1045D800194805F06FFD6FF01500BDE8F883330644
:1045E800C56802D515493246F2E7B8F1000F17D071
:1045F800036913494FF4C1624D4502EB861628BF83
:104608004D461E442A463144404607F02BFBE368DA
:104618005B1BE36023692B4423614FB90020DCE76F
:10462800B9F1000FF9D00749034805F048FDF4E750
:104638003D60F3E745DB0008FCC4000859DB0008CF
:104648000C0F00207ADB000810B50446FFF728FDA0
:1046580008B1230604D52046BDE81040FFF73ABD4F
:10466800C3684BB9054902884FF4C16303EB84134F
:1046780019442046FFF734FE002010BD0C0F00201F
:1046880010B5134C002340228021204606F0DDFBA4
:10469800002340221946204606F0D7FB04F28C502E
:1046A80002F034FC04F5B66002F030FC04F2D45099
:1046B80002F02CFC04F5BF6002F028FCD4F8E434C6
:1046C80023B1BDE8104000210120184710BD00BFEC
:1046D8000C0F0020034BD3F8E43413B1002102205F
:1046E800184770470C0F0020034BD3F8E43413B17C
:1046F80000210420184770470C0F0020034BD3F803
:10470800E43413B100210520184770470C0F00202E
:10471800034BD3F8E43413B100210620184770473F
:104728000C0F002070B5114C0823D4F8A014D4F84D
:104738009C04C4F8F434D4F8F034002504F5C166B8
:1047480086E80300C4F8F8547BB129462846984700
:10475800B4F8A2244AB194F99C34AB4205DB314643
:104768002846BDE87040FFF7BBBD70BD0C0F0020A8
:1047780038B508883B4BC0F30B0016281B680D465C
:1047880014463ED810B96FF0850039E00138152875
:10479800F9D801A252F820F0FD470008594800084E
:1047A800F9470008594800085548000833480008E8
:1047B800434800088F4700088F4700088F470008C4
:1047C8008F4700088F4700088F4700088F47000869
:1047D8008F4700088F4700088F4700088F47000859
:1047E8008F4700088F470008FD470008FD4700086D
:1047F8004FF4FA4323602968B1F5805F2AD200207C
:1048080038BD44280ED82F28BDD900F57D61C1F3E5
:104818000B0101228A4014490A42EBD14028B2D147
:104828005B08E7E7A828E5D0ADE700F0CFF8C0229D
:104838001923B0FBF3F35343F2E700F0C7F8C022A3
:104848001923B0FBF3F353439B08D3E7074BD1E796
:104858000023CFE7C1F313310131B3FBF1F3236038
:10486800CDE700BFA00100201101100040787D01B4
:10487800162808D8054BC34013F0010F14BF0020B9
:104888006FF0850070476FF085007047EA006000A0
:1048980070B5494C494D00F0B9F8204605F009FDBE
:1048A80001F032FAAB68464AC3F30313D35C20FA2B
:1048B80003F613781C41A64202D2204602F03EF8C5
:1048C8002B6823F480232B602B6843F480332B6000
:1048D8003A4B1A689103FCD55A6F42F001025A67A5
:1048E8005A6F9207FCD59A6802F00C02082A17D171
:1048F8001A68950707D41A6842F001021A602F4A0D
:1049080013689807FCD52D4B9A6822F003029A6029
:104918009A6812F00C0FFBD19A6822F0F0029A60A4
:10492800264D2B6823F080732B602B689901FCD4EB
:10493800244AD2F8043823F44033C2F80438D2F8B1
:10494800043823F0706343F08063C2F8043800F041
:1049580041F82B6843F080732B60184B1A6892015A
:10496800FCD59A6822F0F0029A609A6822F0030255
:1049780042F002029A609A6802F00C02082AFAD100
:10498800A64202D3204601F0D9FF0F4B0A4A1A600B
:104998000A4B9A6822F4E05242F480529A609A686C
:1049A80022F460429A60D3F88C2022F08072C3F817
:1049B8008C20002070BD00BF00D8B8050038024028
:1049C80053DF000800300240A00100200048704773
:1049D80040787D01084B09495A681140084A0A4342
:1049E8005A605A68074922F440325A605A6811409E
:1049F800054A0A435A607047003802400080BFFFEA
:104A0800193040000080BFF019304004064B1A6C82
:104A180042F080521A641B6C82B003F080530193F9
:104A2800019B02B0704700BF0038024008B5074834
:104A380006F0F8FD38B10648FFF7F4F90448FCF72A
:104A480063FB002008BD6FF01200FBE72CC00008D4
:104A58005D4A00080A2838B5074D044604D1AB68FA
:104A68000D215B6828469847AB6803485B68E1B24C
:104A78009847204638BD00BF2CC000082DE9F843F0
:104A8800D0F80480D0F81090D8F8080017460D46E2
:104A98001E4605F0EFFAB7F5001F044616D1284662
:104AA800D8F80840FFF7E4FA84420CD1294605F00B
:104AB800E1FA0446FFF77AFA2046FFF7C7FA002121
:104AC8002046FFF77BFA0020BDE8F883B7F5800F92
:104AD80020D0B6F1806F19D0B6F1C06F18D0B6F1FA
:104AE800007F1AD1022610494A462046FFF78EFA5F
:104AF800B0B9D8F80810284605F0C1FA2046314662
:104B0800FFF75CFA2046FFF73BFADCE70126EAE705
:104B18000326E8E76FF08500D6E76FF01500D3E7C6
:104B28006FF00F00D0E700BF2FA5000838B5036964
:104B3800044658600A4D284606F074FD60B1AB681B
:104B480061681B680C3123B12846984700EAE07079
:104B580038BD6FF05700F9E76FF01200F8E700BFB3
:104B6800F8BE00081FB50C4BD3F8182A12BA0192E8
:104B7800D3F8142A12BA02920C29D3F8103A28BF93
:104B88000C211BBA0C460A4601A9039307F06AF8E0
:104B9800204604B010BD00BF0070FF1F2DE9F0478C
:104BA8001E4F044600EBC1060025B44201D1002087
:104BB80014E02068C30600F01F0911D4656845F0A9
:104BC8002005C0F3481AC0F34420192823D857F801
:104BD8002080B8F1000F0DD16FF01200BDE8F0870A
:104BE800B9F1100F04D0B9F1110FEAD16568E8E7FF
:104BF8003025E6E7404606F015FD0028ECD04B4688
:104C08002A460AF00F01404605F0A3FC002804F1EB
:104C18000804CADAE2E76FF01500DFE76CC900089C
:104C28002DE9F0418C460CF1FF3E19464368BDF86A
:104C380018701D68BEF1030F09D9884A6346884871
:104C4800012104F03CFF6FF01500BDE8F081B5F1DB
:104C5800804F0ED0834885420BD0B2F5803F08D9EB
:104C68007F4813460121804A04F029FF6FF0850030
:104C7800EBE77E48BCF1040F50F82E6007F4807013
:104C880008D170B934467AB92B6A23EA04032B6237
:104C98000020DAE70028F5D0754850F82E40002C9F
:104CA800F1D1744A6346CAE79B68002B40F08680BE
:104CB80002F1FF3807F00100402C4FEA400000F0F5
:104CC800948000F28A80042C00F09180102C00F06F
:104CD8009080012C08BF002318BF0623664F2A6A5C
:104CE80017F803C0022707FA0CF300FA0CF022EABF
:104CF800030303432B62614B284653F82E30984731
:104D0800C5F82C802B6A34EA0303C1D0402E7CD02E
:104D180073D8042E7BD0102E7BD0012E08BF002321
:104D280018BF0623564F574817F803C010F803E07A
:104D380005F11801732351F80C2003FA0EF322EA47
:104D48000303602202FA0EF21343402C41F80C30A0
:104D58006BD062D8042C6AD0102C6AD0012C08BF02
:104D6800002318BF0623DFF820C16A681CF803C0B7
:104D78004FF4807303FA0CF322EA03036B602B6A87
:104D88001C432C622B68402E43F080032B605CD0C0
:104D980053D8042E5BD0102E5BD0012E08BF002301
:104DA80018BF0623FA5CC05C8C5808238340234351
:104DB8008B506B6943F001036B6169E7102B01D1DC
:104DC800013975E723F04000202802D0402B7FF4FA
:104DD8004DAF49084FEA52086CE7B4F5807F0AD016
:104DE800B4F5806F08BF052376E7032376E7012330
:104DF80074E7022372E7042370E7B6F5807F0AD0D0
:104E0800B6F5806F08BF05238AE703238AE70123E5
:104E180088E73B4686E7042384E7B4F5807F0AD019
:104E2800B4F5806F08BF05239BE703239BE70123A5
:104E380099E7022397E7042395E7B6F5807F0AD020
:104E4800B6F5806F08BF0523AAE70323AAE7012365
:104E5800A8E70223A6E70423A4E700BF14DC0008A0
:104E6800CCC40008000C004029DC0008E4CA000893
:104E7800D8CA00086DDC000876DD0008C8CA00083A
:104E880084DD00087DDD00086FDD00082DE9F04FA6
:104E980083B04668D0F810A0346800AF8146DFF8C8
:104EA800E081404606F0BEFB58B9684A68480121CF
:104EB80004F0FCFD6FF0120528460C37BD46BDE82E
:104EC800F08FD8F808B03169DBF8003053B14046AC
:104ED8009847051E09DA5F4A2B465D48012104F010
:104EE800EEFDE9E76FF05705F5E77369012B25D962
:104EF8003169DBF8183008313BB100224046984749
:104F0800054628B1544A2B46E7E76FF05705F9E7FD
:104F18003169DBF80C3008316BB140463A469847A6
:104F2800B0F1000812DA4D4A43464948012104F01D
:104F3800C6FD4546C0E76FF05708F4E7484A4448BD
:104F4800012104F0B3FD6FF01505B5E73B68CAF819
:104F58000030DAE901018368DB6803B19847B0697A
:104F68003A1D002105F00DFBB0F1000808DB7B6855
:104F7800002219791868FFF711FEB0F1000802DA6B
:104F8800384A4346D1E77368A362374B00229C42F4
:104F9800E26233D0B4F1804F0BD0A3F57C439C423E
:104FA80007D003F580639C4203D003F580639C42DD
:104FB8003ED12368B26823F070031343236023684B
:104FC80023F440732360F3686BB36C468AB0D9F856
:104FD80000106A462548D161C2E9050340F2013351
:104FE8001384234B42F8103F194800234FF4115102
:104FF800FCF768FB6FF08505A5465DE72368B16897
:1050080023F070030B432360236823F44073236069
:105018002263636CF26823F0FF0313436364636CD9
:1050280043F400436364236843F00103236043E7C8
:10503800104B9C42C3D0104B9C42C0D00F4B9C429B
:1050480002BF1A6822F440721A60BCE7E5D800086B
:10505800CCC4000894DC0008B4DC0008D3DC0008E9
:10506800F3DC000817DD00080000014035DD00080A
:105078000400000100400140004401400048014094
:10508800F8BE000843681B6803F1140252E8002FB9
:1050980042F0010203F1140040E800210029F3D195
:1050A8000D4A934207D0A2F54C42934203D002F531
:1050B8005042934203D11A6942F040021A6103F147
:1050C8000C0252E8002F42F4807203F10C0040E811
:1050D80000210029F3D170470010014043681B6884
:1050E80003F1140252E8002F22F0010203F1140028
:1050F80040E800210029F3D10D4A934207D0A2F5D8
:105108004C42934203D002F55042934203D11A69AC
:1051180022F040021A6103F10C0252E8002F22F437
:10512800807203F10C0040E800210029F3D1704798
:10513800001001402DE9F04182B0436800AF1D68BE
:1051480006460C46002944D0586819698368DB680C
:1051580073B13A1D9847B0F100080CDA214A224889
:10516800012104F0A3FC40460837BD46BDE8F081A4
:105178006FF05708F2E7EB68796823F400431920C9
:10518800EB60A200A30FA1FB0001FBF7BDF96422AD
:10519800B0FBF2F102FB11031B013233B3FBF2F354
:1051A80003EB01130F2B17D86D468AB033686A4694
:1051B8000E49D461C2E905134FF4007313840C4BF4
:1051C80042F8103F084800234FF41151FCF77AFACF
:1051D800AD466FF01508C6E79BB2AB604FF000080C
:1051E800C1E700BF9CDD0008F4C40008CADD000860
:1051F80004000001F8B50C46036941681D6823796D
:10520800012B35D09A1E56425641B6026279022ABF
:105218009CBF374F37F812C0A27988BF4FF4005CA3
:10522800042A28D0003B18BF01231B03E279012A76
:105238000A680CBF4FF440770027A542D1681DD1FA
:1052480021F4B05131430B43D360136923F4405325
:1052580043EA0C03136143681A68536923F44073E3
:105268003B4353612968FFF765FF00EAE070F8BD2A
:105278004FF4C066CAE74FF48053D7E701F4C06122
:105288008E421FBFD16821F4C0613143D1604268AA
:1052980011680A6902F4405294451FBF0A6922F452
:1052A800405242EA0C020A6142681168CA6802F474
:1052B800805293421FBFCA6822F480521343CB60C6
:1052C80043681A68536903F440739F421FBF5369C8
:1052D80023F440733B43536121682B68994205D0FE
:1052E800FFF728FF0028C2DB23682B600020BEE7F9
:1052F800A8CC00082DE9F34146680546706806F019
:1053080091F950B9354A3648012104F0CFFB6FF0C6
:105318001204204602B0BDE8F081706831698368E4
:105328001B683BB92F4A2E48012104F0BFFB6FF0E0
:105338005704EEE798470446E8B9706A01AA0021C5
:1053480005F01FF9041EE4DB019B00221979186897
:10535800FFF724FC041EDCDB6F682B693C68D3F87C
:105368000080E36823F40053E360B86806F05AF954
:1053780048B91D4AC7E71B4A1948012104F096FBA2
:10538800002CC6DBD9E7D7E902018368DB6803B1E3
:10539800984704F10C0353E8003F43F00C0304F171
:1053A8000C0141E80032002AF3D141462846FFF7B4
:1053B80021FF00280EDB3B7E1BB1636943F0080325
:1053C8006361E36843F40053E360B36A284698478F
:1053D80000249EE76FF015049BE700BFE5D800089E
:1053E800F4C40008E1DD000801DE0008F8B54368F0
:1053F8001D6803691F680B790C46012B4979A6794A
:1054080035D102294AD9042E45D04FF4C0624FF451
:1054180080534FF0030C8C453DD1002B77D0002AE8
:1054280014BF03220422B24235D1E37963B1012BC0
:1054380031D1394B9D4207D0A3F54C439D4203D04F
:1054480003F550439D4226D1EB6823F40053EB60EB
:105458002146FFF7CFFE00281DDBEB6843F400531D
:10546800EB6094E8030087E80300002015E0022BB6
:1054780006D102291FD9042E0DD04FF48062C6E749
:1054880002290A461FD9042E02D123B90022BEE7F9
:1054980013BB0329C7D06FF08500F8BD1F4A042E3F
:1054A80032F811C0F7D04FF4C062033B012BF2D998
:1054B8004FF4805319E0194A042E32F811C0EAD08B
:1054C8004FF48062F1E7154A042E32F811C009D171
:1054D800002BE0D11A46EBE7033B012BDBD9D5E7DC
:1054E8000022E2E7002BFBD11A46BCF5805F08D00A
:1054F800BCF5405F08D0BCF1000F8AD14FF0010C19
:1055080089E74FF0000C86E74FF0020C83E7002A8A
:1055180014BF0222032286E700100140A8CC00082D
:1055280008B5044A0448012104F0C0FA6FF01200DB
:1055380008BD00BFE5D80008D4C40008B0B582B0E3
:105548000446806810F4B87000AF1FD06D468AB06A
:105558006A46104B5361104BC2E906304FF4007392
:1055680013840E4B42F8103F00230D484FF411519D
:10557800FCF7A8F8A3685B06AD4605D5E3687B6031
:105588007B68A3687B607B686FF004000837BD46C2
:10559800B0BD00BF37DE00082ADF000804000001A4
:1055A800D4C400082DE9F047044600AF05694668F1
:1055B8003E4806F037F820B9FFF7B2FFBD46BDE810
:1055C800F087B36820469847284605F074FA606863
:1055D800012105F047FA002802DA10F1860FEDD113
:1055E800656826690021284605F03CFA041E0CDB94
:1055F8002E48296983681B6853B19847044650B1FF
:105608002B4A2C48012104F051FA04EAE470D5E74A
:105618006FF05704F4E7B5684FF00108D6E9023295
:1056280003EBC2039D42F0D2286805F0FBFF034656
:10563800C0B92A68297910686C468AB06A461E4D36
:10564800D1614FF4007111841C49C2E9055042F838
:10565800101F18484FF41151FCF734F8A5466FF0A5
:105668001204D2E728682979EB88D0F810E0D0F83E
:1056780008A0DEF800C0DA0754BF43F4B01383F47F
:10568800D01323F4801208FA01F9DB074CBF4CEA67
:1056980009032CEA0903CEF80030DAF800309847FD
:1056A800002801DB0835B9E70446AEE7F8BE000874
:1056B80042DE0008D4C400085DDE000804000001D2
:1056C8002DE9F04F85B0056900AF82460E46984631
:1056D800914612B9002B00F0E681B3889A042BD4C6
:1056E8004FF0FF324FF0FF3305F1100001F042FC9C
:1056F8006E60DAF810307B601B68DAF804B0B288A4
:10570800DBF800409E4240F0A580130540F16F8110
:10571800236823F44443B9F1000F14D043F4404301
:105728002360B08805F018F90646D9F800306B6395
:1057380093B1D9F804300FE0AB69002BD0D16B6876
:105748009E42CDD1D5E743F400432360B08805F0ED
:1057580003F9064600236B63AB6305F14802334641
:1057680005F1380105F1340005F0D8F86864B8F19E
:10577800000F40F05681C5F83C8000232B6405F1EA
:105788005002334605F1400105F13C0005F0C6F82A
:105798000023E8642B63DAF804302668D3F8009015
:1057A800D9F8003043F04003C9F80030DAF810A007
:1057B800DAF8000006F4444650B1037D43B10121F4
:1057C800083005F064F9DAF80030186905F004FFCC
:1057D800D9F8043043F02003C9F80430B8F1000FB9
:1057E80005D0D9F8043043F04003C9F80430D9F89B
:1057F800043043F08003C9F804304FF4FA584FF0EE
:105808000A0905F1200A0023A86B1946814240F0D5
:1058180011810021D5F840C00846604540F011814B
:105828008B4238BF0B4608FB03F22B681B68B2FBA0
:10583800F3F2C832A2FB0923504601F09BFB002873
:1058480000F00681994A9A48012104F02FF96FF077
:1058580073020EE0DBF814100229C2F345131AD0C4
:1058680003291BD001294CD1043B1C2B1AD96FF0FA
:1058780085022B6813B19B889B0407D400237A60A8
:105888006B6005F1100001F041FB7A68104614378F
:10589800BD46BDE8F08F043B0C2BE7E7082B01D091
:1058A800102BE4D16368100482484CBF43F0100306
:1058B80023F0100363608368DBF81010DB6833B3F0
:1058C80007F10C029847002821DBFB6800223068AA
:1058D8001146013223FA02FC844520D82368764A0F
:1058E80023F040032360236852F8212023F0380373
:1058F80013432360B38899072AD4236823F002034B
:1059080029E06E4A6A48012104F0D0F8AFE76C4AF2
:105918006748012104F0CAF86FF00402A9E7082AD1
:10592800D5D16C468AB06A466649C2E9051059085D
:105938001B0A13620523D16142F8103F5C4800231B
:105948004FF42151FBF7BEFE6FF01502A54690E714
:10595800236843F002032360B38813F0040F23681D
:1059680014BF43F0010323F001032360B38813F449
:10597800006F236823F4444304D0B9F1000F3FD0EB
:1059880043F440432360B38813F0100F236814BF17
:1059980043F0800323F080032360236823F400533B
:1059A8002360337D1BB99BF818305A072BD5236821
:1059B80043F400732360636823F004036360B388CF
:1059C800414A13F0010F236814BF23F4827343F490
:1059D80082732360B08804F0BFFF0138236852F84F
:1059E800202023F40063134323607B681E60B08883
:1059F80004F0B2FF0646B9F1000F7FF496AEA9E6AF
:105A080043F40043BEE7B38813F0010F236823F47F
:105A18000073CFD143F480232360636843F0040309
:105A2800CCE7D8F80030EB63002B3FF4A6AED8F8EB
:105A38000430A3E66A6B02EBC102013152681344D9
:105A4800E4E6EA6B02EBC002013052681144E4E676
:105A58002A6B002A7FF40DAFB6F5404F1AD1AB6C14
:105A6800ABB92B6D9BB1DBF80030196821F44441C8
:105A780041F400411960196841F040011960596802
:105A880041F020015960596841F040015960266889
:105A980006F44446AB6C002B7FF4B5AE2B6D002B9F
:105AA8007FF4B1AEE5E61A46F0E600BFD5DE0008A1
:105AB800D4C40008F8BE00084CCB000881DE0008FA
:105AC800A9DE0008FBDE0008C0CB000810B54FF0C7
