:020000040800F2
:1000000000390020454F00084FC50008314F000857
:10001000314F0008314F0008314F00080000000048
:100020000000000000000000000000004150000837
:10003000314F000800000000A54F0008757300084C
:10004000C5520008C5520008C5520008C552000834
:10005000C5520008C5520008C5520008C552000824
:10006000C5520008C5520008C5520008C552000814
:10007000C5520008C5520008C5520008C552000804
:10008000C5520008C5520008C5520008C5520008F4
:10009000C5520008C5520008C5520008C5520008E4
:1000A000C5520008C5520008C5520008C5520008D4
:1000B000C5520008C5520008C5520008C5520008C4
:1000C000C5520008C5520008C5520008C5520008B4
:1000D000C5520008C5520008C5520008C5520008A4
:1000E000C5520008C5520008C5520008C552000894
:1000F000C5520008C5520008C5520008C552000884
:10010000C5520008C5520008C5520008C552000873
:10011000C5520008C5520008C5520008C552000863
:10012000C5520008C5520008C5520008C552000853
:10013000C5520008C5520008C5520008C552000843
:10014000C5520008C5520008C5520008C552000833
:10015000C5520008C5520008C5520008C552000823
:10016000C5520008C5520008C5520008C552000813
:10017000C5520008C5520008C5520008C552000803
:10018000C5520008C5520008C5520008C5520008F3
:08019000C5520008C552000829
:1001980081F0004102E000BF83F0004330B54FEA30
:1001A80041044FEA430594EA050F08BF90EA020F9D
:1001B8001FBF54EA000C55EA020C7FEA645C7FEA30
:1001C800655C00F0E2804FEA5454D4EB5555B8BF53
:1001D8006D420CDD2C4480EA020281EA030382EAC4
:1001E800000083EA010180EA020281EA0303362D56
:1001F80088BF30BD11F0004F4FEA01314FF4801C29
:100208004CEA113102D0404261EB410113F0004F3A
:100218004FEA03334CEA133302D0524263EB4303F1
:1002280094EA050F00F0A780A4F10104D5F1200E8F
:100238000DDB02FA0EFC22FA05F2801841F10001EA
:1002480003FA0EF2801843FA05F359410EE0A5F1BE
:1002580020050EF1200E012A03FA0EFC28BF4CF0EF
:10026800020C43FA05F3C01851EBE37101F00045A5
:1002780007D54FF0000EDCF1000C7EEB00006EEBB2
:100288000101B1F5801F1BD3B1F5001F0CD349083C
:100298005FEA30004FEA3C0C04F101044FEA445293
:1002A80012F5800F80F09A80BCF1004F08BF5FEA1A
:1002B800500C50F1000041EB045141EA050130BDFA
:1002C8005FEA4C0C404141EB0101013C28BFB1F50C
:1002D800801FE9D291F0000F04BF01460020B1FA57
:1002E80081F308BF2033A3F10B03B3F120020CDA2A
:1002F8000C3208DD02F1140CC2F10C0201FA0CF008
:1003080021FA02F10CE002F11402D8BFC2F1200C6C
:1003180001FA02F120FA0CFCDCBF41EA0C01904022
:10032800E41AA2BF01EB0451294330BD6FEA04046B
:100338001F3C1CDA0C340EDC04F11404C4F1200256
:1003480020FA04F001FA02F340EA030021FA04F368
:1003580045EA030130BDC4F10C04C4F1200220FABF
:1003680002F001FA04F340EA0300294630BD21FAFD
:1003780004F0294630BD94F0000F83F4801306BFC3
:1003880081F480110134013D4EE77FEA645C18BFB7
:100398007FEA655C29D094EA050F08BF90EA020F4E
:1003A80005D054EA000C04BF1946104630BD91EA46
:1003B800030F1EBF0021002030BD5FEA545C05D149
:1003C8004000494128BF41F0004130BD14F5800488
:1003D8003CBF01F5801130BD01F0004545F0FE41FC
:1003E80041F470014FF0000030BD7FEA645C1ABF31
:1003F800194610467FEA655C1CBF0B46024650EA68
:10040800013406BF52EA033591EA030F41F4002193
:1004180030BD00BF90F0000F04BF0021704730B519
:100428004FF4806404F132044FF000054FF00001EE
:1004380050E700BF90F0000F04BF0021704730B5AF
:100448004FF4806404F1320410F0004548BF404284
:100458004FF000013EE700BF42004FEAE2014FEAD9
:1004680031014FEA02701FBF12F07F4393F07F4FB4
:1004780081F06051704732F07F4208BF704793F0B7
:100488007F4F04BF41F40021704730B54FF46074CA
:1004980001F0004521F000411CE700BF50EA0102CD
:1004A80008BF704730B54FF000050AE050EA010276
:1004B80008BF704730B511F0004502D5404261EBE6
:1004C80041014FF4806404F132045FEA915C3FF427
:1004D800D8AE4FF003025FEADC0C18BF03325FEAC4
:1004E800DC0C18BF033202EBDC02C2F1200300FA75
:1004F80003FC20FA02F001FA03FE40EA0E0021FA9A
:1005080002F11444BDE600BF70B54FF0FF0C4CF487
:10051800E06C1CEA11541DBF1CEA135594EA0C0F39
:1005280095EA0C0F00F0DEF82C4481EA030621EA74
:100538004C5123EA4C5350EA013518BF52EA0335AF
:1005480041F4801143F4801338D0A0FB02CE4FF061
:100558000005E1FB02E506F00042E0FB03E54FF091
:100568000006E1FB03569CF0000F18BF4EF0010E89
:10057800A4F1FF04B6F5007F64F5407404D25FEA85
:100588004E0E6D4146EB060642EAC62141EA555138
:100598004FEAC52040EA5E504FEACE2EB4F1FD0C7A
:1005A80088BFBCF5E06F1ED8BEF1004F08BF5FEAF8
:1005B800500E50F1000041EB045170BD06F00046AA
:1005C80046EA010140EA020081EA0301B4EB5C0457
:1005D800C2BFD4EB0C0541EA045170BD41F480114F
:1005E8004FF0000E013C00F3AB8014F1360FDEBF74
:1005F800002001F0004170BDC4F10004203C35DA50
:100608000C341BDC04F11404C4F1200500FA05F3D2
:1006180020FA04F001FA05F240EA020001F0004273
:1006280021F0004110EBD37021FA04F642EB0601E9
:100638005EEA430E08BF20EAD37070BDC4F10C0413
:10064800C4F1200500FA04F320FA05F001FA04F2D7
:1006580040EA020001F0004110EBD37041F10001C3
:100668005EEA430E08BF20EAD37070BDC4F12005CE
:1006780000FA05F24EEA020E20FA04F301FA05F236
:1006880043EA020321FA04F001F0004121FA04F2DE
:1006980020EA020000EBD3705EEA430E08BF20EAAE
:1006A800D37070BD94F0000F0FD101F000464000E8
:1006B80041EB010111F4801F08BF013CF7D041EA6A
:1006C800060195F0000F18BF704703F0004652006E
:1006D80043EB030313F4801F08BF013DF7D043EA3F
:1006E8000603704794EA0C0F0CEA135518BF95EAF5
:1006F8000C0F0CD050EA410618BF52EA4306D1D17C
:1007080081EA030101F000414FF0000070BD50EA9A
:10071800410606BF1046194652EA430619D094EA24
:100728000C0F02D150EA013613D195EA0C0F05D10E
:1007380052EA03361CBF104619460AD181EA030162
:1007480001F0004141F0FE4141F470014FF000001A
:1007580070BD41F0FE4141F4780170BD70B54FF0B5
:10076800FF0C4CF4E06C1CEA11541DBF1CEA135535
:1007780094EA0C0F95EA0C0F00F0A7F8A4EB050417
:1007880081EA030E52EA03354FEA013100F088800E
:100798004FEA03334FF0805545EA131343EA1263D7
:1007A8004FEA022245EA111545EA10654FEA00268C
:1007B8000EF000419D4208BF964244F1FD0404F545
:1007C800407402D25B084FEA3202B61A65EB0305A1
:1007D8005B084FEA32024FF480104FF4002CB6EB5E
:1007E800020E75EB030E22BFB61A754640EA0C00DE
:1007F8005B084FEA3202B6EB020E75EB030E22BF1E
:10080800B61A754640EA5C005B084FEA3202B6EB5E
:10081800020E75EB030E22BFB61A754640EA9C001D
:100828005B084FEA3202B6EB020E75EB030E22BFED
:10083800B61A754640EADC0055EA060E18D04FEAAB
:10084800051545EA16754FEA06164FEAC30343EA4B
:1008580052734FEAC2025FEA1C1CC0D111F4801F18
:100868000BD141EA00014FF000004FF0004CB6E711
:1008780011F4801F04BF01430020B4F1FD0C88BFB0
:10088800BCF5E06F3FF6AFAEB5EB030C04BFB6EBBB
:10089800020C5FEA500C50F1000041EB045170BDAE
:1008A8000EF0004E4EEA113114EB5C04C2BFD4EBDB
:1008B8000C0541EA045170BD41F480114FF0000E5F
:1008C800013C90E645EA060E8DE60CEA135594EADB
:1008D8000C0F08BF95EA0C0F3FF43BAF94EA0C0FDE
:1008E8000AD150EA01347FF434AF95EA0C0F7FF453
:1008F80025AF104619462CE795EA0C0F06D152EAA7
:1009080003353FF4FDAE1046194622E750EA41068A
:1009180018BF52EA43067FF4C5AE50EA41047FF49B
:100928000DAF52EA43057FF4EBAE12E74FEA4102FE
:10093800B2F1E04324BFB3F5001CDCF1FE5C0DD935
:1009480001F0004C4FEAC0024CEA5070B2F1004F7F
:1009580040EB830008BF20F00100704711F0804F82
:1009680021D113F13872BCBF01F00040704741F447
:1009780080114FEA5252C2F11802C2F1200C10FA4B
:100988000CF320FA02F018BF40F001004FEAC1232F
:100998004FEAD32303FA0CFC40EA0C0023FA02F3D3
:1009A8004FEA4303CCE77FEA625307D150EA0133A9
:1009B8001EBF4FF0FE4040F44000704701F0004079
:1009C80040F0FE4040F40000704700BF53B94AB9F8
:1009D800002908BF00281CBF4FF0FF314FF0FF303F
:1009E80000F00CB8ADF1080C6DE904CE00F010F879
:1009F800DDF804E0DDE9022304B07047704700BF6A
:100A0800034613F8012B002AFBD1181A0138704746
:100A18002DE9F04786468C460846089E15467446DA
:100A28001946002B40F0C2808542B2FA82F245D9BD
:100A38004AB1C2F1200300FA02FC2EFA03F39540F2
:100A480043EA0C0C94404FEA154EA8B2BCFBFEF8E2
:100A5800230C0EFB18CC08FB00F943EA0C4399451C
:100A680028D9EB1808F1FF3704D2994502D9A8F123
:100A780002072B44A3EB0903A4B2B3FBFEFC0EFB55
:100A88001C330CFB00F044EA0344A04214D92C198F
:100A98000CF1FF3304D2A04202D9ACF102032C447A
:100AA800241A43EA07401EB1D4400023346073601F
:100AB800BDE8F0874746DDE76346F1E792BB431B95
:100AC80001214FEA154EAFB2B3FBFEFC200C0EFB22
:100AD8001C330CFB07F840EA0343984562D9EB182E
:100AE8000CF1FF3004D2984502D9ACF102002B4436
:100AF800A3EB0803A4B2B3FBFEFC0EFB1C330CFBF8
:100B080007F744EA0344A7424ED92C190CF1FF33E6
:100B180004D2A74202D9ACF102032C44E41B43EAF5
:100B28000040C0E7C2F1200320FA03F1954090404D
:100B38002EFA03F303434FEA154EAFB2B1FBFEFCA6
:100B48000EFB1C10190C0CFB07F841EA0041884504
:100B580004FA02F422D969180CF1FF3004D288454E
:100B680002D9ACF102002944A1EB08019BB2B1FB08
:100B7800FEFC0EFB1C110CFB07F743EA01439F42E6
:100B88000ED9EB180CF1FF3104D29F4202D9ACF117
:100B980002012B44DB1B41EA004192E76046E3E790
:100BA8006146F7E76046A3E76346B7E7834206D99D
:100BB80016B9002108467BE7C6E900E0F9E7B3FA71
:100BC80083F78FB9834201D3724508D8BEEB02047C
:100BD80060EB030301209C461EB9002168E73846F4
:100BE800FAE7C6E9004CF8E7C7F1200CBB4022FA47
:100BF8000CF41C432EFA0CF120FA0CF3B840014314
:100C08004FEA14490EFA07F5B3FBF9F81FFA84FE08
:100C180009FB18300B0C08FB0EFA43EA00439A450F
:100C280002FA07F240D9E31808F1FF3004D29A45D6
:100C380002D9A8F102002344A3EB0A0389B2B3FB4B
:100C4800F9F809FB183308FB0EFE41EA03418E450B
:100C58002CD9611808F1FF3304D28E4502D9A8F1C6
:100C68000203214443EA0040A0FB0298A1EB0E01D5
:100C78004145CE46434602D306D14D4504D2B9EB91
:100C8800020E68EB04030138002EA6D0B5EB0E0265
:100C980061EB030101FA0CFC22FA07F34CEA0303A7
:100CA800F940C6E9003198E74046C5E74346D9E729
:100CB80013B50C460DF1060100F084FC002814DB86
:100CC800BDF8063007EE903AFBEEC97A77EEA77AC0
:100CD80017EE900AFFF7C0FB05A3D3E90023FFF73F
:100CE80013FCFFF723FE2060002002B010BD00BFF8
:100CF800182D4454FB2109402DE9F04FD0E9006339
:100D080089B088460393838905931546B368039988
:100D18005B6806AA30469847002831DBDDE9064BB8
:100D2800A8FB0423049208FB0B380498DFF86090B2
:100D380015A3D3E900234146FFF748FE049B4FF073
:100D4800FF3A9A4579EB0803074619D3A5FB0443F4
:100D580005FB0B3529460CA3D3E900232046FFF7F2
:100D680035FEA24579EB0505034609D38742B268EB
:100D780006D305990091146803993A463046A0476E
:100D880009B0BDE8F08F00BF00CA9A3B0000000020
:100D9800FFC99A3B08B5002002F0ACFF014680B9B4
:100DA800002142F210700DF065F8094A09490A4815
:100DB80000F096F84FF0FF314FF0FF300DF05AF881
:100DC800F8E706480AF0A0FD4FF0FF3008BD00BF65
:100DD800080F0020C40E0020680D002066F60008E9
:100DE80013B507480469836801A95B68984720B967
:100DF80023680198584000F0010002B010BD00BF00
:100E0800F4E50008014807F0A9BC00BF380200203B
:100E1800F7B52D4D2E7816BB2C4C20460CF0F4FE61
:100E2800D8B12269A168136843F0010313600B6805
:100E3800274A314620469847FFF7D2FF254B00281E
:100E4800D4BF0020012018700DF0A9F800230A2251
:100E5800FFF7BCFD204BC3E9000101232B701B48A1
:100E68001E4D0CF0D1FE10B9286803B0F0BDFFF795
:100E7800B7FF00280446D4BF002701270DF08FF8DC
:100E8800002C144E1BDD3478CCB90A220023FFF75E
:100E98009DFD114A536801931368B0EB030C019B45
:100EA80061EB0303BCF1B50F73F1000307DB2B689B
:100EB8003BB1082B00DD1C1FC2E900012C60377014
:100EC800D2E71424F8E700BFD7190020F4E500089A
:100ED80011000100D6190020380300200C0F002053
:100EE8002DE9F0412DED028B17468AB0044675486E
:100EF8000D460AF009FD7449384600F041FB002808
:100F080005DA72484FF0FF310AF0FEFC26E070481F
:100F1800DFF84C820AF0F8FC6E480AF0F5FC6E4ADD
:100F28000523CDE9023204210323CDE90031012252
:100F380002230021284600F09BFB46F2A813AB626F
:100F4800664BC5F82080C5F82480EB61284600F080
:100F5800B7FB064650B162480AF0D6FC4FF0FF36A0
:100F680030460AB0BDEC028BBDE8F0815D480AF05E
:100F7800CBFC5D480AF0C8FC9FED5C1ADFED5C0A0B
:100F88009FED5C0A0B21204600F0C6FD294620464D
:100F98000AF0DBFB204639460AF0DBFB564BC4F867
:100FA8006080A366204600F0CDFE08B95348D3E719
:100FB80053480AF0A9FC53480AF0A6FC52480AF024
:100FC800A3FC52480AF0A0FC4FF47A700AF085FBA3
:100FD800204600F061FF30B94D480AF095FC94F8BE
:100FE8006D104C4890E74C489FED4C8A0AF08CFCF9
:100FF8004B480AF089FC94F86D104A480AF084FCC2
:1010080049480AF081FC49480AF07EFC642584EDD1
:10101800048A20460AF0A1FBB0EE480A204601F0F7
:1010280075F801200AF059FB013DF2D14FF4FA702E
:101038000AF053FB0DF126013846ADF8265000F0B2
:10104800C1FA00283BD1BDF826309FED397A07EE6A
:10105800903AFBEEC97A67EE877A364B3648C3ED8D
:10106800007A364B00251D60354B1D600AF04CFC9C
:101078004FF4FA600AF031FB324B334933481C60B5
:101088002A460CF08EFF00220023CDE90623CDE985
:101098000355CDE901552E4B2E4900954FF40062BA
:1010A8002D4807F06DFD2D492B480CF04DFE01220F
:1010B80000232648CDE9002308F0FEFA50E7DFEDCB
:1010C800177ACAE780F60008B0ED0008A4F6000811
:1010D800D0F60008E8F60008C7CFFFFF0AD7A33C00
:1010E80008F700082FF700084CF7000817B7D138A1
:1010F8000000A0433333B3400000A0416BF7000861
:1011080091F70008ADF70008CCF70008F8F70008D9
:1011180028F800084AF800085FF8000800000000F6
:1011280083F80008B5F80008D8F80008F9F80008AE
:10113800DB0FC940240F00202CF90008200F0020E5
:101148001C0F0020100F00200D0E000800040020C6
:1011580065150008001A00204003002054F9000813
:101168000000A04070B52DED068B0446FFF750FE39
:101178000546D4F85801DFEDDA9A00F061FAD4F8A0
:10118800580100F069FAD74BD74A1968D2ED007AAE
:10119800A94209D130EE678AB4EEE98AF1EE10FA75
:1011A8000BDD38EE698AF7E7D0499FEDD18A0868E8
:1011B800D04982ED000A08601D60DFEDCD8A01E0AC
:1011C80038EE298AB5EEC08AF1EE10FAF8D4002D6F
:1011D800C7BF07EE905AF8EEE77A9FEDC50A9FED74
:1011E800C0AADFEDC5AAC54EC2BF87EEA90A89EE1F
:1011F800A7AA20EE080A09F0FBFBBE4BBDEEC00A09
:101208001B6810EE102A1A441346B84AB6EE009A24
:10121800002D6AEE096A13605CDD07EE905AF8EE5D
:10122800E77A87EEA97A67EE087AFDEEE77AF8EEB4
:10123800E77A07EECA8A204638EE268A0AF08DFA3F
:101248000123D4F854011A4619460AF04DFA88EEDB
:101258000A0AD4ED188A30EE498AB5EEC08AF1EE52
:1012680010FA48BFB1EE488AB4EEEA8AF1EE10FAF5
:1012780000F1338120EE290A09F0F4FDDFEDA07AB0
:101288009FEDA07A68EEE77AB4EEC78AF1EE10FA1D
:1012980067EE807A07D538EE6A8ADFED9B6A88EEBA
:1012A800267A67EE877A96ED000A9FED987A20EE07
:1012B800070A9FED977A20EE070A9FED967A07EEC8
:1012C800870A204686ED000ABDEC068BBDE8704013
:1012D80000F01CBF40F0FE80D4ED085AF5EEC05A6D
:1012E800F1EE10FA4CBFB1EE657AB0EE657AF0EE29
:1012F800006A77EE666AB2EE046AC6EE867AF7EEA0
:10130800006AF5EEC07AF1EE10FA00F1B580F4EE5D
:10131800667AF1EE10FAC8BFF0EE667AB5EE004ACA
:10132800B6EE086AF0EE443A47EE863AF3EE027AF1
:1013380087EE276A36EEE35AB4EEEA6AF1EE10FA5F
:1013480000F19D80B4EE666AF1EE10FAF7EE007ACD
:10135800C8BFB0EE676ADFED704AC4EE867A9FEDCB
:101368006F6A67EEA37AF4EEC67AF1EE10FA00F12E
:1013780089809FED6B6AF4EE467AF1EE10FAC8BFE9
:10138800F0EE467A9FED676A674867EE867A0188CD
:10139800FCEEE77A4A1C17EE903ADFED647A92B2D7
:1013A800282AB4EEE75A28BF0022F1EE10FA9BB2C1
:1013B800028040F3C980B4EEC47AF1EE10FA40F32B
:1013C800C38067EE097AF5EEC05AF1EE10FAB7EE6F
:1013D800006ABFEE008AF5EEC07AD8BFB0EE468A42
:1013E800F1EE10FA51D4F4EE667AF1EE10FAC8BFB5
:1013F800F0EE467A9FED4E7A9FED4E6A28EE078A08
:1014080076EEE77AB0EE667A07EE867A28EE248AD8
:1014180028EE058A28EE078AB5EEC08AF1EE10FAA2
:1014280007DDDFED457AB4EEE78AF1EE10FA00F158
:101438008F80B5EEC08AF1EE10FA07D5DFED3F7A5E
:10144800B4EEE78AF1EE10FA00F3828099421FD2D7
:101458000323D4F854011A4619460AF045F99FEDBA
:10146800241AD4F85401F0EE410AB0EE410A00F013
:10147800C7F9C6ED008A2AE0DFED1D7A4EE79FED39
:101488001E6A68E7F0EE467A7CE7DFED197AB1E785
:10149800DFED2B7AB4EEE78AF1EE10FA06DCDFED29
:1014A800297AB4EEE78AF1EE10FA4FD501231A46ED
:1014B8001946D4F854010AF017F920460AF04DF9F4
:1014C800B0EE480A204600F021FE86ED008ABDEC09
:1014D800068B70BD0AEE688AADE6DFED057AE2E6B6
:1014E800DB0FC9401C0F0020240F0020140F002020
:1014F80000000000200F0020CDCC4C3D180F00202C
:10150800CDCC4C3E9A99193ECDCCCC3DCCCC4C3E62
:101518009A99993ECDCC4C3FCDCC0C3F3333B33E5A
:101528003333733F00002042D41900200AD7233CEC
:101538006666663FCDCCCC3E8FC2F53D8FC2F5BD09
:101548006F12833A6F1283BA994281D3002380E7DE
:101558009942FFF47DAFB0EE678AA7E738B5064D2C
:10156800064C4FF0FF324FF0FF33284607F02AF9B8
:101578002068FFF7F7FDF4E738020020100F00207D
:1015880038B50C460546A0B199B108680CF03CFB8B
:1015980038B90948094A01210AF07AFD6FF01200AA
:1015A80038BD2C600448064A03210AF071FD00206A
:1015B800F6E76FF01500F3E770EA00085FF9000836
:1015C80071F90008F0B50D468BB0002831D000291C
:1015D8002FD04FF6FF7302AAADF8043001AB029387
:1015E800049202230DF10602CDE906230393012696
:1015F80006ABCDE9083601680596002751F8040BBB
:10160800ADF80670836804AA1C6808ABA047041EDE
:1016180008DA094A0948234631460AF042FD2046BD
:101628000BB0F0BDBDF80630C3F30D032B803C466C
:10163800F5E76FF01504F2E78DF9000870EA000885
:10164800034B186810B10349FFF732BB704700BF5E
:10165800B0000020280F0020014B93ED000A7047CE
:10166800280F00209FED010A704700BF000000000E
:10167800E0B18360009BC360019B0361029B4361EF
:10168800039B83610A4BC3610A4B03620A4B4362A3
:101698000A4B83620023C0E90012C36203634363F9
:1016A80001220023836380F83C200364704700BF55
:1016B8000AD7A33C0000404100E440C6C7CFFFFF63
:1016C8002DE9F047054698B038B390ED097ADFED7B
:1016D800446AD0ED087AB4EE667AF1EE10FA04D0D6
:1016E800F4EEC77AF1EE10FA01D5C5ED097A0023B8
:1016F8000024AF6AEB622B636B632C8785F83A4052
:1017080038480CF081FA064660B937480AF0FCF808
:101718004FF0FF332B6485F83B604FF0FF3018B073
:10172800BDE8F08731480CF06FFA064608B9304832
:10173800ECE746F2A813002FD8BF1F462D4E2E48BF
:101748002E4AB2FBF7F24FF001083946254F3260B6
:1017580086F804800AF0D8F8316822466846CDE950
:1017680000784FF0020ACDE90244FFF7C5FA316864
:101778000497224604A84FF00309CDE90644CDF8A2
:1017880014A0FFF7B9FA316808972246174FCDF829
:10179800249008A8CDE90A44FFF7AEFA316822463A
:1017A8000CA8CDE90E44CDE90C7AFFF7A5FA31680B
:1017B800224610A8CDE91244CDE91079FFF79CFA2A
:1017C800042314A8316814972246CDE916441593CA
:1017D800FFF792FA2E6485F83B8020469FE700BF0A
:1017E80000E440C680E60008AFF9000864E6000897
:1017F800D5F900082C0F0020FCF9000800CA9A3B14
:101808002DE9FF470446002800F00D81B5EEC00A17
:10181800F1EE10FA00F10A8190ED097AB4EEC07A7F
:10182800F1EE10FA58BFB0EE407AF5EEC00AF1EECC
:1018380010FA00F1FE80D4ED097AF4EEE07AF1EEC8
:1018480010FA58BFF0EE607AB5EEC01AF1EE10FA51
:1018580000F1F28094ED096AB4EEC16AF1EE10FA73
:1018680058BFB0EE416AD4ED085AC7EE256AF5EEC6
:10187800C06AF1EE10FA00F1E280B7EE007AF4EEF9
:10188800476AF1EE10FAC8BFF0EE476A87EEA57A0C
:10189800C4ED0B6AB5EEC07AF1EE10FA00F1D28011
:1018A800F7EE007AB4EE677AF1EE10FAC8BFB0EE40
:1018B800677AC6EE257A84ED0C7AF5EEC07AF1EEF9
:1018C80010FA00F1C280B7EE006AF4EE467AF1EE43
:1018D80010FAC8BFF0EE467ADFF87881C4ED0D7AC9
:1018E80098F80430002B00F09E80D8F8001094F887
:1018F8003830DFF864A1CDF800A006EE101AB8EE73
:10190800466A013B66EE866A27EE067AFCEEE66AD0
:1019180067EE867ABCEEC77A16EE907AFCEEE77A26
:1019280017EE106A17EE905A8F4228BF0F468E4264
:1019380028BF0E468D4228BF0D460022012BCDE957
:1019480002224FF0020398BF3A4668460193FFF718
:10195800D3F994F83830D8F80010DFF80091CDF8B2
:10196800009003F0FD03012B4FF0000218BF012384
:10197800CDE90222684606BFCA1B01930193FFF70F
:10198800BBF994F83930D8F80010CDF800A0013B25
:10199800012B4FF00002CDE902224FF0030398BF5C
:1019A800324668460193FFF7A7F994F83930D8F81A
:1019B8000010CDF8009003F0FD03012B4FF000025A
:1019C800CDE902224FF0020308BF8A1B6846019343
:1019D800FFF792F994F83A30D8F80010CDF800A043
:1019E800013B012B4FF00002CDE902224FF0040326
:1019F80098BF2A4668460193FFF77EF994F83A3073
:101A0800D8F80010CDF8009003F0FD03012B4FF03B
:101A18000002CDE902224FF0030308BF4A1B6846C3
:101A28000193FFF769F904B0BDE8F0879FED087AE4
:101A3800FBE6DFED077A07E79FED056A13E7DFEDC1
:101A4800046A23E79FED027A33E7DFED017A43E783
:101A5800000000002C0F002064E6000880E6000863
:101A680068B19FED071A40F201120287012280F83F
:101A78003A20F0EE410AB0EE410AFFF7C1BE7047C6
:101A88000000000058B19FED061A0022028780F876
:101A98003A20F0EE410AB0EE410AFFF7B1BE7047B6
:101AA8000000000010B504462DED028BB0EE408A10
:101AB80048B309F026FEA3689FED157AD4ED006AB5
:101AC800A060C31A07EE903AF8EE677A67EE877A55
:101AD800B6EE007AF4EE477A9FED0E7AF1EE10FA40
:101AE800C8BFF0EE477A76EEA77A86EEA77AF7EEC9
:101AF800007A77EEC77AD4ED016A27EE888A07EE76
:101B0800268A84ED018AB0EE480ABDEC028B10BD2E
:101B1800BD3786356F12833A38B50D462DED048BE7
:101B28000446B0EE409AF0EE608AB0EE418A002892
:101B380052D04FF4AE7200210CF094FB284929488A
:101B4800294BA36561664FF07E53C4F84011A06726
:101B58000121C4F89C004FF07C50244A2560E365BD
:101B6800234D244B84F86F10C4F8D400224923482D
:101B78002366C4F88430C4F8A830C4F8E4309FED74
:101B8800200AC4F8D80084ED019A04F1BC00C4ED21
:101B9800028A84ED038AA2666567C4F88010C4F8D7
:101BA8009850C4F8A410C4F8E010C4F8F820C4F899
:101BB800082109F0C2FD04F1C80009F0BEFD04F5D2
:101BC8008E7009F0BAFD9FED0F0A04F5947009F0C4
:101BD800B4FD6423C4F84831BDEC048B38BD00BFA4
:101BE80000E440C6000096430000C0400000A04149
:101BF800000040400000404100007A4400002041BD
:101C08000AD7A33B0000000010B5044688B1D0F8FD
:101C1800580170B1FFF720FD94F9443194ED4F7AE3
:101C280007EE903A30EE470AF8EEE77A27EE800A98
:101C380010BD9FED010AFBE70000000010B5044647
:101C480090B1D0F8580178B1FFF70CFD94F9443100
:101C580007EE903AF8EEE77A04F58E7027EE800AE0
:101C6800BDE81040FFF71EBF9FED010A10BD00BF81
:101C78000000000010B504462DED028BD8B1FFF727
:101C8800C3FFD4ED007A94ED507A9FED0C8AF8EEFC
:101C9800E77AF0EE480A17EE807AB0EE470A08F0C5
:101CA80011FFB5EEC00AF1EE10FA01DA30EE080ABB
:101CB800BDEC028B10BD9FED020AF9E7DB0FC940AE
:101CC8000000000010B5044688B1D0F8540170B186
:101CD8009FED071AF0EE410AB0EE410A09F019FD2E
:101CE800D4F8540109F01DFD002384F86C3010BDB0
:101CF8000000000010B5044608B3D0F85401F0B154
:101D080009F00BFD9FED0E1AD4F85401F0EE410ACC
:101D1800B0EE410A09F0FDFC04F1D40009F005FD1C
:101D280004F1F80009F001FD04F1740009F0FDFC6C
:101D380004F1980009F0F9FC012384F86C3010BD17
:101D48000000000010B5044640B1D0F8543113B17A
:101D580093F83B2022B90F2384F86D30002010BD82
:101D6800012280F86D20D3ED097A90ED187AD0ED34
:101D7800016A836EC0F80831B4EEE77AF1EE10FA22
:101D8800C8BFC0ED187AD0ED187A90ED167AB4EE87
:101D9800E77A9FED107AF1EE10FAF4EE476AC8BFC1
:101DA800C0ED167AF1EE10FA18BFD0ED197AC0ED31
:101DB800397A4FF4FA7009F09FFC2046FFF79AFF32
:101DC8004FF4FA7009F098FC022384F86D30012072
:101DD800C5E700BF00E440C638B504462DED048BC6
:101DE800B0EE409AF0EE608AF0EE419A00284DD0AD
:101DF800D0F85451002D49D0B0EE410A08F01CFE2D
:101E0800B0EE408AB0EE690A09F02CF820EE097AA3
:101E180018EE287A94F96F3028EE098A00EE288A9D
:101E2800DFED1C7A84ED117AFEEE006A68EE277AFF
:101E380047EE267A84ED128A37EE876A84ED137AA4
:101E4800F1EE466AC4ED147AC4ED156A8BB1D4ED8F
:101E5800186AF6EE005A66EEA56A36EE877A76EECE
:101E6800A77A76EEC66A84ED137AC4ED147AC4EDC7
:101E7800156ABDEC048B94ED151AD4ED140A94ED93
:101E8800130A2846BDE8384009F043BCBDEC048B72
:101E980038BD00BFD7B35D3F70B504462DED088B44
:101EA80088B1032380F86D30D0F85801FFF7C8FBDC
:101EB800D4F8580109F016FC48B10E2384F86D30A7
:101EC8002046FFF7FFFE0020BDEC088B70BD94F99B
:101ED800445194ED168A002D40F0AD80DFED848AE0
:101EE8009FED849ADFED840A07EE905AB8EEE70A70
:101EF800B0EE491A20EE080A204680EE280AFFF7BD
:101F08006BFF0135052009F0F7FB642DEAD14FF48A
:101F1800967009F0F1FBDFED79AA9FED79AA00260A
:101F280007EE906AF8EEE77ADFED729ADFED720A53
:101F380067EEAA7AB0EE480A87EE8A1A204601367A
:101F480031EE291AFFF748FFD4F85801FFF778FB5C
:101F5800012009F0D1FB40F2E9339E42E0D1D4F8E8
:101F680058019FED65BAFFF76BFBD4F85801FFF7EE
:101F780073FB4FF47A76B0EE409A07EE906AF8EE6B
:101F8800E77AF0EE4B0A67EEAA7AB0EE480A87EED7
:101F98008A1A204631EE291AFFF71EFFD4F8580195
:101FA800FFF74EFB012009F0A7FB013EE5D29FEDAC
:101FB80051AADFED519A07EE905AB8EEE70AB0EE53
:101FC8004A1A20EE080AF0EE690A80EE280A20462E
:101FD800FFF702FF022009F08FFB013DEBD2D4F896
:101FE8005801FFF72DFBD4F85801FFF735FB9FED9B
:101FF800421AF0EE408AF0EE410AB0EE410A20465D
:10200800FFF7EAFEC82009F077FB9FED3E7A79EEEC
:10201800687AF0EEE77AF4EEC77AF1EE10FA3FF557
:102028004CAFB4EEE89AF1EE10FA56BF012384F8EB
:10203800445184F8443194ED507ADFED337AB4EEAC
:10204800677AF1EE10FA4ED1DFED298A002507EE06
:10205800905AB8EEE70A9FED271ADFED270A20EE1F
:10206800080A204680EE280AFFF7B6FE013503204D
:1020780009F042FB642DEAD14FF4FA7009F03CFBF9
:10208800D4F85801DFED1B9A9FED1B9AFFF7D8FA99
:102098000023C4F840312046FFF7ECFD142084EDFE
:1020A800500A09F029FB07EE905AB8EEE70AB0EE9D
:1020B800691A20EE080AF0EE490A80EE280A20463E
:1020C800FFF78AFE022009F017FB013DEBD29FEDD6
:1020D8000A1A2046F0EE410AB0EE410AFFF77CFEEC
:1020E800C82009F009FB042384F86D300120EBE6D1
:1020F8000000C842E4CB964000000000DB0FC94056
:1021080000007A44A9CF7E3D00E440C610B50446DD
:102118002DED028B002842D09FED248AB4EE480AA8
:10212800F1EE10FA18BF80ED040AFFF76DFD2046A6
:1021380084ED060AFFF782FD94F96C3084ED080AF5
:102148006BB3D4ED027AF4EE487AF1EE10FA0BD0C4
:102158009FED177A67EE877A9FED167AC0EE276AA9
:10216800C6EE877AC4ED107A94F87030D4ED047A0C
:10217800C3B9D4ED186AB1EE667AB4EEE77AF1EE37
:1021880010FA08DCF4EEE76AF1EE10FA54BFB0EE8C
:10219800677AB0EE667A002384ED0D7A2363BDEC8E
:1021A800028B10BDC4ED097AF9E700BF00E440C610
:1021B800D7B3DD3F5077D63D2DE9F04F91B0840776
:1021C800009302F004030293C2F3C20303F1010374
:1021D800DDF86880039205460E46059340F0BA8103
:1021E800041D30B1072909D86FF01B0011B0BDE8F4
:1021F800F08F01F007063444C6F10806009B4FF043
:102208000009591E4FF0040A4FF0FF330193CDF82F
:1022180010904F46CB4653460DB100982060059864
:10222800002800F3E8809848009A824203D3974830
:102238008242C0F0E080039AA4EB050E92074FEAB1
:102248009E0000F103810F2F00F2B180002D00F0F5
:10225800058107F140020DEB020C019A0CF8200CE5
:102268000CF8102C049801300490E7E07A285DD827
:102278004B280ED8472859D829282DD8252852D098
:1022880054D820287AD02338D0F1000B4BEB000B20
:1022980074E04C382E2849D8DFE800F070484848E8
:1022A80048484848484848484B48484848484848A3
:1022B8004859484B4B595959704B6D487048184B01
:1022C800184848827F4B48484B487F0000204FF011
:1022D800000B4FF0040A38E02A38C0B2012202FA93
:1022E80000F010EA0E0F49D110F0625C2FD110EA0D
:1022F800020B43D06046013C5444B4FBFAF40AFB99
:1023080004F4002D61D0A3EB050CA444B4453FF6BA
:102318006BAF002868D1042B47D158F8043B2360E1
:10232800043404232AE0019A013A01924FF0000B89
:1023380024E011F8010C6C2834D111F8023C00207B
:102348006C2B8346C5D14FF0080A5346D3E708F1F2
:10235800070828F007080734F8E802AB24F0070458
:1023680035B106982044B0423FF63EAFC4E900AB11
:1023780008344FF0000B4FF0080A534611F8010FCC
:10238800002878D0BBF1000F7FF470AF2528F5D175
:10239800019B013301934FF0010B4FF0040AECE766
:1023A800584694E700208346A5E7082B02D06FF033
:1023B80015001BE708F1070828F00708B8EC027BAE
:1023C80084ED007B08340823D8E768B9042B02D1D0
:1023D80008F10408A4E7082BE9D108F1070828F058
:1023E800070808F10808EDE705980138059058F83E
:1023F800040B009010E7039A900720D5A4EB050E74
:102408004FEA9E004FF0010CBEF5007FCFD20F2F90
:10241800CDD8F5B107F140020DEB020EC0B2019A1A
:102428000EF8200C0EF8102CBCF1000F3FF41AAF78
:1024380060F07F000EF8200C09F101090137C5F1A1
:102448000802043406924FF6DA7E97E74FF0000C44
:10245800DAE7BCF1000F01D00136EFE7029A023645
:10246800002AEBD10098CDE90631FEF7C9FADDE97B
:1024780006310644E2E7631BB3F5806F97D23DB996
:10248800A6F10804E018B1E614E40008A00C01085D
:10249800029A28609B082B709DF81030C2B1EB702F
:1024A80085F80290B9F1000F05D008A80022C5F1FF
:1024B800010C97420ED1C5F101030DF120084FF030
:1024C800000A01930DF1300B574512D1601B8DE6C0
:1024D8006B70E5E710F8013B190608D50CEB040E04
:1024E800B64503F07F033FF67FAE04F8013B0132A7
:1024F800DFE7B9F1000F03D098F90020002A17DBB5
:10250800029BD3B11AF80B2004F8012B0022019B7F
:1025180018191044B0423FF667AE98F8000004F866
:10252800010B0099039220460BF08EFE039A144487
:102538000AF1010A08F10108C6E798F8002055F8E1
:1025480022300093029B45F822300098FEF758FA93
:10255800421CDCE76FF00D0048E600BF2DE9F04FA4
:1025680097B000AF90F802A0D7F880B03B62CBF3E9
:10257800C0030446FA62BB61894641B945780078D0
:102588000AEB800020444D4517D8A0EB0409E378F6
:10259800FB61BAF1000F02D01BF0010F16D1FB69E5
:1025A80053BBFB6A1BB13A6A4946204698474D46D9
:1025B80028465C37BD46BDE8F08F461C3046FEF71E
:1025C8001FFA0130304409F10109DCE72378626819
:1025D8007A62FA6A9900796104EB8301002A40F073
:1025E80000814D460E4601EB0A094FF000084E45A2
:1025F8004CD101EB0A0610E01BF0020FD1D0237872
:102608009A007A6162687A62FA6A04EB8301002AA6
:1026180077D14D4601EB0A0690461BF0050F0CBF1B
:1026280002230123FB62FB6906EB430A0BF002035A
:10263800BB625645BCD016F8021B16F8013C54F88C
:102648002390994B994502D3984B994536D3BB694A
:10265800002B40D0786A09F030F900283BD0E946D1
:102668008AB06A46924B53617B6AC2E906314FF4DD
:10267800007313848F4B42F8103F8F4800234FF4A8
:10268800125100F02FFC023DCD46D2E716F8013B6F
:10269800F96254F82300FEF7B3F9D7F88430F96AE1
:1026A80001304BB1D7F8883098453EBFD7F8843011
:1026B80023F8180008F10108054498E7BB6923B11D
:1026C800786A09F0FAF80028C9D11BF0010F05D182
:1026D800FB6AED1AADE7BB6A002BAAD04846FEF7A5
:1026E8008FF9D7F8843053B1D7F8883098453FBF71
:1026F800D7F88420431C22F8183008F10108054453
:1027080097E7BAF1000F72D01BF0040672D0D046DA
:10271800002607F1480052463B61B9620BF094FD70
:10272800B96A3B6901EB0A02BA62FA69F9695200AF
:10273800FA60BA6A02EB41023A610BF00202BA602F
:102748003A69B96A8A4257D162787A621BF0020FF5
:1027580032440CBF4FEA580100211BF0010FD2B2DE
:1027680040F09F801BF0040F14BF40460020BB615F
:102778006270A070E1703A6A7969FB6A20469847EE
:10278800051EFFF615AFBB6923707B6A6370FB6992
:10279800E37041463A6AFB6A84F802A007F14800F0
:1027A8009847B0F10008C0F2BB807B693A6AA9EB90
:1027B8000A01C91AFB68C91AD7E90A039847002809
:1027C800C0F2B080A84408EB00054FF0000B07F1F9
:1027D800380AB34572D300213A6AFB6A084698471B
:1027E800E6E656464FF0000807F1380093E75646EC
:1027F800D04697E7B04695E7BA6A12F8021BBA6264
:1028080012F8015C284A54F82500904202D3274A5E
:1028180090421ED3BA6932B1786A7B6009F04DF8EC
:102828007B6800288CD1BA6802BB08F1280207F13E
:10283800300C08F10100944407F1580252FA80F074
:1028480008F102080CF8101C5FFA88F800F8105C10
:1028580076E7BA693AB1786A7B6009F02EF87B6846
:1028680000287FF46DAF1BF0010F09D006F1280294
:1028780007F13000711C161806F8205CCEB25FE72D
:102888001BF0040F3FF45CAF08F1280207F1300099
:1028980008F1010102EB000808F8105C5FFA81F802
:1028A8004EE7002063E700BF14E40008A00C01080D
:1028B80027FA00080400000178EA00081BF80A302B
:1028C80087F8373054F82390D7F884302BB3D7F8EB
:1028D80088309B4521D2D7F8843033F81B803A6A78
:1028E800FB6A012107F13700984700281ADB0544E5
:1028F800B8F1000F06D14846FEF782F800F101084A
:102908001FFA88F83A6AFB6A414648469847002801
:1029180008DB05440BF1010B5BE74FF00008DEE72D
:10292800454645E6054643E6014B1860704700BF3B
:10293800B400002080B505460E461746984606F0B6
:10294800CFFB034602F0CCFCDFF81890044649F8A8
:102958000030424630463946A84754F8090002F08C
:1029680007FB00BF08000000034A536823F0020376
:1029780053600020704700BF002004E0084B1A682D
:1029880042F480721A601A6842F400721A601A6877
:1029980042F480621A60034B034A1A60704700BF12
:1029A800003C0240A40100200024F4002DE9F04777
:1029B800DFF85880044607464FF0010914B9384635
:1029C800BDE8F08794FAA4F5B5FA85F509FA05F398
:1029D8002E0108EB05156FEA030A24EA03042B7B92
:1029E800002BEBD058F806301B694BB9464404223B
:1029F80073682846196807EA0A0709F0D9FADDE773
:102A0800284698470028D9D1F0E700BF00EB000816
:102A180030B51049104889B000220BF0C2FA0F4DAA
:102A28000F4900220023CDE9062300240E23CDE917
:102A38000334CDE901440B4B00944FF4407228460F
:102A480006F09EF8084928460BF07EF9204609B0A2
:102A580030BD00BF752A0008000900203804002096
:102A680080220020912D0008FAFA0008014805F09C
:102A780075BE00BF480200202DE9F0478046204877
:102A88000F4609F06DFA0646002832D00025284680
:102A9800BDE8F087237B83B12368DB680BB1204650
:102AA8009847636883F8069023681B69CBB9636805
:102AB80004221968204609F07BFA0136103454457F
:102AC800E8D3B8F1000FE2D0002DDFD02846FFF799
:102AD8006DFF0546002FF7D0002164200BF0CAF9DE
:102AE800F2E7204698470028E1D009FA06F31D438B
:102AF800E3E7044CDFF810A005464FF00109DEE7D4
:102B0800440F002000EB000810EB0008014B53F8BD
:102B180020007047E4ED000808B5034608462BB1CD
:102B2800044A136000F076FC002008BD6FF0150021
:102B3800FBE700BFB800002010B5044C237813B998
:102B4800034805F00BFE0123237010BDD81900209F
:102B58004802002010B504460B4809F001FA5CB1A0
:102B6800BFF35B8F094B53E8001F013943E800129C
:102B7800002AF8D1BFF35B8F05480BF01EFA054811
:102B8800BDE8104005F0EABD3C0F0020400F0020D2
:102B980000090020480200200020064BBFF35B8F8D
:102BA800014653E8000F43E80012002AF9D1BFF3A9
:102BB8005B8F70473C0F002070B5FFF7EDFF084CA6
:102BC800084E0546B44200D370BD63685B792BB1EB
:102BD80023685B6813B12946204698471034F1E70B
:102BE80000EB000810EB000810B5044C044920461F
:102BF80008F099FF034B1C6010BD00BFE8010020DE
:102C0800D0ED0008340F00200D4A0E48002310B5FF
:102C180013700D4A13600D4A4FF47A711360FFF771
:102C28007BFFFFF7E1FF0A4B0A4918468B4200D3A6
:102C380010BD1A1A5C681211013222711033F5E7BF
:102C4800D919002083BF00083C0F0020400F002046
:102C580000EB000810EB00080146002201480023A1
:102C680008F082BFE8010020014809F01BB800BF46
:102C7800E8010020024B0146186809F06EB800BF51
:102C8800340F0020014809F0A3B800BFE801002074
:102C980070B5264B1878002846D0FFF7E5FF0546A3
:102CA80000283ED1224B234C1B68002B12DD0BF071
:102CB80076F90A220023FDF789FED4E90032C01A0A
:102CC80040F2E93361EB0201984271F1000101D34E
:102CD800FFF772FFD4E9003213F57A7342F100026C
:102CE800C4E90032BDE87040FFF7CCBF63685B7988
:102CF80023B1236829461B68204698471034B442FC
:102D0800F4D32846FFF7B6FFBFF35B8F0A4B53E8AF
:102D1800001F013943E80012002AF8D1BFF35B8F86
:102D2800C0E7064C064EEAE770BD00BFD819002080
:102D38003C0F0020F8080020400F002000EB00089E
:102D480010EB000870B50D4D297861B90120FFF727
:102D580093FE0B4C0B4EB44206D3FFF799FF0028A5
:102D6800FBD101232B7070BD63685B791BB12368AD
:102D780020469B6898471034EDE700BFD91900201A
:102D880000EB000810EB000800212DE9F047084689
:102D9800FFF772FE044658B34FF4FA784FF0000973
:102DA80002F09EFA1B4B1C4A1B58136033B11B4B95
:102DB8001B68092B02DD1A4805F0D0FC194FDFF813
:102DC80060A0002544B12046FFF7F0FD044618B97D
:102DD8004FF0FF384FF0FF39FFF75AFF064628B982
:102DE800B5B942464B46504605F0ECFC3546E9E796
:102DF8004FF0FF384FF0FF39D2E72B689B691BB1C2
:102E080000221146284698471035BD42F5D3E8E719
:102E1800054DFAE708000000380F0020400F002099
:102E28004802002010EB000800EB000813B5184812
:102E380009F096F8174B1B7873B1EFF31184102340
:102E480083F31288BFF36F8FFFF722FF84F3118893
:102E5800BFF36F8F02B010BD0F4B1B68002BF9D06A
:102E680050B900220023CDE900230C4842F2107229
:102E7800002306F021FCEDE70928EBD107480BF009
:102E88009CF8074802B0BDE8104005F067BC00BFD9
:102E9800400F0020D9190020380F00200009002019
:102EA8004802002010B5064B1B6804469847214687
:102EB800A060044808F0D7FEBDE81040FFF7B6BF91
:102EC800B8000020E8010020044A054B9B1AB1EB2A
:102ED800D30F34BF52F831000020704770EA000861
:102EE80000EB00082DE9F04F8FB004AFC1F34A287A
:102EF800B8600D4691467B600C0DB8F1000F63D0A9
:102F0800002607F114034FF0040B4FF00A0AC7F824
:102F18000C80C7E907667E620193CDF808B0CDF84A
:102F280000A007F11C03F96832464846FFF716FB74
:102F3800B0F5006F03461CD36C468AB0D9F804106C
:102F480004AB2648C3E9050140F2FF71D9611A466E
:102F58004FF400711984224B42F8103F2148334640
:102F68004FF41251FFF7BEFFA5462C37BD46BDE80A
:102F7800F08FC0F30A0804F11700184420F0070086
:102F880080083B60FFF768FE68F35325044690B15C
:102F98003B68154AC7E9083600F1100107F1140328
:102FA800F961CDE900A3CDF808B0F96807F11C0371
:102FB8004846FFF7D3FA68F353257B68B9682A4671
:102FC800204609F015F8D0E704F1170020F00700B3
:102FD8008008FFF741FE0446EDE700BF0FFB00083D
:102FE8000400000188EA0008CBBF00082DE9F04F73
:102FF80087B0DDE91279DDE9105A0446039193465A
:103008009846BFB1CDF800903B46524610210020AB
:10301800CDF81490FFF7D0F8B0F5006F06460AD344
:10302800184A194840F2FF73022107B0BDE8F04F73
:1030380009F037B83E4605F11700304420F0070084
:1030480004F007048008FFF707FE0BF0070BE40005
:1030580044EA8B1444EA462444EA0554054640B140
:103068003FB1CDF800903B46524631461030FFF74D
:10307800A3F8039943462246284607B0BDE8F04F17
:1030880008F0B6BF4EFB000888EA0008406820B187
:10309800034BC01A40F3CF0070474FF0FF30704722
:1030A80070EA00080EB403B503AB014653F8042BCD
:1030B8000448019302F0A2FA02B05DF804EB03B0F1
:1030C800704700BF0DC10008CA0605D48B064CBF67
:1030D80002490349FFF7E6BF704700BF81F80008BF
:1030E80086FB00082DE9F04F8BB09B46169B069394
:1030F8009DF854A0179B0593189B199E04930446AA
:103108000D469046BAF1000F00F09E8006F00103CC
:10311800089306F00803079306F48073099308F0F0
:1031280045FF06F00209024600283BD08F49204699
:10313800FFF7B8FF0746B9F1000F08D016F0440FA3
:1031480032D18B492A462046FFF7ACFF0744089B3B
:1031580053B1884B884953F82A20884B2046002AC7
:1031680008BF1A46FFF79EFF099B002B48D0079B14
:10317800002B62D1B8F1000F64D081494246204645
:10318800FFF790FF0546069B3D44002B6BD1049B3F
:10319800002B71D1F30700F1E28031462046FFF79A
:1031A80093FFD6E00746C6E7764B18680028CDD0CF
:1031B800754B4FF47A791B68B5FBF3F54FF46163EF
:1031C800B5FBF0F100FB115509FB05F54FF03C0C80
:1031D800B1FBF3F203FB1211B5FBF0FEB1FBFCF3FC
:1031E80000FB1E550CFB131109FB05F50091B5FBFF
:1031F800F0F56649CDE901E52046FFF753FFA5E75D
:10320800079BEBB1624B634953F82A202046FFF72E
:1032180049FF0546B8F1000F05D0594942462046F6
:10322800FFF740FF0544BBF1000FACD05A495A469E
:103238002046FFF737FF0544A5E74FF0000BE1E70D
:10324800079DE7E745469EE7BBF1010F069B06D1C0
:10325800002B64D1049B002B7BD000250CE0002BB5
:10326800F8D04E485CE04E48069B4E49224608F08E
:10327800F3FA049B002B68D0DFF83881DFF8389127
:10328800049F3146102F204628BF1027FFF71CFF48
:103298004FF0000B5D4545DC059B49461A782046F2
:1032A800FFF700FF4FF0010B1BF0070F03D141465A
:1032B8002046FFF7F7FE5F453BD9059B494613F8C3
:1032C8000B202046FFF7EEFE0BF1010BBBF1100FB0
:1032D800EAD1354920464FF0000BFFF7E3FE5A4686
:1032E800059B9A5CA2F120015F2928BF2E222F4955
:1032F8002046FFF7D7FE0BF1010BBBF1100F1DD0D5
:103308001BF0070F03D141462046FFF7CBFE5F4570
:103318005A46E5D841462046FFF7C4FEEBE7204869
:103328005546A1E741462046FFF7BCFE0BF1010BCD
:10333800B0E71F492046FFF7B5FEC5E7059B3B44AC
:103348000593049BDB1B04939AD1BAF1000F7FF419
:1033580021AF20460BB0BDE8F04F08F0C6BE074AC3
:1033680005492046FFF79EFE17E700BF8EFB0008C1
:1033780092FB0008F4ED00087909010889FB0008B0
:10338800B7FB00084C0F0020480F00209BFB0008EB
:1033980008EE0008BBFB0008C1FB000843C1000899
:1033A8000DC1000805560008D0FB0008D2FB000834
:1033B800CCFB0008CEFB0008C6FB000873B542F240
:1033C8000F738B4228BF0B4605680F4A0446052138
:1033D800684606F0C5F963680C495B6806460B2227
:1033E800284608F074FE63683246694628465B68DA
:1033F80008F06DFE636806495B681B22284608F0E2
:1034080066FE02B070BD00BF18070108F1FB000896
:10341800D5FB0008074A00210123904206D8064A36
:1034280001B901231360054B1860704740085B0021
:103438000121F2E740420F00480F00204C0F002006
:10344800F8B5074F0D4604464618B44201D1284640
:10345800F8BD14F8011BBB6801485B689847F4E79E
:1034680010E60008014B03600020704750EE00088A
:10347800F0B40D4B0D4E5F6A0D4BB34203D36FF0A2
:103488008500F0BC70475C68BC420AD31D6945B131
:1034980094F802C08488E4B2A44502D12B46F0BC5B
:1034A80018472433E9E700BF740F002034030020D5
:1034B800100300202DE9F047144CDFF85480DFF8A2
:1034C800549005460E461746444503D36FF08500D1
:1034D800BDE8F0876268D9F824309A4213D3A3690B
:1034E8008BB1A9889078C9B2884205D13A4631464D
:1034F8002846BDE8F04718475279012A03D13A46D1
:103508003146284698472434DEE700BF10030020E0
:1035180034030020740F00202DE9F0410B4CDFF834
:10352800308005460E461746444502D36FF08500A5
:1035380009E063690BB92434F6E73A463146284670
:1035480098470028F7D1BDE8F08100BF100300209C
:1035580034030020024B00221A605A60704700BFF3
:103568002F10002070B50B4B0B4CA34201D3002049
:1035780070BD196A1E7F00220439D5B2AE4201D847
:103588002433F2E7013211F832508542F5D1012097
:10359800EEE700BF100300203403002073B58488D1
:1035A800E4B263060D468DF8074007D02046FFF7C2
:1035B800D9FFB0B1144B93F8BA0090B1124E23461C
:1035C8008DB1124A1248032108F033FE9DF8070016
:1035D80002F0F2FAF3691BB10DF1070108209847D0
:1035E800012002B070BD0B4A0948032108F021FEF2
:1035F8009DF8070002F002FBF369002BF0D00DF1F3
:1036080007010920EBE700BF740F002037FC000812
:10361800F0EA00084AFC000808B5044A03460121FC
:10362800034808F006FE002008BD00BF5FFC000844
:10363800F0EA000838B5054602F036FB10F1780FBD
:10364800044611D10D4A0E482B46022108F0F1FD1F
:10365800284608F0F0FD0B4AD2F8C43023EA0003EC
:10366800C2F8C430002407E00028F1D0064A044814
:103678002B46012108F0DDFD204638BD7AFC000804
:10368800F0EA0008740F00209BFC000808B5094800
:103698000378C3F341130A3350F823303BB100F1E8
:1036A800080200F110019847C043C00F08BD184632
:1036B800FCE700BF740F002004282DE9F74FDFF85E
:1036C800A49004460F4615D001282FD1DFF890802A
:1036D80098F8B93053B300F0B3FE204D4D4522D2CF
:1036E8002A6A4FF0000A2B7F5FFA8AF6B34204D8A1
:1036F8002435F3E7FFF72EFFE8E702EBC606019251
:10370800307902F0D1FA8346307908F094FDD8F880
:10371800C430019A23EA0003BBF1000FC8F8C43093
:103728000AF1010ADFDA002388F8B9300B4D4D455C
:1037380008D30B4B1B6A6BB13946204603B0BDE872
:10374800F04F1847EB681BB13A4621462846984780
:103758002435ECE703B0BDE8F08F00BF100300206C
:10376800740F00203403002073B5044680788DF868
:10377800000023796279294D43EA0223ADF802302B
:10378800E37803F003038DF8043008F054FDD5F80E
:10379800C430184206460CD0A478204600F032FE09
:1037A8002046FFF747FF0AF0C9FA10B996200AF039
:1037B80080FB684608F084FF10F1780F9DF8003010
:1037C8001BD1174A1748022108F033FD9DF8000065
:1037D80002F03AFA10F1780F19D19DF80030124A28
:1037E8001048022108F025FDD5F8C43001203343E4
:1037F80085F8B900C5F8C43007E00028E6D00B4AC0
:103808000848012108F015FD002002B070BD00280D
:10381800EAD09DF80030064AF2E700BF740F002096
:10382800BDFC0008F0EA000804FD0008E0FC000800
:1038380024FD00082DE9F047A84EB36904460F4659
:103848001546FBB9237803F01F03012B00F09E8077
:10385800022B00F0068133BB94F900002A686178D6
:10386800002834DA062912D008292BD0D9B9012327
:103878001370517096F8C3305B0043F00103137066
:10388800022328E198470028DCD100200DE0628857
:10389800100A011F0129844605D9072803D8716A2F
:1038A800D2B20C781CB96FF01500BDE8F0874E78DD
:1038B800664503D19A4200F0098101332144F0E7BB
:1038C8000B7808E196F8BA301370012303E1013947
:1038D8000829E8D801A353F821F000BF7F39000870
:1038E800AF3800088D390008AF38000809390008DA
:1038F800AF380008AF380008AF380008173900089B
:103908006088C0B202F0E4F80028BED0CBE7638834
:10391800756A63BBFFF71EFE638886F8BA30F369E1
:10392800002BB2D06E4903209847AEE76B78042B82
:1039380010D0052B11D0022B04D16F796388BB42BC
:1039480008BF01202B781D442B78002BEED10028CE
:10395800A9D0DFE795F80380F4E76388BB42F1D18B
:10396800B8F1000FEED12846FFF7FEFEEAE7FF2781
:103978000020B846E8E76388012B94D1002386F835
:10398800C33082E76388012B8DD1F8E796F8BA3007
:10399800D5F800C0002B86D0A388756A5FFA83FE2D
:1039A8002A46107800283FF47EAF5178022904D1C6
:1039B80092F80480F04500F295800244F1E78CF813
:1039C80000208CF8012039605FE7154496E00B2A47
:1039D8007FF469AF00274FF0FF08C146BA4606E0FA
:1039E8006B78042B0FD0052B21D02B781D442B7816
:1039F800002BF5D1F36913B1514607209847002FE2
:103A08007FF443AF4FE795F80280A38895F80390B9
:103A18009845EAD163889945E7D1B8F1070F1DD8D1
:103A280006EB0803AA4683F8BB900127DDE7A388C5
:103A38004345DAD16388DBB24B450AD0AF783846C4
:103A480000F0E0FC3846FFF7F5FDB0FA80F77F0993
:103A5800CBE72846FFF788FE0746C6E7AA460027B1
:103A6800C3E794F900206378002A19DA002B7FF461
:103A78001AAFA3882D68DCB25B060AD02046FFF790
:103A880071FD00283FF40FAF96F8BA30002B3FF4D1
:103A98000AAF2946204608F028FE00236B70EFE69F
:103AA800012B08D0032B7FF4FEAE6388002B7FF434
:103AB800FAAE012103E0618800297FF4F4AE2046C4
:103AC800FFF76CFD00287FF4E0AEECE602282960E1
:103AD8007FF4F6AE4B883B60D7E600BF740F00203A
:103AE8002E10002094F9000062780028BFF66FAF0E
:103AF800002A3FF464AF0A2A7FF4D5AE2A78002A58
:103B08003FF4D1AE697804297FF45FAFA9788B427E
:103B18007FF45BAF072B96BF9B19002393F8BB304C
:103B28008CF80030D1E600BF2DE9F84FDFF83CB043
:103B3800DFF83CA005460F469046994604264B46BA
:103B480042463946284602F0DDF810F10B0F0446CC
:103B580009D12B465A460221504608F06AFB05F067
:103B68001BFA013EEBD12046BDE8F88F45FD000861
:103B7800F0EA000813B5164C237DF3B9E268A16892
:103B8800019201AB8020FFF7CFFF019AA36813448D
:103B9800A360E3689B1AE3606BB962B12369E288AA
:103BA8009A4208DD94F8C82093FBF2F102FB113326
:103BB8000BB90123237502B010BD00231A4619461C
:103BC8008020237502B0BDE8104002F09BB800BF0A
:103BD800740F00207FB500230D4601930646002888
:103BE80062D100293AD108220B460DEB020108F0F8
:103BF80089FD002804DA802001F0DEFF04B070BDE2
:103C08002E4C029A2260039A626004F13802A26084
:103C18009DF90820BDF80E302575002AC4E9035522
:103C28000FDB802B09D9264A2648012108F030FAF3
:103C3800802001F0C1FF2846DEE713B1C4E9033351
:103C4800DCE7FFF723FD0028D5D0E28823699A42F4
:103C5800D4BFE260E360FFF78DFFCFE7174CD4E9EC
:103C68000212002A01AB05DC024608F04BFD0028D1
:103C7800C4DAC0E708F046FD002804DA802001F025
:103C88009BFF3046B8E7019AA3681344A360E36832
:103C98009B1AE360002BB1D104F13803A360FFF74E
:103CA800F5FC0028D7D1A6E78028A7D1034BDA680E
:103CB800002AD0D11B7D002BCDD19FE7740F0020A7
:103CC8006CFD0008F0EA0008054B064A9A62064AAD
:103CD800DA62064A1A63064A58629A6100207047F7
:103CE800740F00203D380008793400082135000899
:103CF800BD3400082DE9F34104464C4D4C484FF0C3
:103D0800FF334FF0FF3204F061FC95F8B8306BB127
:103D1800484A4948022108F0BBF96FF07704444843
:103D280004F0CCFC204602B0BDE8F0816B6A6BB9A8
:103D380000F0D4F8FFF7C8FF6B6A3BB93F4A3E482A
:103D4800012108F0A5F94FF0FF34E8E73C482C6260
:103D5800E8616E6A01F0B6FE01F0E8FD041EDEDBE4
:103D680000F090FB041EDADB7378012B01D1F379A4
:103D78003BB9344A3048012108F08AF96FF015043C
:103D8800CDE70026684685F8C830ADF802308DF8D2
:103D980004608DF8006008F093FC041EBFDB8027E8
:103DA80068468DF8007008F08BFC041EB7DB2649C6
:103DB800304608F07AFC041EB1DB2349384608F087
:103DC80074FC041EABDB214CDFF8848044451AD315
:103DD800002001F039FF041EA1DBD5F8C430802093
:103DE80043F00103C5F8C43001F02EFF041E96DB32
:103DF800D5F8C43043F48033C5F8C430012385F8BE
:103E0800B83000248BE7276A0026227FF3B29A4253
:103E180001D82434DAE707EBC30257F833101079D6
:103E280008F043FC01360028EFD08CE7740F00201F
:103E38002402002085FD0008F0EA0008A8FD00081B
:103E4800C1360008CDFD0008DD3B00081003002046
:103E58003403002030B51F4B8BB005AA03F11005C1
:103E680018685968144603C40833AB422246F7D190
:103E78001B7823701022002101A80AF0F3F91222FE
:103E8800002115480AF0EEF9102101A802F07AFA8B
:103E980000281BDD0828B8BF0820093801AB0E49E7
:103EA8001A18002012F8013F0AAC04EB131403F0AF
:103EB8000F0328336B44013014F8144C13F8143CE6
:103EC8000C7008284B7001F10201EBD102480BB0CD
:103ED80030BD00BF07FE0008DC1900202DE9F04FB7
:103EE8008A4B87B093F800A000AFBAF1000F04D056
:103EF80087481C37BD46BDE8F08F854C00264FF03B
:103F08000119FE603546B04623783BB9814B02342F
:103F18009C42F3D17D4A01231370E9E76378052BAE
:103F28001DD8DFE813F0AF000600F000AF001F0057
:103F38005000402387F810A07B8287F814A007F16F
:103F4800100001F021FE40B108237B8207F1100028
:103F580001F01AFE08B1A7F812A07B8AE371237852
:103F68001C44D1E7E378002BF9D1A37813B3FB689D
:103F78000133DBB2FB60F2E76B689C421CD024354E
:103F8800654B9D42F8D36D4688B06A46634BC2E9DB
:103F98000534032342F8103F614800234FF4C2510F
:103FA800FEF7A0FFAD465E485E4A012108F070F8B2
:103FB80000209EE75C4DE3E7AB68002BD7D0F9689B
:103FC80020469847D3E7002D5AD1584A5448012132
:103FD80008F05EF8E7E72B6AA07803EBC2010B79DB
:103FE800984247D14FF0010BE07800F00300387594
:103FF800207994F805C040EA0C20788294F90200F0
:1040080000285FFA8BF328DA0BF110004FF0010C4F
:104018000CFA00F010EA090F27D143F08000387439
:1040280007F11000C7E90031BA6001F0ADFDD7E92A
:1040380001123B68C8B93A7CA27012F0800F18BF11
:1040480010330A7118BFDBB24FF0010214BF9A4057
:1040580002FA0BF249EA020981E7012000FA0BF0A3
:1040680010EA090F01D11846D9E70BF1010BBBF192
:10407800100FB9D101322B7F9A42ACD32C4AA5E755
:104088000022F8E7032E24D1FFF7E4FE8346A0B10F
:10409800FCF7B6FC034680B1102806D0B860254A64
:1040A8001F48022107F0F4FFBB68102BA8BF10239C
:1040B8001A465946A01C0AF0C7F823786FF0020187
:1040C800E218091B04EB5303D14209D50136F6B2B5
:1040D80045E7002EF1D1B8F1000F08D1164A75E76F
:1040E80002F801AC13F8010902F8020DECE7A4EBA1
:1040F800080388F80230C3F3072388F80330FB6805
:1041080088F80430E2E7A04629E700BFDB19002061
:10411800580200200F0300203403002018FE000876
:10412800E8EA0008FEFE00081003002038FE000838
:1041380079FE000896FE0008E1FE000810B5094B5C
:1041480000211A461C78844204D15C6814B102EB41
:10415800811010BD0131042903F14003F2D1002080
:10416800F7E700BF401000202DE9FF4150F8283C38
:1041780010F82C6C103304460AD1036950F8202C2F
:1041880098073DD5D2B9590715D5002344F8283CDE
:1041980054F8283C10330BD054E9077554F8148CA4
:1041A80009F0CCFD002857D03248214609F0AAFD75
:1041B80004B0BDE8F08143F00403236103AB54F875
:1041C800241C3046FFF7B0FC034640B12A4A2B486E
:1041D8000096012107F06FFF6FF01503D6E7039AE9
:1041E80054F8243C134444F8243C54F8203C9B1ACB
:1041F80044F8203C54F81C3C134444F81C3CC7E7E2
:1042080003AB54F8241C304601F0E6FD03460028B1
:10421800DCD1039D54F8243C2B4444F8243C54F846
:10422800203C5B1B44F8203C54F81C3C2B4444F8CD
:104238001C3C002DA9D0304608F072FAB5FBF0F30B
:1042480003FB1055002DA0D154F8203C002B9CD026
:10425800304601F009FE9BE744F8180CA4F1100061
:1042680004F07CFA002DA3D0424639463046A847D0
:104278009EE700BF380900202CFF0008F8EA000874
:104288004B1E012B73B506460D4614D8FFF756FF93
:10429800044690B9012D0ED101AB01220DF10301A5
:1042A800304601F099FD019B002BF5D10C4A0D48D1
:1042B800012107F0EDFE02B070BD09F03FFD04F1E9
:1042C8002C0108B1012D05D1084602B0BDE87040A7
:1042D800FFF74ABF044802B0BDE8704009F012BDBC
:1042E80049FF0008F8EA0008380900202DE9F74FCF
:1042F800054601911646984607F0DBFF002871D164
:10430800EFF311831022009382F31288BFF36F8FAB
:10431800DFF8E890834600220023484604F052FA6A
:10432800A0B9DFF8DCA04FEA8B170AEB8B1BDBF890
:10433800044014F1100F20D12C4A2D482B4601219E
:1043480007F0AFFE484604F009FA0DE00BF1010B47
:10435800BBF1040F09F14009DDD1264A24480121A7
:1043680007F096FE6FF00B04009B83F31188BFF3F0
:104378006F8F204603B0BDE8F08F0C99019BCBF8F6
:1043880014100D99CBF81000CBF8181028466FF0D0
:104398000F01CBE902360AF80750CBF83C80CBF87E
:1043A800041008F0BDF968B1284608F0B9F9B6FB61
:1043B800F0F101FB10662EB1DBF83C1041F004016E
:1043C800CBF83C1018F0020F07D007F12C010A486F
:1043D800514409F097FC0024C6E7284601F044FD43
:1043E8000446C1E76FF00F04C3E700BF7EFF000873
:1043F800F8EA000863FF0008380900205C10002074
:104408004010002010B5EFF31184102383F31288B5
:10441800BFF36F8FFFF792FE50B14368103307D197
:104428006FF08B03436000F12C01044809F06AFC2B
:1044380084F31188BFF36F8F10BD00BF38090020C7
:10444800F8B50E4C04251027EFF3118687F3128870
:10445800BFF36F8F6368103307D16FF08B03084881
:10446800636004F12C0109F04DFC86F31188BFF359
:104478006F8F013D04F14004E6D1F8BD40100020E3
:104488003809002070B50A4C0A4E002531462046EE
:1044980009F01CFC0122A4F110001146013509F0B5
:1044A800D9FB042D04F14004F0D1002070BD00BFF9
:1044B8006C100020714100080169012381F84B301C
:1044C8000B6833B191F849301BB10248083109F043
:1044D80019BC7047380900200169012381F84A3066
:1044E8000B6833B191F848301BB10248083109F024
:1044F80009BC70473809002070B50569EFF31186CB
:10450800102383F31288BFF36F8FD5F8900007F05C
:10451800C7FC044686F31188BFF36F8F30B1044897
:104528000022002305F1180104F0B4FA204670BDFA
:104538003809002070B5012382F8483013680D4609
:1045480014463BB192F84A3023B10E4802F10801F3
:1045580009F0D8FBD4F89030DA885B899A4205D103
:104568007DB904F118014FF47A7204E004F11801DE
:10457800002DF8D00022BDE870400248002304F066
:1045880089BA70BD3809002070B50E468188044686
:10459800C9B21548154607F068FE10B394F9002013
:1045A8006378002A16DB202B04D0222B0ED06FF064
:1045B80085000AE02B681A6840F8102C9A8820F8C1
:1045C8000C2C9B7900F80A3C002070BD638800F829
:1045D800093CF9E7212BEAD110380723286033601A
:1045E800F2E76FF01200F0E74411002008B5014629
:1045F800034807F048FE10B1012300F8073C08BD46
:10460800441100200D4A03460021A0F84810106804
:10461800C3F8940090889279A3F8980083F89A20B8
:1046280083F89C1083F89B10A3F89E1083F8A010C1
:10463800402203F14C0009F015BE00BF18EB00083A
:1046480010B504690023C4F8A8300C4BC4F8A400C2
:10465800596804F1A80269B9C3E9002204F1080005
:10466800074909F033FB04F11800064909F05AFB21
:10467800002010BD0A605A60F0E700BF4411002016
:10468800E5C200085947000830B54FF400334268C6
:1046980005690D4C85B042F2A100CDE90103002364
:1046A80085F89D30106AADF80C1000790A2201A92E
:1046B800FFF73AFA95F89D3023B9012009F07EFA00
:1046C800013CF7D105B030BDA186010073B504697E
:1046D8008DF80710002384F848301025EFF3118671
:1046E80085F31288BFF36F8F0122D4F890000DF183
:1046F800070107F0D5FB86F31188BFF36F8F0128F8
:1047080013D009F01BFB10B994F8A130B3B90E4BC4
:10471800BFF35B8F012253E8001F002903D143E850
:1047280000200028F7D1BFF35B8F0A22002304F191
:104738001801064804F0AEF902B070BD00210A2045
:1047480009F098FBCAE700BF401100203809002093
:10475800F0B5D0F88C305B681B6A1F7D85B00546C4
:10476800384607F0A6FD064650BB95F886303BB3A1
:10477800A86F0146C38831F80A2F9B1A9BB2B3F57C
:10478800806F28BF4FF4806303AA07F03AFB044602
:10479800B0B18306A5F1180308BF00F1FF3485F80E
:1047A80030600193074B0399009322460223384651
:1047B800FFF79CFDA86F224600F10A0107F057FB9E
:1047C80005B0F0BD3D45000837B514460A1E05463C
:1047D80021DDD4F88C0004F14C0107F061FB0123C2
:1047E80084F8493023683BB194F84B3023B1114821
:1047F80004F1080109F086FAD4F88C20938891898D
:1048080012695B1A9BB2D31A3F2B04D8012384F890
:10481800A03003B030BD94F89E30002BF9D0064B81
:10482800009301940123402204F14C012846FFF72C
:104838005DFDEEE738090020D1470008F7B50D46C1
:1048480001461D4807F005FD044610B30646691EDB
:1048580056F8A4395F6805291BD8DFE801F01C1A4F
:10486800031C222610F8061C99B9012300F8063CFF
:104878003B6A3246187BFFF7A7FF14F85C2C42B955
:104888003B6A187D0D4B0093019602231146FFF7F2
:104898002DFD03B0F0BD304603B0BDE8F040FFF792
:1048A800B1BE012304F8053CF3E710F8053C002BE2
:1048B800EFD00023F6E700BF441100203D45000873
:1048C80037B5094D0949002400944FF0FF334FF4E0
:1048D8008062284604F09EF80549284609F034FA13
:1048E800204603B030BD00BF380900200026002054
:1048F800C2FF000808B50348034A0021121A07F04E
:104908001AFE08BD38030020F41900200748084A99
:10491800084908B5121A07F010FE0748074A08495F
:10492800BDE80840121A07F008BE00BF00000020CA
:1049380034030020A00C0108000000200000002023
:10494800A00C01082DE9F84F804600AF0C4600295D
:1049580065D0E9468AB0D1E90012A3686D463948A6
:104968002E464FF0050AC5E90501C5E9072346F8B3
:1049780010AF3548324600234FF42151FEF7B2FA02
:10498800CD46D4E903126369AD463048C5F810A096
:10499800C5E90501C5E907232B48002332464FF432
:1049A8002151FEF79FFACD46E369294A2648DFF8E8
:1049B800B0B0012107F075FB264600254FF00A0A22
:1049C800E9468EB0D6E908E0D6E90A136A46C2F885
:1049D8001CE005F1010EC2E908E0A81CC2E90A01C1
:1049E800E91CC2E905B5C2E90C1342F810AF164834
:1049F800002345F240010435FEF774FA102DCD4628
:104A080006F11006DCD1236E124A0F48012107F087
:104A180048FBA369104A0C48012107F042FBB8F192
:104A2800010F07D1EFF305830C4A0748103B4146B5
:104A380007F037FB2146404603F03EFCBD46BDE883
:104A4800F88F00BFCBFF0008A8EA0008FAFF0008AB
:104A5800290001087B0001088A000108B800010844
:104A68003800010830BFFFF7FDBF00BF2DE9F04156
:104A78000B4EDFF8348006EB0807CC1B05463246A0
:104A88000849204609F0E0FBA01942460021083CED
:104A980009F0E8FB2C6707F10800BDE8F08100BFCA
:104AA8000000000010EB000804000000054B9A69A4
:104AB8009B689A421FBF044A536843F0805353606F
:104AC800704700BF9C19002000ED00E070B5294C2C
:104AD80006460D462848294907F03CFDA36AD90433
:104AE8003CD52548264907F035FD1720A36A1A0545
:104AF80004D52148234907F02DFD18201D4CA36A31
:104B08009B0512D51C48204907F024FDA36BA26A17
:104B1800100409D51D4A1848012107F0C2FA1EB130
:104B2800A36A23F40043A3621920124CA36A59050F
:104B380004D51148164907F00DFD1A20A36ADA05B5
:104B48000ED50D48134907F005FD1B20094A936A45
:104B580043F47F43936200232B7070BD1620C5E792
:104B6800A36A9B04F2D504480B4907F0F3FC1C2008
:104B7800ECE700BF00ED00E0A8EA0008CB00010860
:104B8800E1000108F2000108050101081E01010801
:104B9800330101084E0101086601010810B5204CD7
:104BA8002049214807F0D6FCA36A990136D51E484A
:104BB8001E4907F0CFFC1E20A36ADA0104D51A4863
:104BC8001B4907F0C7FC1F20154CA36A1B0304D51B
:104BD8001548184907F0BEFC2120A36A590304D5DB
:104BE8001148154907F0B6FC22200D4CA36A9A0318
:104BF80004D50D48114907F0ADFC2320A36ADB0357
:104C080004D509480E4907F0A5FC2420044A936AF4
:104C18006FEA03436FEA1343936210BD1D20CBE78D
:104C280000ED00E095010108A8EA0008AD010108BF
:104C3800C0010108DA010108F80101081D02010894
:104C4800370201082DE9F843364D80468946364833
:104C58003649174607F07EFCAB6ADE0627D534498D
:104C6800314807F077FC1124AB6A1D0704D5314998
:104C78002D4807F06FFC12242A4DAB6A980718D507
:104C88002D49294807F066FC6E6BAB6A190646D5B4
:104C98002A4A25483346012107F003FAB9F1000FE3
:104CA80003D0AB6A23F08003AB62132403E0102423
:104CB800DAE76FF015061B4DAB6ADA0704D5204911
:104CC800194807F047FC1424AB6A9B0604D51D4914
:104CD800154807F03FFC1524124B9A6AD50602D4F2
:104CE8009A6A90070AD55B68190507D54146304688
:104CF80000F06CFA10B180F309880224094B9A6A13
:104D0800920642BF5A6A22F400525A629A6A42F0E4
:104D1800FF029A6200233B702046BDE8F8836FF0DB
:104D28001506C2E700ED00E0A8EA000862020108E3
:104D380078020108F2000108AB020108C302010869
:104D4800D9020108660101082DE9F041634B9CB0C6
:104D5800D3F8048000AF0546C8F30804002686F39C
:104D68001188BFF36F8F02F07F43B3F17F4F07D1F4
:104D780002F00C03082B12D159495A4807F0EAFBF4
:104D8800002635460023FB71E31E092B00F28480C0
:104D9800DFE803F00A7A7D768282828282801007B9
:104DA8004CBF0D460126EDE74F494E484B4C07F0E6
:104DB800D1FB0023FB71E36A9A0705D54B494948A3
:104DC80007F0C8FB002432E0E36A002B01DA484907
:104DD800F5E7E36A5B00F5D54649424807F0BAFBB8
:104DE8006369AA6943F480736361BFF34F8FBFF3AC
:104DF8006F8F636932F8022C23F480736361BFF309
:104E08004F8FBFF36F8F4DF602739A4208D0A36A93
:104E1800DBB243B3FA1D01212846FFF713FF31E047
:104E28002B68354A2F48012107F03BF92C68FB799C
:104E3800ABB96822294607F1080009F005FA7B6A30
:104E4800002E45D0C3F3080222B96FEA53236FEA54
:104E580043237B6207F108012046FFF773FD703793
:104E6800BD46BDE8F081A36A13F47F4F04D0F91D55
:104E78000120FFF72BFE05E0A36AB3F5803FA1D31D
:104E8800FFF78CFE0446D2E7FA1D0021C4E7F91D9E
:104E98000020EEE7194992E7194A1A4B18F4F87FEF
:104EA800E8468AB018BF13466A461749C2E905138F
:104EB8004FF400731384103C144BD46142F8103F34
:104EC800084800234FF41151FEF70CF8C54679E75E
:104ED80023F4FF7323F00103BBE700BF00ED00E0FC
:104EE80026030108A8EA000851030108680301081D
:104EF8008903010897030108B6030108D2030108D2
:104F08000D030108F8020108F60301080400000176
:104F1800044B5A6942F010025A615A6922F0080299
:104F28005A61704700ED00E0EFF30880EFF3098164
:104F380001B57246FFF708FF01BD00BF0A4880F3BC
:104F48000888102080F3118808484FF40861401839
:104F580080F30988EFF314800221084380F3148852
:104F6800BFF36F8F00F0C2F800390020802A0020BC
:104F7800084B9B6883420BD1EFF3058343B1064B83
:104F88005A6842F080525A605A6A22F400425A62C1
:104F980004F0ACB89C19002000ED00E023498A68B1
:104FA80082F8BDE04FF030001044EFF3098C80E840
:104FB800F01F1EF0100F03D102F17C0080EC108A64
:104FC800102080F31288BFF36F8F194F4FF00066DF
:104FD8008A698A603E60106F164C206092F9BDE0C5
:104FE800506F0023536780F311881EF0100F03D011
:104FF8000023E1EE103A03E002F17C0090EC108A05
:10500800EFF3148323F0040383F31488BFF36F8F43
:1050180004B5104600F076F9BDE8044002F130000E
:1050280090E8F01F8CF30988704700009C19002055
:1050380004ED00E04C1100201EF0040F0CBFEFF34C
:105048000880EFF30980816911F8021C0229FFD05A
:1050580001B5724607F073FA01BD00BF40B20028DF
:1050680007DB044A4109012300F01F00834042F88E
:105078002130704700E100E040B200280CDB430912
:10508800064900F01F0020330122824041F8232006
:10509800BFF34F8FBFF36F8F704700BF00E100E091
:1050A80040B20028A8BF00F1604001F10101B8BF7B
:1050B800064B4FEA0111ACBF00F5614000F00F004C
:1050C800C9B2B4BF195480F80013704714ED00E05A
:1050D800044B054A23F07F039360BFF34F8FBFF360
:1050E8006F8F70470000000800ED00E008B5FFF77B
:1050F800EFFF104BD3F8882022F47002C3F8882001
:10510800D3F8882042F4A002C3F888204FF0404228
:10511800C3F83422BFF34F8FBFF36F8F0023E1EE44
:10512800103AFFF7E7FBFFF7F1FB00F0BBF803F0DD
:10513800E5F900BF00ED00E04FF47D41C0F8BC1078
:1051480042F8203C009B42F81C3C0A49019B42F86B
:10515800183C029B42F8143C21F001014FF0807387
:1051680042F8043C42F8081C0023203A02654367D1
:10517800704700BF3D290008838913F0020F124BC6
:1051880003D190F8BD20D20611D45A6B42F0804268
:105198005A63D0F8BC3019075CBF43F00803C0F865
:1051A800BC30838943F002038381802070475A6BA7
:1051B80022F080425A63D0F8BC301A0744BF23F06B
:1051C8000803C0F8BC30F0E700EF00E0094A0346E6
:1051D800906870B113F1160F006E05D0A0F180022F
:1051E8009A4205D8834203D2814228BF00207047E3
:1051F800002070479C190020104B9B6883421AD1ED
:10520800EFF30580B8B9EFF31181102282F3128809
:10521800BFF36F8F9A8922F002029A81EFF3148309
:1052280023F0040383F31488BFF36F8F81F311888D
:10523800BFF36F8F70476FF0150070479C190020FF
:1052480008B515460E460022E1EE102AEFF3148247
:1052580022F0040282F31488BFF36F8FBFF36F8FBD
:105268000B4A0C4B9060026F1A6000F04BF82C460A
:1052780086F309880020044B984720460021002225
:105288000023024C2047000071C500083D29000892
:105298009C1900204C110020014B10221A61704704
:1052A80000ED00E0044800231021C2180133562BFA
:1052B80082F80013F9D1704700E100E008B5EFF378
:1052C8000583064A103B02EBC30152F833004968D4
:1052D8008847BDE80840FFF7E9BB00BFB8E600080B
:1052E80001480068704700004C110020024B034A37
:1052F8000348012100F090B80000022000000020BF
:1053080050EE000810B50446FFF736FF226E03463C
:105318000548D21AC0E90023044B8360BDE8104059
:10532800012100F083B800BF5011002000000B15C8
:1053380008B503461048D0F89020C2F30722013A76
:10534800934207D90D480E4A012106F0AAFE6FF0D4
:10535800150008BDC0F898300A6822F01F021A43E9
:1053680042F01002C0F89C208A6842F00102C0F89E
:10537800A0201846EDE700BF00ED00E0A0EA000815
:105388000D040108F0B50E4685B01F4604460025F9
:10539800B5420DDA606810B397B1431E18420AD0BF
:1053A800104A11482B46012106F07BFE6FF01502CA
:1053B800104605B0F0BD7F28F2D921680B42EFD125
:1053C8002368019307F0E4F8A36801A90343D0B266
:1053D8000393FFF7ADFF10F1160FE7D0421C01351C
:1053E8000C34D5E733040108A0EA0008044B052271
:1053F800C3F89420BFF34F8FBFF36F8F704700BF80
:1054080000ED00E0BFF35F8F024B0022C3F8942049
:10541800704700BF00ED00E010B5034C012322786F
:10542800FFF7B0FF207010BDEE19002008B50B4A39
:1054380000231278FFF7A6FF10F1160F07D0084ACD
:105448000021D2F89030C3F30723984200DB08BD4F
:10545800C2F89800C2F8A0100130F2E7EE19002057
:1054680000ED00E02DE9F0435E485F49D0F8903048
:105478000D68C3F307239D4285B000F2B080FFF7A3
:10548800C1FF49680022954201F10C011BD1574C1C
:10549800574F25706846FDF7E5FFDFF85881DFF8BC
:1054A800589106460025AE4220D123784D49002068
:1054B800D1F89020C2F307229342C0F28A80FFF706
:1054C80095FF00204FE0C0F8982051F80C3C23F0DD
:1054D8001F03134343F01003C0F89C3051F8043CF9
:1054E80043F00103C0F8A0300132CCE7009800EB8C
:1054F80005114FEA051CCB683B40B3F5000F49D0B6
:105508000AD8B3F5001F31D0B3F5800F37D0B3F503
:10551800801F13D00135C6E7B3F1007F43D0B3F144
:10552800805F49D0B3F1807FF4D150F80C3088689F
:105538004A6807F02DF840F0887009E050F80C3000
:1055480088684A6807F024F840F0885040F4302012
:10555800039001A92078CDE90123FFF7E9FE00288F
:1055680033DA6FF0150005B0BDE8F08350F80C3061
:1055780088684A6807F00CF840EA0900E8E750F83C
:105588000C3088684A6807F003F840F0C06040F4BF
:105598000030DDE750F80C3088684A6806F0F8FFFC
:1055A80040F08270D4E750F80C3088684A6806F0FA
:1055B800EFFF40F48020CBE750F80C3088684A6849
:1055C80006F0E6FF40EA0800C2E7237801332370BB
:1055D800A0E7C1F89830C1F8A000013368E74FF0A0
:1055E800FF30C0E700ED00E05CEE0008EE19002097
:1055F8000000F0FF0000021100000811F0B587B0AC
:1056080007460E4614460021102268461D4608F03B
:1056180029FE02238DF802302A46054B01932146C4
:105628006846CDE9047604F063F907B0F0BD00BF21
:10563800B9C5000808B5024B1B689847002008BD8B
:105648005C110020034B044A1860937843F002036E
:10565800937070475C1100200401002008B50649CA
:10566800064821F00701C1F1005202F5003206F0A8
:10567800B6F8002008BD00BF0746002060110020D2
:1056880013B50F4C204608F0BFFA40B90D480E4A32
:10569800012106F0FDFC6FF0120002B010BD0B4AAC
:1056A80092E803006B4683E80300A26812681AB107
:1056B800194620469047F0E76FF05700EDE700BF26
:1056C800DCE4000880EA00086804010810EB000820
:1056D80000F01F0201211F2808B501FA02F2034653
:1056E80005D90648064A06F0DCFC002008BD054B33
:1056F8005B699A430CBF01200020F7E780EA0008A5
:1057080087040108003C014000F01F0201211F2806
:1057180008B501FA02F2034606D90548054A06F01B
:10572800C0FC6FF0150008BD034B00205A61FAE772
:1057380080EA000887040108003C0140044B184433
:1057480000230133994200F8012BFADC704700BFAF
:10575800B40100202DE9F041104F054600264FF016
:1057680001086B78F4B2A34201D8BDE8F0812B7828
:105778001C442046FFF7ACFF68B12046FFF7C4FF82
:1057880057F834303BB107EBC40204F01F045168EA
:1057980008FA04F098470136E3E700BF6C110020CF
:1057A800034660B1B0FA80F2C2F11F02D2B20549D5
:1057B8008856054A11680B431360FFF74FBCFF2258
:1057C800F5E700BFB4010020003C0140024A13681D
:1057D80023EA000313607047003C0140032921D8E5
:1057E800DFE801F0020C10190F4B9A6822EA000258
:1057F8009A60DA6822EA0002DA6070470A4B9A680F
:105808000243F5E7084BDA680243DA609A6822EA4D
:1058180000029A607047044B9A6802439A60DA68FB
:105828001043D860704700BF003C014030B5B0B1AC
:10583800B0FA80F3C3F11F03DBB20B4850F83340D2
:105848008C4204D100EBC3056D68954205D044B97C
:1058580040F8331000EBC3004260002030BDFF2346
:10586800EBE76FF00F00F9E76C11002060B1B0FAB8
:1058780080F3C3F11F03DBB2044A002142F833105E
:1058880002EBC30251607047FF23F5E76C1100205B
:1058980000F00302043292000F23934043EA900081
:1058A800C3B20233054A52F82320030C02EA10401F
:1058B80093FAA3F3B3FA83F3D84070470038014052
:1058C80020F08002032A0BDC064B10F0800F03F156
:1058D80090010CBF18460846242303FB02007047BA
:1058E80000207047D4160020014801F069BE00BFAF
:1058F800EC11002008B502460349044806F0CCFE26
:105908006FF0150008BD00BFD5040108E0EA0008E3
:1059180008B502460349044806F0BEFE6FF01500BC
:1059280008BD00BFEE040108E0EA000873B5544C56
:10593800204608F069F940B95249534806F0B1FECB
:105948006FF01204204602B070BDA568AB6933B988
:105958004E494D4806F0A5FE6FF00404F2E74C49A5
:105968000022204698470028F2D12B680BB94949F4
:10597800EFE74949204698470028F8D1EB680BB96A
:105988004649E6E7424901AA2046984706460028C4
:10599800F6D1019A424B9A4206D042493A4806F05B
:1059A8007BFE6FF08504CDE73F4D4FF0A0432B60A1
:1059B80004232B714FF44073A873EB8001464FF416
:1059C80010733A482B8101AA07F0CDF8041E07DBB3
:1059D800019B32461979186800F0F0FC041E05DABC
:1059E80033492948224606F057FEABE72E4807F010
:1059F80056FC024620B12F49234806F04DFEABE77E
:105A0800294807F0DBFC024608B12B49F4E7264891
:105A180007F0B4FC044610B128490246ECE74023DD
:105A2800A5F8E83485F8EC04A5F8783585F87C0500
:105A3800234D1D48A02107F03CFE10222146A5F267
:105A48008C5007F017FEA5F28C5601222846114605
:105A5800013408F0FFF8042C05F1240505D03022A4
:105A6800E1B2304607F006FEEFE700221146432078
:105A7800FFF716FB4320FFF7F1FA002462E700BFA7
:105A8800DCE4000800050108E0EA00081F05010839
:105A9800A4EE0008410501089CEE00085C05010819
:105AA800006CDC0280050108EC1100207CEE000887
:105AB8009C050108BA050108CE050108E2050108A0
:105AC80078170020014BC3F8E4047047EC1100205C
