:020000040800F2
:1000000040220020B9240008E37A0008A524000853
:10001000A5240008A5240008A5240008000000006D
:10002000000000000000000000000000792500082A
:10003000A52400080000000019250008A1410008BF
:100040002927000829270008292700082927000850
:100050002927000829270008292700082927000840
:100060002927000829270008292700082927000830
:100070002927000829270008292700082927000820
:100080002927000829270008292700082927000810
:100090002927000829270008292700082927000800
:1000A00029270008292700082927000829270008F0
:1000B00029270008292700082927000829270008E0
:1000C00029270008292700082927000829270008D0
:1000D00029270008292700082927000829270008C0
:1000E00029270008292700082927000829270008B0
:1000F00029270008292700082927000829270008A0
:10010000292700082927000829270008292700088F
:10011000292700082927000829270008292700087F
:10012000292700082927000829270008292700086F
:10013000292700082927000829270008292700085F
:10014000292700082927000829270008292700084F
:10015000292700082927000829270008292700083F
:10016000292700082927000829270008292700082F
:10017000292700082927000829270008292700081F
:10018000292700082927000829270008292700080F
:080190002927000829270008B7
:100198004FF0FF0C1CEAD0521EBF1CEAD15392EA62
:1001A8000C0F93EA0C0F6FD01A4480EA010C40023E
:1001B80018BF5FEA41211ED04FF0006343EA501098
:1001C80043EA5111A0FB01310CF00040B1F5000FDA
:1001D8003EBF490041EAD3715B0040EA010062F189
:1001E8007F02FD2A1DD8B3F1004F40EBC25008BF73
:1001F80020F00100704790F0000F0CF0004C08BF91
:1002080049024CEA502040EA51207F3AC2BFD2F15D
:10021800FF0340EAC250704740F400004FF000036B
:10022800013A5DDC12F1190FDCBF00F000407047A5
:10023800C2F10002410021FA02F1C2F1200200FAE3
:1002480002FC5FEA310040F1000053EA4C0308BFAA
:1002580020EADC70704792F0000F00F0004C02BFFB
:10026800400010F4000F013AF9D040EA0C0093F076
:10027800000F01F0004C02BF490011F4000F013BD0
:10028800F9D041EA0C018FE70CEAD15392EA0C0F3E
:1002980018BF93EA0C0F0AD030F0004C18BF31F0A9
:1002A800004CD8D180EA010000F00040704790F07F
:1002B800000F17BF90F0004F084691F0000F91F023
:1002C800004F14D092EA0C0F01D142020FD193EAE9
:1002D8000C0F03D14B0218BF084608D180EA010071
:1002E80000F0004040F0FE4040F40000704740F04D
:1002F800FE4040F44000704780F0004002E000BF3C
:1003080081F0004142001FBF5FEA410392EA030FF8
:100318007FEA226C7FEA236C6AD04FEA1262D2EB42
:100328001363C1BFD218414048404140B8BF5B4247
:10033800192B88BF704710F0004F40F4000020F0E0
:100348007F4018BF404211F0004F41F4000121F0F6
:100358007F4118BF494292EA030F3FD0A2F1010240
:1003680041FA03FC10EB0C00C3F1200301FA03F17E
:1003780000F0004302D5494260EB4000B0F5000FA1
:1003880013D3B0F1807F06D340084FEA310102F160
:100398000102FE2A51D2B1F1004F40EBC25008BF12
:1003A80020F0010040EA03007047490040EB0000DC
:1003B800013A28BFB0F5000FEDD2B0FA80FCACF1DD
:1003C800080CB2EB0C0200FA0CF0AABF00EBC2500A
:1003D80052421843BCBFD0401843704792F0000FF8
:1003E80081F4000106BF80F400000132013BB5E74B
:1003F8004FEA41037FEA226C18BF7FEA236C21D0C1
:1004080092EA030F04D092F0000F08BF0846704725
:1004180090EA010F1CBF0020704712F07F4F04D1F3
:10042800400028BF40F00040704712F100723CBF06
:1004380000F50000704700F0004343F0FE4040F430
:10044800000070477FEA226216BF08467FEA2363EE
:100458000146420206BF5FEA412390EA010F40F4D9
:10046800800070474FF0000304E000BF10F0004325
:1004780048BF40425FEA000C08BF704743F096430C
:1004880001464FF000001CE050EA010208BF704727
:100498004FF000030AE000BF50EA010208BF7047AE
:1004A80011F0004302D5404261EB41015FEA010CC3
:1004B80002BF84460146002043F0B64308BFA3F1BB
:1004C8008053A3F50003BCFA8CF2083AA3EBC2539D
:1004D80010DB01FA02FC634400FA02FCC2F12002BC
:1004E800BCF1004F20FA02F243EB020008BF20F0F3
:1004F8000100704702F1200201FA02FCC2F1200259
:1005080050EA4C0021FA02F243EB020008BF20EA4D
:10051800DC70704753B94AB9002908BF00281CBFCE
:100528004FF0FF314FF0FF3000F00CB8ADF1080C80
:100538006DE904CE00F010F8DDF804E0DDE90223EF
:1005480004B07047704700BF034613F8012B002A18
:10055800FBD1181A013870472DE9F04786468C46BA
:100568000846089E154674461946002B40F0C2807E
:100578008542B2FA82F245D94AB1C2F1200300FAA3
:1005880002FC2EFA03F3954043EA0C0C94404FEA20
:10059800154EA8B2BCFBFEF8230C0EFB18CC08FBCA
:1005A80000F943EA0C43994528D9EB1808F1FF37BD
:1005B80004D2994502D9A8F102072B44A3EB0903F9
:1005C800A4B2B3FBFEFC0EFB1C330CFB00F044EAA8
:1005D8000344A04214D92C190CF1FF3304D2A042D1
:1005E80002D9ACF102032C44241A43EA07401EB195
:1005F800D440002334607360BDE8F0874746DDE7E8
:100608006346F1E792BB431B01214FEA154EAFB297
:10061800B3FBFEFC200C0EFB1C330CFB07F840EA76
:100628000343984562D9EB180CF1FF3004D2984582
:1006380002D9ACF102002B44A3EB0803A4B2B3FB2C
:10064800FEFC0EFB1C330CFB07F744EA0344A742ED
:100658004ED92C190CF1FF3304D2A74202D9ACF1C0
:1006680002032C44E41B43EA0040C0E7C2F1200324
:1006780020FA03F1954090402EFA03F303434FEA22
:10068800154EAFB2B1FBFEFC0EFB1C10190C0CFB97
:1006980007F841EA0041884504FA02F422D96918AA
:1006A8000CF1FF3004D2884502D9ACF1020029448C
:1006B800A1EB08019BB2B1FBFEFC0EFB1C110CFB6D
:1006C80007F743EA01439F420ED9EB180CF1FF31BB
:1006D80004D29F4202D9ACF102012B44DB1B41EA50
:1006E800004192E76046E3E76146F7E76046A3E723
:1006F8006346B7E7834206D916B9002108467BE767
:10070800C6E900E0F9E7B3FA83F78FB9834201D36A
:10071800724508D8BEEB020460EB030301209C4637
:100728001EB9002168E73846FAE7C6E9004CF8E741
:10073800C7F1200CBB4022FA0CF41C432EFA0CF132
:1007480020FA0CF3B84001434FEA14490EFA07F5B2
:10075800B3FBF9F81FFA84FE09FB18300B0C08FBF1
:100768000EFA43EA00439A4502FA07F240D9E31821
:1007780008F1FF3004D29A4502D9A8F102002344B7
:10078800A3EB0A0389B2B3FBF9F809FB183308FB9A
:100798000EFE41EA03418E452CD9611808F1FF335A
:1007A80004D28E4502D9A8F10203214443EA00404D
:1007B800A0FB0298A1EB0E014145CE46434602D369
:1007C80006D14D4504D2B9EB020E68EB040301389B
:1007D800002EA6D0B5EB0E0261EB030101FA0CFC6A
:1007E80022FA07F34CEA0303F940C6E9003198E717
:1007F8004046C5E74346D9E72DE9F04F87B005469F
:1008080003911646836804AA5B689847002833DB7F
:10081800DDE9044A4CF25033A4FB03B203FB0A237C
:1008280002930299DFF8608015A3D3E900235846A4
:10083800FFF770FE4FF0FF39029BD94578EB0303B1
:10084800074619D3A6FB04B406FB0A440CA3D3E954
:10085800002321465846FFF75DFED94578EB04048E
:10086800034609D38742AA6806D300210091146879
:1008780003993A462846A04707B0BDE8F08F00BF65
:1008880000CA9A3B00000000FFC99A3B30B58BB004
:100898004FF6FF73ADF8043001AB022202930DF15D
:1008A800060102ABCDE9061200240392049306AABE
:1008B8000123CDE90823ADF80640059309480A4904
:1008C800836804AA1D6808ABA847011E05DA074813
:1008D80006F0B9FE20460BB030BDBDF80600C0F3E7
:1008E8000D00F8E7B09C00082CA3000872A70008C8
:1008F8002DE9F74FDFF884B0DFF884909DF834A035
:100908004CF250356424884617461E4605FB00F213
:100918009DF83030B2FBF4F2584602210193FFF7FC
:100928006BFF484605FB08F20121B2FBF4F2FFF722
:1009380063FF584605FB07F20321B2FBF4F2FFF709
:100948005BFF484605FB06F20221B2FBF4F2FFF713
:1009580053FF019B584605FB03F20421B2FBF4F256
:10096800FFF74AFF0321484605FB0AF2B2FBF4F2FF
:1009780003B0BDE8F04FFFF73FBF00BF789C000809
:10098800949C000873B50023CDE900230C46154656
:100998000A4619460646FFF7ABFF04482B4622468F
:1009A800314602B0BDE8704006F04DBE8EA7000883
:1009B80073B53448002406F046FE334806F043FE7B
:1009C8002346224621462046CDE90044FFF790FF02
:1009D8004FF47A7006F0B9FD2C4806F034FE224632
:1009E80064232146CDE900443220FFF781FF4FF40C
:1009F8007A7006F0AAFDFFF749FF0146054624482C
:100A080006F021FE234806F01EFE642322462146F6
:100A1800CDE9004332202346FFF76AFF4FF47A708E
:100A280006F093FDFFF732FF014606461A4806F026
:100A38000AFE2346224621462046CDE90044FFF718
:100A480057FF3146284606F085FD044601461348FF
:100A580006F0F9FD002C08DD114B124801221A603E
:100A680006F0F1FD012002B070BD05D00C4B0E4818
:100A78004FF0FF321A60F3E70C4806F0E4FD204619
:100A8800F1E700BFC6A70008EFA700081BA80008E9
:100A980051A8000869A800089FA80008B7A800087E
:100AA800B0000020D0A80008EDA800081EA9000882
:100AB80010B58AB04FF6FF73ADF804300023ADF8D7
:100AC800063001AB022202930DF1060102ABCDE91B
:100AD80006120392049306AA0123CDE9082305937D
:100AE8000E480F49836804AA1C6808ABA047011E7A
:100AF80005DA0C4806F0A7FD0B480AB010BDBDF892
:100B08000600C0F30D00FFF7ADFC0849FFF740FBF6
:100B18004FF06451FFF73CFBEFE700BFB09C0008C3
:100B28002CA3000872A70008000080BF0000B4438F
:100B380010B5002000F0AAFC044630B10146324846
:100B480006F081FD4FF0FF3010BD4FF47A7006F0CB
:100B5800FCFC2E4806F077FD2D4806F074FD2D4864
:100B680008F0BCFB70B12C4808F0B8FB50B12B481A
:100B780006F069FD2A4808F0B1FB28B9294806F0B3
:100B880062FDDFE72848FAE7284808F0A7FB0028B5
:100B9800F4D0274806F057FD264806F054FD2648AD
:100BA80006F051FD224621463220FFF7EBFE4FF4B6
:100BB800FA6006F0CAFC224621462046FFF7E2FE0C
:100BC8001E4806F040FD4FF47A7006F0BEFC1C4843
:100BD80006F039FDFFF7ECFE08B91A48CFE71A4BC3
:100BE8001A4A19681A4B1B48012914BF114619469D
:100BF80006F029FD184806F026FDFFF759FF4FF4C7
:100C0800FA7006F0A2FCF8E74CA9000866A90008EB
:100C18007FA90008B09C0008089C0008ABA9000840
:100C2800789C0008C7A90008DEA90008949C000861
:100C3800FCA9000837AA000851AA00087BAA0008E6
:100C4800C7AA0008EDAA0008B000002043A90008C0
:100C58003CA9000802AB00082EAB0008014B1B683A
:100C6800184700BFB4000020014B1860704700BF50
:100C7800B400002030B585B004460D46102200218E
:100C8800684608F007FE02238DF802302A46044B16
:100C980001932146684605F0DDFB05B030BD00BF75
:100CA800650C000880B505460E461746984605F0BF
:100CB800A9F8034601F046FDDFF81890044649F804
:100CC8000030424630463946A84754F8090001F03A
:100CD80009FC00BF08000000034A536823F0020320
:100CE80053600020704700BF002004E0084B1A68DA
:100CF80042F480721A601A6842F400721A601A6824
:100D080042F480621A60034B034A1A60704700BFBE
:100D1800003C0240980100200024F400014B0360CD
:100D28000020704748A30008F0B40D4B0D4E5F6AD1
:100D38000D4BB34203D36FF08500F0BC70475C687D
:100D4800BC420AD31D6945B194F802C08488E4B254
:100D5800A44502D12B46F0BC18472433E9E700BF6D
:100D6800C0050020CC020020A80200202DE9F04791
:100D7800144CDFF85480DFF8549005460E461746A9
:100D8800444503D36FF08500BDE8F0876268D9F861
:100D980024309A4213D3A3698BB1A9889078C9B239
:100DA800884205D13A4631462846BDE8F0471847FB
:100DB8005279012A03D13A463146284698472434C5
:100DC800DEE700BFA8020020CC020020C0050020FA
:100DD8002DE9F0410B4CDFF8308005460E461746EA
:100DE800444502D36FF0850009E063690BB92434E8
:100DF800F6E73A463146284698470028F7D1BDE835
:100E0800F08100BFA8020020CC02002010B50446E3
:100E180002F07AF810F1780F00D050B9054A204650
:100E280006F0BBFCD2F8C43023EA0003C2F8C43091
:100E3800002010BDC0050020024B00221A605A6035
:100E4800704700BF7B06002070B50B4B0B4CA342CC
:100E580001D3002070BD196A1E7F00220439D5B263
:100E6800AE4201D82433F2E7013211F832508542FC
:100E7800F5D10120EEE700BFA8020020CC02002037
:100E880073B58488E4B263060D468DF8074007D031
:100E98002046FFF7D9FF78B10D4B93F8BA0058B147
:100EA8000B4E204655B101F0DBFFF3691BB10DF184
:100EB800070108209847012002B070BD01F0E6FF45
:100EC800F369002BF7D00DF107010920F2E700BF05
:100ED800C005002008B509480378C3F341130A3355
:100EE80050F823303BB100F1080200F11001984797
:100EF800C043C00F08BD1846FCE700BFC00500206E
:100F080004282DE9F14FDFF8989004460F4616D0D3
:100F180001282DD1DFF88C8098F8B93043B300F060
:100F2800DBFD214D4D4520D2D5F820B04FF0000A09
:100F38002B7F5FFA8AF6B34204D82435F2E7FFF72D
:100F48007BFFE7E70BEBC6060AF1010A307901F0EF
:100F5800DBFF0246307906F020FCD8F8C430002ABE
:100F680023EA0003C8F8C430E2DA002388F8B9306D
:100F78000D4D4D4508D30B4B1B6A6BB139462046C6
:100F880001B0BDE8F04F1847EB681BB13A4621465F
:100F9800284698472435ECE701B0BDE8F08F00BF3C
:100FA800CC020020C0050020A802002073B5867876
:100FB8008DF80060037942791C4C43EA0223ADF8AE
:100FC8000230C378304603F003038DF8043006F08E
:100FD800E4FBD4F8C430184205460BD0304600F084
:100FE8005DFD3046FFF712FF08F015FA10B996209C
:100FF80008F0A3FA684606F02AFE10F1780F03D02D
:1010080010B1002002B070BD9DF8000001F058FF3B
:1010180010F1780F01D00028F3D1D4F8C4300120A2
:101028002B4384F8B900C4F8C430EBE7C0050020AE
:101038002DE9F047A84EB36904460F461546FBB99B
:10104800237803F01F03012B00F09E80022B00F091
:10105800068133BB94F900002A686178002834DAE5
:10106800062912D008292BD0D9B901231370517041
:1010780096F8C3305B0043F001031370022328E1A4
:1010880098470028DCD100200DE06288100A011F73
:101098000129844605D9072803D8716AD2B20C7889
:1010A8001CB96FF01500BDE8F0874E78664503D18E
:1010B8009A4200F0098101332144F0E70B7808E1F6
:1010C80096F8BA301370012303E101390829E8D8EA
:1010D80001A353F821F000BF7B110008AB100008F2
:1010E80089110008AB10000805110008AB100008B2
:1010F800AB100008AB100008131100086088C0B2DC
:1011080001F06EFE0028BED0CBE76388756A63BB2A
:10111800FFF792FE638886F8BA30F369002BB2D0E5
:101128006E4903209847AEE76B78042B10D0052B47
:1011380011D0022B04D16F796388BB4208BF01200C
:101148002B781D442B78002BEED10028A9D0DFE79F
:1011580095F80380F4E76388BB42F1D1B8F1000F3A
:10116800EED12846FFF722FFEAE7FF270020B8461E
:10117800E8E76388012B94D1002386F8C33082E71F
:101188006388012B8DD1F8E796F8BA30D5F800C0FE
:10119800002B86D0A388756A5FFA83FE2A461078EA
:1011A80000283FF47EAF5178022904D192F80480D8
:1011B800F04500F295800244F1E78CF800208CF8A5
:1011C800012039605FE7154496E00B2A7FF469AF88
:1011D80000274FF0FF08C146BA4606E06B78042B9B
:1011E8000FD0052B21D02B781D442B78002BF5D15F
:1011F800F36913B1514607209847002F7FF443AF96
:101208004FE795F80280A38895F803909845EAD1AE
:1012180063889945E7D1B8F1070F1DD806EB080395
:10122800AA4683F8BB900127DDE7A3884345DAD1B6
:101238006388DBB24B450AD0AF78384600F02EFC05
:101248003846FFF7E3FDB0FA80F77F09CBE7284679
:10125800FFF7ACFE0746C6E7AA460027C3E794F99E
:1012680000206378002A19DA002B7FF41AAFA388CC
:101278002D68DCB25B060AD02046FFF7E5FD0028A2
:101288003FF40FAF96F8BA30002B3FF40AAF294667
:10129800204606F0F1FC00236B70EFE6012B08D026
:1012A800032B7FF4FEAE6388002B7FF4FAAE012196
:1012B80003E0618800297FF4F4AE2046FFF7E0FDE3
:1012C80000287FF4E0AEECE6022829607FF4F6AE51
:1012D8004B883B60D7E600BFC00500207A06002097
:1012E80094F9000062780028BFF66FAF002A3FF437
:1012F80064AF0A2A7FF4D5AE2A78002A3FF4D1AE2B
:10130800697804297FF45FAFA9788B427FF45BAFDB
:10131800072B96BF9B19002393F8BB308CF800303D
:10132800D1E600BF13B5164C237DF3B9E268A16876
:10133800019201AB802006F03EFA019AA36813449B
:10134800A360E3689B1AE3606BB962B12369E28822
:101358009A4208DD94F8C82093FBF2F102FB11339E
:101368000BB90123237502B010BD00231A46194694
:101378008020237502B0BDE8104001F0E7BD00BF32
:10138800C005002030B585B0002302460D46019304
:10139800002858D1002935D108220B460DEB02014F
:1013A80006F077FC002804DA802001F059FD05B02A
:1013B80030BD2A4C029A2260039A626004F1380216
:1013C800A2609DF90820BDF80E302575002AC4E9F1
:1013D80003550ADB802B04D9802001F041FD002051
:1013E800E3E713B1C4E90333E1E7FFF773FD00282E
:1013F800DAD0E28823699A42D4BFE260E360FFF75B
:1014080091FFD4E7154CD4E90215002D01AB04DC9B
:1014180006F03FFC0028CADAC6E72A4606F039FC7F
:101428000028D9DB019AA3681344A360E3689B1AD8
:10143800E360002BBBD104F13803A360FFF74AFD3A
:101448000028DCD1B0E78028B1D1044BDA68002A43
:10145800D5D11B7D002BD2D1A9E700BFC005002044
:10146800054B064A9A62064ADA62064A1A63064A2F
:1014780058629A6100207047C005002039100008A2
:10148800310D0008D90D0008750D00082DE9F3414C
:101498000446474D47484FF0FF334FF0FF3203F003
:1014A80027FF95F8B830002B7BD16B6A83B142488F
:1014B8002C62E8616E6A01F08DFC01F0EFFB041EFE
:1014C80010DA3C4803F08CFF204602B0BDE8F081FA
:1014D80000F0BEF8FFF7C4FF6B6A002BE7D14FF0AE
:1014E800FF34EEE700F01AFB041EEADB7378012BE9
:1014F8005AD1F379002B57D00026684685F8C830B2
:10150800ADF802308DF804608DF8006006F09FFB9E
:10151800041ED6DB802768468DF8007006F097FB1E
:10152800041ECEDB2549304606F077FB041EC8DBD7
:101538002249384606F071FB041EC2DB204CDFF856
:10154800848044451AD3002001F0BAFC041EB8DB9D
:10155800D5F8C430802043F00103C5F8C43001F049
:10156800AFFC041EADDBD5F8C43043F48033C5F8B6
:10157800C430012385F8B8300024A2E7276A002682
:10158800227FF3B29A4201D82434DAE707EBC30288
:1015980057F83310107906F040FB01360028EFD0D9
:1015A8009DE76FF077048CE76FF0150489E700BFBB
:1015B800C0050020DC010020090F00088D13000879
:1015C800A8020020CC02002030B51F4B8BB005AA22
:1015D80003F1100518685968144603C40833AB4270
:1015E8002246F7D11B7823701022002101A808F0A9
:1015F80051F912220021154808F04CF9102101A8D0
:1016080001F0B4FF00281BDD0828B8BF08200938FE
:1016180001AB0E491A18002012F8013F0AAC04EB7E
:10162800131403F00F0328336B44013014F8144CDF
:1016380013F8143C0C7008284B7001F10201EBD12F
:1016480002480BB030BD00BF45AB00081D1000209C
:101658002DE9F04F724B93F800B087B0BBF1000F43
:1016680003D0704807B0BDE8F08F6E4C00264FF0ED
:10167800011AB0463546B14623783BB96A4B023465
:101688009C42F3D1664A01231370EAE76378052B7D
:101698001BD8DFE803F08E03C38E1D39402304A84E
:1016A8008DF810B0ADF812308DF814B006F0C0FA0D
:1016B80040B1082304A8ADF8123006F0B9FA08B111
:1016C800ADF812B0BDF81230E37123781C44D3E7AB
:1016D800E378002BF9D1A3786BB108F101085FFA20
:1016E80088F8F2E76B689C4207D024354F4B9D423F
:1016F800F8D30020B6E74E4DF8E7AB68002BECD0E6
:10170800414620469847E8E7002DF2D000222B7F7B
:101718009A42EED2296AA07801EBC2010B7998426D
:1017280001D00132F3E70127E07800F003008DF8DB
:101738001400207994F805C040EA0C20ADF8120096
:1017480094F902000028FBB228DA07F110004FF0E4
:10175800010C0CFA00F010EA0A0F26D143F08000C1
:101768008DF8100004A8CDE90213019206F060FA82
:10177800DDE90121039BC0B99DF81020A27012F089
:10178800800F18BF10330A7118BFDBB24FF0010287
:1017980014BF9A40BA404AEA020A96E70120B840C4
:1017A80010EA0A0F01D11846DAE70137102FBBD12A
:1017B800B7E7032E1AD1FFF707FF074650B1FEF728
:1017C800C3FE024630B11028A8BF10223946A01C1B
:1017D80008F052F823786FF00201E218091B04EBB5
:1017E8005303D14213D50136F6B26EE7002EF1D17C
:1017F800B9F1000F3FF47DAFA4EB090389F802307B
:10180800C3F3072389F8033089F80480EBE702F86B
:1018180001BC13F8010902F8020DE2E7A14654E7FA
:101828001C100020F0010020A7020020CC0200209C
:10183800A802002010B5094B00211A461C788442E2
:1018480004D15C6814B102EB811010BD0131042988
:1018580003F14003F2D10020F7E700BF8C06002017
:101868002DE9F34150F8283C10F82C6C103304464D
:101878000AD1036950F8202C980736D5D2B95907F0
:1018880015D5002344F8283C54F8283C10330BD0D5
:1018980054E9077554F8148C07F0BDFD00284FD0A3
:1018A8002E48214607F09BFD02B0BDE8F08143F0C9
:1018B8000403236154F8241C01AB304605F07BFF78
:1018C80010B16FF01503DDE7019A54F8243C134476
:1018D80044F8243C54F8203C9B1A44F8203C54F823
:1018E8001C3C134444F81C3CCEE754F8241C01ABC0
:1018F800304601F07DFB0028E3D1019D54F8243CDB
:101908002B4444F8243C54F8203C5B1B44F8203C0E
:1019180054F81C3C2B4444F81C3C002DB1D03046F4
:1019280006F0C5F9B5FBF0F303FB1055002DA8D15F
:1019380054F8203C002BA4D0304601F089FBA3E7E3
:1019480044F8180CA4F1100003F09AFD002DABD058
:10195800424639463046A847A6E700BFD0020020D5
:101968004B1E012B73B506460D460FD8FFF762FFD5
:10197800044668B9012D09D101AB01220DF103011B
:10198800304601F035FB019B002BF5D102B070BD4C
:1019980007F041FD04F12C0108B1012D05D10846DD
:1019A80002B0BDE87040FFF75BBF034802B0BDE876
:1019B800704007F014BD00BFD00200202DE9F74F9A
:1019C800064601911546984605F03DFF0446002855
:1019D8005BD1EFF3118A102383F31288BFF36F8F63
:1019E800DFF8ACB000220023584603F07DFD70B943
:1019F800DFF8A090A70109EB8414636813F1100FB6
:101A080014D10193584603F03BFD019B06E00134D5
:101A1800042C0BF1400BE5D16FF00B038AF311880E
:101A2800BFF36F8F184603B0BDE8F08F019B2061AC
:101A3800C4E902350C9B63610D9BA36130466FF0CE
:101A48000F0309F80760C4F83C80636006F02FF9BB
:101A580058B1304606F02BF9B5FBF0F303FB1055EF
:101A68001DB1E36B43F00403E36318F0020F07D0E2
:101A780007F12C010848494407F0B1FC0023CDE7E1
:101A8800304601F0E5FA0346C8E76FF00F03C9E7EF
:101A9800A80600208C060020D002002010B5EFF325
:101AA8001184102383F31288BFF36F8FFFF7C2FEF0
:101AB80050B14368103307D16FF08B03436000F1D6
:101AC8002C01044807F08BFC84F31188BFF36F8F57
:101AD80010BD00BFD0020020F8B50E4C0425102719
:101AE800EFF3118687F31288BFF36F8F63681033A3
:101AF80007D16FF08B030848636004F12C0107F0ED
:101B08006EFC86F31188BFF36F8F013D04F140042A
:101B1800E6D1F8BD8C060020D002002070B50A4C32
:101B28000A4E00253146204607F03DFC0122A4F16B
:101B380010001146013507F0FAFB042D04F14004AA
:101B4800F0D1002070BD00BFB80600206918000859
:101B58000169012381F84B300B6833B191F84930A2
:101B68001BB10248083107F03ABC7047D002002088
:101B78000169012381F84A300B6833B191F8483084
:101B88001BB10248083107F02ABC7047D002002078
:101B980070B50569EFF31186102383F31288BFF33C
:101BA8006F8FD5F8900005F0AAFD044686F31188DA
:101BB800BFF36F8F30B104480022002305F11801EC
:101BC80003F0FAFD204670BDD002002070B5012355
:101BD80082F8483013680D4614463BB192F84A30F3
:101BE80023B10E4802F1080107F0F9FBD4F8903050
:101BF8005A89DB889A4205D17DB904F118014FF45E
:101C08007A7204E004F11801002DF8D00022BDE832
:101C180070400248002303F0CFBD70BDD002002001
:101C280070B50E4681880446C9B21548154605F0B8
:101C3800E6FD10B394F900206378002A16DB202B08
:101C480004D0222B0ED06FF085000AE02B681A68AA
:101C580040F8102C9A8820F80C2C9B7900F80A3C44
:101C6800002070BD638800F8093CF9E7212BEAD110
:101C78001038072328603360F2E76FF01200F0E7AE
:101C88009007002008B50146034805F0C6FD10B1CD
:101C9800012300F8073C08BD900700200D4A0346C1
:101CA8000021A0F848101068C3F894009088927931
:101CB800A3F8980083F89A2083F89C1083F89B1067
:101CC800A3F89E1083F8A010402203F14C0007F0FF
:101CD800E1BD00BF90A0000810B504690023C4F856
:101CE800A8300C4BC4F8A400596804F1A80269B9DB
:101CF800C3E9002204F10800074907F054FB04F186
:101D08001800064907F07BFB002010BD0A605A60E6
:101D1800F0E700BF9007002079780008F11D00085F
:101D280030B54FF40033426805690D4C85B042F276
:101D3800A100CDE90103002385F89D30106AADF8B4
:101D48000C1000790A2201A905F035FD95F89D309F
:101D580023B9012007F09CFA013CF7D105B030BD4A
:101D6800A186010073B504698DF80710002384F873
:101D780048301025EFF3118685F31288BFF36F8F73
:101D88000122D4F890000DF1070105F0B8FC86F3A4
:101D98001188BFF36F8F012813D007F03CFB10B9EF
:101DA80094F8A130B3B90E4BBFF35B8F012253E80F
:101DB800001F002903D143E800200028F7D1BFF312
:101DC8005B8F0A22002304F11801064803F0F4FC93
:101DD80002B070BD00210A2007F090FBCAE700BFDF
:101DE8008C070020D0020020F0B5D0F88C305B685A
:101DF8001B6A1F7D85B00546384605F024FD06465A
:101E080050BB95F886303BB3A86F0146C38831F8BC
:101E18000A2F9B1A9BB2B3F5806F28BF4FF48063DB
:101E280003AA05F01DFC0446B0B18306A5F118030A
:101E380008BF00F1FF3485F830600193074B039920
:101E48000093224602233846FFF7B8FDA86F2246C2
:101E580000F10A0105F03AFC05B0F0BDD51B0008F9
:101E680037B514460A1E054621DDD4F88C0004F166
:101E78004C0105F044FC012384F8493023683BB148
:101E880094F84B3023B1114804F1080107F0A7FA80
:101E9800D4F88C209388918912695B1A9BB2D31A63
:101EA8003F2B04D8012384F8A03003B030BD94F848
:101EB8009E30002BF9D0064B009301940123402259
:101EC80004F14C012846FFF779FDEEE7D002002027
:101ED800691E0008F7B50D4601461D4805F083FC4C
:101EE800044610B30646691E56F8A4395F680529EA
:101EF8001BD8DFE801F01C1A031C222610F8061C68
:101F080099B9012300F8063C3B6A3246187BFFF773
:101F1800A7FF14F85C2C42B93B6A187D0D4B00935F
:101F2800019602231146FFF749FD03B0F0BD304684
:101F380003B0BDE8F040FFF7B1BE012304F8053C4B
:101F4800F3E710F8053C002BEFD00023F6E700BFBD
:101F580090070020D51B000837B5094D0949002412
:101F680000944FF0FF334FF48062284603F0E4FBFF
:101F78000549284607F055FA204603B030BD00BF92
:101F8800D00200204010002064AB000808B50348C8
:101F9800034A0021121A05F098FD08BDD00200205E
:101FA800341000200748084A084908B5121A05F0F5
:101FB8008EFD0748074A0849BDE80840121A05F08F
:101FC80086BD00BF00000020CC020020E8B0000859
:101FD8000000002000000020E8B0000838B50546E1
:101FE8000C4699B1D1E901230F48096805F02BFB8C
:101FF800D4E90423E1680D4805F025FBE1690C48A4
:1020080005F021FBA1690B4805F01DFB012D05D149
:10201800EFF305810848103905F015FB21462846DD
:10202800BDE8384003F036B86DAB00089DAB00083A
:10203800CDAB0008DDAB00080CAC000830BFFFF7E3
:10204800FDBF00BF2DE9F0410B4EDFF8308006EBF5
:102058000807CC1B054632460949204607F00CFC08
:10206800A01942460021083C07F014FC2C6707F130
:102078000800BDE8F08100BF000000000400000077
:1020880084A00008054B5A699B689A421FBF044AFE
:10209800536843F080535360704700BFE80F002037
:1020A80000ED00E02DE9F843324D8046324889467C
:1020B800174605F0C8FAAB6ADE0622D52F4805F0A8
:1020C800C2FA1124AB6A1D0703D52D4805F0BBFAE7
:1020D8001224284DAB6A980715D52A4805F0B3FA9B
:1020E8006E6BAB6A190642D52748314605F0ABFA44
:1020F800B9F1000F03D0AB6A23F08003AB6213245D
:1021080003E01024DEE76FF015061A4DAB6ADA0714
:1021180003D51E4805F097FA1424AB6A9B0603D52D
:102128001B4805F090FA1524124B9A6AD50602D47A
:102138009A6A90070AD55B68190507D54146304663
:1021480000F0A8FA10B180F309880224094B9A6AB2
:10215800920642BF5A6A22F400525A629A6A42F0C0
:10216800FF029A6200233B702046BDE8F8836FF0B7
:102178001506C4E700ED00E020AC000837AC000805
:102188006BAC00087FAC000898AC0008AFAC000846
:10219800CFAC000810B51D4C1D4805F054FAA36AD1
:1021A800990130D51B4805F04EFA1E20A36ADA01C2
:1021B80003D5194805F047FA1F20144CA36A1B03DE
:1021C80003D5164805F03FFA2120A36A590303D521
:1021D800134805F038FA22200C4CA36A9A0303D559
:1021E800104805F030FA2320A36ADB0303D50E4814
:1021F80005F029FA2420054A936A6FEA03436FEA37
:102208001343936210BD1D20D0E700BF00ED00E02E
:10221800FFAC000818AD00082CAD000847AD000859
:1022280066AD00088CAD0008A7AD000870B5244C59
:10223800064624480D4605F006FAA36AD90435D5A2
:10224800214805F000FA1720A36A1A0503D51F488C
:1022580005F0F9F918201A4CA36A9B050FD51C48FC
:1022680005F0F1F9A16BA36A180407D5194805F020
:10227800EAF91EB1A36A23F40043A3621920104CA3
:10228800A36A590503D5144805F0DDF91A20A36A95
:10229800DA050DD5114805F0D6F91B20084A936ACE
:1022A80043F47F43936200232B7070BD1620CBE765
:1022B800A36A9B04F2D50A4805F0C5F91C20EDE78E
:1022C80000ED00E0D3AD0008EAAD00086BAC0008F3
:1022D800FCAD000816AE00082CAE000848AE000899
:1022E800CFAC00082DE9F0415B4B5F688AB004462B
:1022F800C7F30806002585F31188BFF36F8F02F036
:102308007F43B3F17F4F06D102F00C03082B13D1A2
:10231800524805F098F900252C464FF00008F31EA6
:102328008DF80780092B00F28680DFE803F00A7A2F
:102338007E7684848484848210074CBF0C460125F1
:10234800EBE74748444E05F07EF98DF80780F36ABD
:102358009A0704D5434805F076F9002330E0F36A7C
:10236800002B01DA4048F6E7F36A5B00F5D53F48F1
:1023780005F069F97369A26943F480737361BFF367
:102388004F8FBFF36F8F736932F8022C23F4807379
:102398007361BFF34F8FBFF36F8F4DF602739A428D
:1023A80009D0B36ADBB253B30DF10702012120460D
:1023B800FFF778FE33E021682D4805F044F92368DB
:1023C8009DF80720C2B902AE04F1200720686168B1
:1023D800324603C20834BC421646F7D1099AB5B34F
:1023E800C2F3080121B96FEA52226FEA4222099228
:1023F80002A91846FFF7F2FD0AB0BDE8F081B36AFA
:1024080013F47F4F05D00DF107010120FFF70EFFF0
:1024180005E0B36AB3F5803F9FD3FFF7BBFE0346E1
:10242800CEE70DF107020021C1E70DF107010020F9
:10243800ECE710488FE7104B1049114817F4F87F64
:10244800A6F1100218BF194605F0FDF885E722F439
:10245800FF7222F00102CAE700ED00E08FAE00082B
:10246800BBAE0008D3AE0008F5AE000804AF000804
:1024780024AF000841AF000876AE000861AE00083E
:1024880066AF0008044B5A6942F010025A615A6953
:1024980022F008025A61704700ED00E0EFF308806F
:1024A800EFF3098101B57246FFF71CFF01BD00BFBC
:1024B8000A4880F30888102080F3118808484FF4F0
:1024C8000461401880F30988EFF31480022108435F
:1024D80080F31488BFF36F8F00F0A4F84022002027
:1024E80080140020084B9B6883420BD1EFF30583CF
:1024F80043B1064B5A6842F080525A605A6A22F435
:1025080000425A6203F084BCE80F002000ED00E0AE
:1025180014498A684FF030001044EFF3098C80E8C2
:10252800F01F102080F31288BFF36F8F0E4F4FF00B
:1025380000664A698A603E60106F0C4C2060506FDC
:102548000023536780F3118804B5104600F00CF996
:10255800BDE8044002F1300090E8F01F8CF30988D0
:1025680070470000E80F002004ED00E09807002005
:102578001EF0040F0CBFEFF30880EFF309808169A8
:1025880011F8021C0229FFD001B5724605F0A1FA24
:1025980001BD00BF40B2002807DB044A41090123FE
:1025A80000F01F00834042F82130704700E100E04E
:1025B80040B200280CDB4309064900F01F00203315
:1025C8000122824041F82320BFF34F8FBFF36F8F62
:1025D800704700BF00E100E040B20028A8BF00F14A
:1025E800604001F10101B8BF064B4FEA0111ACBFD1
:1025F80000F5614000F00F00C9B2B4BF195480F86B
:102608000013704714ED00E0044B054A23F07F03E4
:102618009360BFF34F8FBFF36F8F704700000008C0
:1026280000ED00E008B5FFF7EFFF0B4AD2F888305D
:1026380023F47003C2F88830EFF3148323F0040303
:1026480083F31488BFF36F8FFFF7A0FCFFF7AAFC92
:1026580000F05AF802F0E6FD00ED00E042F8203CF8
:10266800009B42F81C3C0A49019B42F8183C029B1B
:1026780042F8143C21F001014FF0807342F8043C09
:1026880042F8081C0023203A02654367704700BFE0
:10269800AD0C0008094A0346906870B113F1160F93
:1026A800006E05D0A0F140029A4205D8834203D2B9
:1026B800814228BF0020704700207047E80F0020A3
:1026C80008B515460B4A0C4B9060026F1A600E460F
:1026D80000F04AF82C4686F309880020034B9847F7
:1026E8002046002100220023014C2047FF7A0008E1
:1026F800AD0C0008E80F002098070020014B1022BD
:102708001A61704700ED00E0044800231021C21848
:102718000133562B82F80013F9D1704700E100E02D
:1027280008B5EFF30583064A103B02EBC30152F8E4
:10273800330049688847BDE80840FFF7A3BC00BFDD
:10274800CC9C0008014800687047000098070020EA
:10275800024B034A0348012100F076B8000002202A
:102768000000002048A30008026E054B403A1A609A
:10277800044A4021C3E901121846012100F06EB84D
:102788009C07002000000B15084AC2F898000B6847
:1027980023F01F03034343F01003C2F89C308B68F7
:1027A80043F00103C2F8A030704700BF00ED00E01D
:1027B8002DE9F043DFF8608085B00E461F460446D9
:1027C8004FF00009B14523DA6068D8B13FB1411E26
:1027D80008421BD11F2819D92368194216D123682A
:1027E800019305F09CF9A36803430393D8F890502C
:1027F800C5F30725D0B2013DA84207D801A9FFF7C4
:10280800C3FF421C09F101090C34DBE76FF0150224
:10281800104605B0BDE8F08300ED00E0044B05224A
:10282800C3F89420BFF34F8FBFF36F8F704700BF7B
:1028380000ED00E0BFF35F8F024B0022C3F8942045
:10284800704700BF00ED00E010B5034C012322786B
:10285800FFF7AEFF207010BD2F10002008B50B4AFF
:1028680000231278FFF7A4FF10F1160F07D0084ACB
:102878000021D2F89030C3F30723984200DB08BD4B
:10288800C2F89800C2F8A0100130F2E72F1000201B
:1028980000ED00E02DE9F0435B4B5C4CD3F8903041
:1028A8002568C3F307239D4285B000F2A980FFF78E
:1028B800C1FF00200C2685421BD1554C554F257071
:1028C8006846FEF72BFADFF84081DFF84C910646A0
:1028D8000025AE4214D123784B490020D1F890202E
:1028E800C2F307229342C0F28580FFF797FF0020CA
:1028F80045E0616806FB0011FFF746FF0130DAE7A3
:10290800009800EB05114FEA051CCB683B40B3F576
:10291800000F4DD00AD8B3F5001F33D0B3F5800FA0
:102928003BD0B3F5801F13D00135D2E7B3F1007F58
:1029380047D0B3F1805F4DD0B3F1807FF4D150F828
:102948000C3088684A6805F0EAF840F0887009E0B9
:1029580050F80C3088684A6805F0E1F840F0885073
:1029680040F43020CDE901230390D8F89030207846
:10297800C3F30723013B984235D96FF0150005B022
:10298800BDE8F08350F80C3088684A6805F0C7F84D
:1029980040F0885040F40020E4E750F80C30886894
:1029A8004A6805F0BCF840F0C06040F40030D9E750
:1029B80050F80C3088684A6805F0B1F840F0827029
:1029C800D0E750F80C3088684A6805F0A8F840F459
:1029D8008020C7E750F80C3088684A6805F09FF8EF
:1029E80040EA0900BEE701A9FFF7CEFE23780133CC
:1029F800237099E7C1F89830C1F8A00001336DE75A
:102A08004FF0FF30BBE700BF00ED00E054A3000823
:102A18002F1000200000F0FF0000021108B5024B43
:102A28001B689847002008BDA8070020034B044AEC
:102A38001860937843F0020393707047A80700204A
:102A4800F800002008B50649064821F00701C1F141
:102A5800005202F5003204F0B7FD002008BD00BFA7
:102A6800C72E0020AC07002013B50C4C204606F0FA
:102A780035FC68B10A4A92E803006B4683E8030014
:102A8800A26812683AB119462046904702B010BDB4
:102A98006FF01200FAE76FF05700F7E7F09A0008B6
:102AA80088A000081F2809D8012303FA00F0044B66
:102AB8005B6998430CBF01200020704700207047D5
:102AC800003C014000F01F021F284FF0010303FAE9
:102AD80002F39DBF024A002053616FF01500704752
:102AE800003C0140044B184400230133994200F88C
:102AF800012BFADC704700BFA80100202DE9F04146
:102B0800104F054600264FF001086B78F4B2A34237
:102B180001D8BDE8F0812B781C442046FFF7C2FF9E
:102B280068B12046FFF7CEFF57F834303BB107EBCA
:102B3800C40204F01F04516808FA04F098470136EB
:102B4800E3E700BFB8070020034660B1B0FA80F29F
:102B5800C2F11F02D2B205498856054A11680B43D3
:102B68001360FFF717BDFF22F5E700BFA80100209B
:102B7800003C0140024A136823EA000313607047CF
:102B8800003C0140032921D8DFE801F0020C1019AC
:102B98000F4B9A6822EA00029A60DA6822EA000279
:102BA800DA6070470A4B9A680243F5E7084BDA681F
:102BB8000243DA609A6822EA00029A607047044B7E
:102BC8009A6802439A60DA681043D860704700BF79
:102BD800003C014030B5B0B1B0FA80F3C3F11F0337
:102BE800DBB20B4850F833408C4204D100EBC305EC
:102BF8006D68954205D044B940F8331000EBC30026
:102C08004260002030BDFF23EBE76FF00F00F9E7CB
:102C1800B807002060B1B0FA80F3C3F11F03DBB23C
:102C2800044A002142F8331002EBC3025160704796
:102C3800FF23F5E7B807002000F0030204329200F2
:102C48000F23934043EA9000C3B20233054A52F877
:102C58002320030C02EA104093FAA3F3B3FA83F398
:102C6800D84070470038014020F08002032A0BDC6E
:102C7800064B10F0800F03F190010CBF1846084670
:102C8800242303FB0200704700207047200D00201A
:102C9800014801F093BB00BF3808002073B5464CCB
:102CA800204606F01BFB002800F08380A568AB696E
:102CB80013B96FF004002FE04049002220469847DE
:102CC8000028F6D12B68002BF3D03D4920469847C1
:102CD8000028EED1EB68002BEBD02046374901AA3B
:102CE800984704460028E4D1364B019A9A4215D1F8
:102CF800354D4FF0A0432B6004232B714FF44073E4
:102D0800A873EB8001464FF4107330482B8101AA59
:102D180005F0F0F9002804DA02B070BD6FF0850004
:102D2800FAE7019B22461979186800F03BFC002855
:102D3800F2DB254805F01DFE0028BAD1224805F02F
:102D4800A7FE0028B5D1204805F082FE04460028D9
:102D5800AFD14023A5F8E83485F8EC04A5F8783518
:102D680085F87C051A4D1848A02106F00CF81022A9
:102D78002146A5F28C5005F0E7FFA5F28C560122FA
:102D880028461146013406F0D2FA042C05F1240530
:102D980005D03022E1B2304605F0D6FFEFE7002239
:102DA80011464320FFF718FC4320FFF7F3FB0020F0
:102DB800B2E76FF01200AFE7F09A00089CA3000892
:102DC80094A30008006CDC023808002074A30008F3
:102DD800C40D0020014BC3F8E404704738080020F4
:102DE800014608B5044805F079FE002814BF6FF0C5
:102DF8000400002008BD00BF3808002008B51346AD
:102E08000206014605D5802800D12BB16FF01500C8
:102E180010E0402B28BF402321F080020648920191
:102E280002F5C162024405F0D3FE002814BF6FF01A
:102E38000400002008BD00BF38080020030610B5B4
:102E48000C4607D431B10146044805F0DFFE206086
:102E5800002010BD6FF01500FBE700BF3808002008
:102E680038B50546FFF700FF044638B1064829463D
:102E780005F0EEFE28B90123637138BD6FF0150027
:102E8800FBE76FF00400F8E73808002038B505467E
:102E9800FFF7EAFE044650B1437933B107482946A3
:102EA80005F00DFF30B96071E060002038BD6FF0AB
:102EB8001500FBE76FF00400F8E700BF38080020B2
:102EC80070B50446FFF7D0FE0546A0B10D4E037954
:102ED80002882146304605F014FE78B963B2002B0B
:102EE8000BDD06EB84112A88204601F5C161BDE897
:102EF8007040FFF783BF6FF0150070BD6FF00400DE
:102F0800FBE700BF3808002010B50446FFF7ACFE09
:102F180090B10B4883681B691BB10A49984702287E
:102F280001D0002010BD0848214605F023FE0028E6
:102F3800F7D06FF00400F5E76FF01500F2E700BF77
:102F4800F09A000894A30008380800202DE9F843F7
:102F58000646894615469846FFF786FE00283ED065
:102F680033063CD500F1140700220023384602F04E
:102F7800BBFA0446B0BB06F04EFA10B94320FFF77F
:102F880017FB802E02D1402D28BF40254A461748FE
:102F98002B46314605F042FE024658B1384602F04B
:102FA8006FFA06F038FA10B94320FFF7F3FA6FF01A
:102FB800040411E0802E04D11DB101463046FFF70C
:102FC8001DFF06F028FA10B94320FFF7E3FAB8F11D
:102FD800000F01D0C8F800502046BDE8F8836FF014
:102FE8001504F9E76FF00A04F6E700BF3808002077
:102FF8002DE9F8438146884616461F46FFF734FEFA
:10300800044600B319F0800FC5681CD1B8F1000F51
:1030180014D0B54228BF354603690C494FF4C16640
:1030280006EB89161E442A463144404606F024FC25
:10303800E3685B1BE36023692B44236107B13D60B0
:103048000020BDE8F8836FF01500FAE73808002083
:1030580010B50446FFF708FE80B123060ED4C368F6
:103068000BB1002010BD074902884FF4C16303EB80
:10307800841319442046FFF7C1FEF2E76FF01500EC
:10308800F0E700BF3808002010B5134C0023402299
:103098008021204605F035FD0023402219462046B0
:1030A80005F02FFD04F28C5002F0EAF904F5B66041
:1030B80002F0E6F904F2D45002F0E2F904F5BF6038
:1030C80002F0DEF9D4F8E43423B1BDE81040002161
:1030D8000120184710BD00BF38080020034BD3F863
:1030E800E43413B100210220184770473808002043
:1030F800034BD3F8E43413B1002104201847704778
:1031080038080020034BD3F8E43413B1002105201C
:103118001847704738080020034BD3F8E43413B13C
:1031280000210620184770473808002070B5114C58
:103138000823D4F8A014D4F89C04C4F8F434D4F8C0
:10314800F034002504F5C16686E80300C4F8F85495
:103158007BB1294628469847B4F8A2244AB194F985
:103168009C34AB4205DB31462846BDE87040FFF78A
:1031780045BE70BD3808002038B508883B4BC0F301
:103188000B0016281B680D4614463ED810B96FF080
:10319800850039E001381528F9D801A252F820F045
:1031A8000532000861320008013200086132000867
:1031B8005D3200083B3200084B32000897310008A6
:1031C80097310008973100089731000897310008B7
:1031D80097310008973100089731000897310008A7
:1031E8009731000897310008973100089731000897
:1031F80005320008053200084FF4FA4323602968B5
:10320800B1F5805F2AD2002038BD44280ED82F2877
:10321800BDD900F57D61C1F30B0101228A40144933
:103228000A42EBD14028B2D15B08E7E7A828E5D0ED
:10323800ADE700F0CFF8C0221923B0FBF3F35343F6
:10324800F2E700F0C7F8C0221923B0FBF3F35343A9
:103258009B08D3E7074BD1E70023CFE7C1F313312E
:103268000131B3FBF1F32360CDE700BF98010020E3
:103278001101100040787D01162808D8054BC3407D
:1032880013F0010F14BF00206FF0850070476FF036
:1032980085007047EA00600070B5494C494D00F060
:1032A800B9F8204604F0BEFD01F054F8AB68464A70
:1032B800C3F30313D35C20FA03F613781C41A64228
:1032C80002D2204601F060FE2B6823F480232B6095
:1032D8002B6843F480332B603A4B1A689103FCD572
:1032E8005A6F42F001025A675A6F9207FCD59A68E2
:1032F80002F00C02082A17D11A68950707D41A6831
:1033080042F001021A602F4A13689807FCD52D4B2A
:103318009A6822F003029A609A6812F00C0FFBD1A7
:103328009A6822F0F0029A60264D2B6823F0807389
:103338002B602B689901FCD4244AD2F8043823F472
:103348004033C2F80438D2F8043823F0706343F0ED
:103358008063C2F8043800F041F82B6843F08073AA
:103368002B60184B1A689201FCD59A6822F0F0027B
:103378009A609A6822F0030242F002029A609A6800
:1033880002F00C02082AFAD1A64202D3204601F024
:10339800FBFD0F4B0A4A1A600A4B9A6822F4E05266
:1033A80042F480529A609A6822F460429A60D3F894
:1033B8008C2022F08072C3F88C20002070BD00BFE2
:1033C80000D8B8050038024080B00008003002403C
:1033D800980100200048704740787D01084B094952
:1033E8005A681140084A0A435A605A68074922F441
:1033F80040325A605A681140054A0A435A60704779
:10340800003802400080BFFF193040000080BFF044
:1034180019304004064B1A6C42F080521A641B6C37
:1034280082B003F080530193019B02B0704700BF44
:103438000038024008B5074805F050FF38B1064883
:10344800FFF7F4FA0448FDF70FFC002008BD6FF001
:103458001200FBE7249C0008653400080A2838B5E8
:10346800074D044604D1AB680D215B682846984790
:10347800AB6803485B68E1B29847204638BD00BF97
:10348800249C00082DE9F843D0F80480D0F8109067
:10349800D8F8080017460D461E4604F09EFBB7F5FF
:1034A800001F044616D12846D8F80840FFF7C4FB89
:1034B80084420CD1294604F090FB0446FFF75AFBDE
:1034C8002046FFF7A7FB00212046FFF75BFB002003
:1034D800BDE8F883B7F5800F20D0B6F1806F19D01A
:1034E800B6F1C06F18D0B6F1007F1AD10226104984
:1034F8004A462046FFF76EFBB0B9D8F808102846B0
:1035080004F070FB20463146FFF73CFB2046FFF7EE
:103518001BFBDCE70126EAE70326E8E76FF08500F6
:10352800D6E76FF01500D3E76FF00F00D0E700BFC4
:10353800A180000838B50369044658600A4D28463A
:1035480005F0CCFE60B1AB6861681B680C3123B133
:103558002846984700EAE07038BD6FF05700F9E751
:103568006FF01200F8E700BFF09A00081FB50C4B87
:10357800D3F8182A12BA0192D3F8142A12BA02926E
:103588000C29D3F8103A28BF0C211BBA0C460A465E
:1035980001A9039306F070F9204604B010BD00BFDE
:1035A8000070FF1F2DE9F0471E4F044600EBC106CF
:1035B8000025B44201D1002014E02068C30600F0C1
:1035C8001F0911D4656845F02005C0F3481AC0F3F7
:1035D8004420192823D857F82080B8F1000F0DD1BE
:1035E8006FF01200BDE8F087B9F1100F04D0B9F1FF
:1035F800110FEAD16568E8E73025E6E7404605F0AF
:103608006DFE0028ECD04B462A460AF00F014046D2
:1036180004F058FD002804F10804CADAE2E76FF064
:103628001500DFE744A400082DE9F0410C4604F139
:10363800FF3C19464368BDF818701D68BCF1030FBC
:1036480021D8B5F1804F06D07E48854203D0B2F527
:10365800803F00F2F3807C48042C50F82C6007F47B
:10366800807009D178B9344682B92B6A23EA0403F9
:103678002B620020BDE8F0810028F4D0734850F890
:103688002C40002CF0D16FF01500F3E79B68002B5D
:1036980040F0868002F1FF3807F00100402C4FEA25
:1036A800400000F0938000F28980042C00F09080A4
:1036B800102C00F08F80012C08BF002318BF0623B0
:1036C800634F2A6A17F803E0022707FA0EF300FA95
:1036D8000EF022EA030303432B625E4B284653F89D
:1036E8002C309847C5F82C802B6A34EA0303C0D0E5
:1036F800402E7BD072D8042E7AD0102E7AD0012E8C
:1037080008BF002318BF0623534F544817F803C0B7
:1037180010F803E005F11801732351F80C2003FA9F
:103728000EF322EA0303602202FA0EF21343402C3E
:1037380041F80C306AD061D8042C69D0102C69D0BB
:10374800012C08BF002318BF0623DFF814C16A68DC
:103758001CF803C04FF4807303FA0CF322EA030346
:103768006B602B6A1C432C622B68402E43F080034D
:103778002B605BD052D8042E5AD0102E5AD0012E6E
:1037880008BF002318BF0623FA5CC05C8C580823C6
:10379800834023438B506B6943F001036B6168E7F7
:1037A800102B01D1013975E723F04000202801D002
:1037B800402B43D149084FEA52086DE7B4F5807FA2
:1037C8000AD0B4F5806F08BF052377E7032377E7AE
:1037D800012375E7022373E7042371E7B6F5807FB9
:1037E8000AD0B6F5806F08BF05238BE703238BE764
:1037F800012389E73B4687E7042385E7B4F5807F03
:103808000AD0B4F5806F08BF05239CE703239CE723
:1038180001239AE7022398E7042396E7B6F5807F09
:103828000AD0B6F5806F08BF0523ABE70323ABE7E3
:103838000123A9E70223A7E70423A5E76FF0850082
:1038480018E700BF000C0040BCA50008B0A50008A0
:103858003DB00008A0A500084BB0000844B000081F
:1038680036B000082DE9F7434668D0F81080346870
:103878004F4F384605F032FD002800F09280D7F807
:1038880008903169D9F800302BB96FF057052846F0
:1038980003B0BDE8F08338469847051EF7DB736927
:1038A800012B40F281803169D9F818300831002B9A
:1038B800EBD000223846984705460028E7D1316901
:1038C800D9F80C300831002BDFD06A4638469847C3
:1038D80000280FDB009BC8F80030D8E90101836895
:1038E800DB6803B19847B06901AA002104F002FC23
:1038F800002801DA0546CAE7019B002219791868F1
:10390800FFF750FE0028F5DB7368A362294B0022FD
:103918009C42E2621DD0B4F1804F0BD0A3F57C43EA
:103928009C4207D003F580639C4203D003F5806373
:103938009C4228D12368B26823F0700313432360A4
:10394800236823F440732360F368BBB16FF08505E7
:103958009DE72368B16823F070030B432360236855
:1039680023F4407323602263636CF26823F0FF033F
:1039780013436364636C43F400436364236843F054
:103988000103236083E70C4B9C42D9D00B4B9C422C
:10399800D6D00B4B9C4202BF1A6822F440721A60C0
:1039A800D2E76FF0120572E76FF015056FE700BFF9
:1039B800F09A000800000140004001400044014026
:1039C8000048014043681B6803F1140252E8002FC5
:1039D80042F0010203F1140040E800210029F3D16C
:1039E8000D4A934207D0A2F54C42934203D002F508
:1039F8005042934203D11A6942F040021A6103F11E
:103A08000C0252E8002F42F4807203F10C0040E8E7
:103A180000210029F3D170470010014043681B685A
:103A280003F1140252E8002F22F0010203F11400FE
:103A380040E800210029F3D10D4A934207D0A2F5AE
:103A48004C42934203D002F55042934203D11A6983
:103A580022F040021A6103F10C0252E8002F22F40E
:103A6800807203F10C0040E800210029F3D170476F
:103A780000100140F8B50C46036941681D682379B8
:103A8800012B36D09A1E56425641B6026279022A56
:103A98009CBF384F37F812C0A27988BF4FF4005C3A
:103AA800042A29D0003B18BF01231B03E279012A0D
:103AB8000A680CBF4FF440770027A542D1681ED191
:103AC80021F4B05131430B43D360136923F44053BD
:103AD80043EA0C03136143681A68536923F440737B
:103AE8003B4353612968406804F015FC00EAE07024
:103AF800F8BD4FF4C066C9E74FF48053D6E701F428
:103B0800C0618E421FBFD16821F4C0613143D160CA
:103B1800426811680A6902F4405294451FBF0A6955
:103B280022F4405242EA0C020A6142681168CA68EB
:103B380002F4805293421FBFCA6822F48052134392
:103B4800CB6043681A68536903F440739F421FBFF0
:103B5800536923F440733B43536121682B689942AE
:103B680006D0406804F0D7FB0028C1DB23682B602F
:103B78000020BDE76CA70008F8B543681D68036915
:103B88001F680B790C46012B4979A67935D1022992
:103B98004AD9042E45D04FF4C0624FF480534FF0F9
:103BA800030C8C453DD1002B77D0002A14BF03228B
:103BB8000422B24235D1E37963B1012B31D1394BBB
:103BC8009D4207D0A3F54C439D4203D003F55043D3
:103BD8009D4226D1EB6823F40053EB602146FFF7A2
:103BE80049FF00281DDBEB6843F40053EB6094E8C1
:103BF800030087E80300002015E0022B06D1022904
:103C08001FD9042E0DD04FF48062C6E702290A4658
:103C18001FD9042E02D123B90022BEE713BB032902
:103C2800C7D06FF08500F8BD1F4A042E32F811C0C6
:103C3800F7D04FF4C062033B012BF2D94FF4805305
:103C480019E0194A042E32F811C0EAD04FF4806204
:103C5800F1E7154A042E32F811C009D1002BE0D142
:103C68001A46EBE7033B012BDBD9D5E70022E2E755
:103C7800002BFBD11A46BCF5805F08D0BCF5405F2D
:103C880008D0BCF1000F8AD14FF0010C89E74FF042
:103C9800000C86E74FF0020C83E7002A14BF0222CB
:103CA800032286E7001001406CA700082DE9F041C7
:103CB800044605694668344805F010FB00285FD0C3
:103CC800B36820469847284604F053FD60680121F0
:103CD80004F026FD002802DA10F1860F48D1256984
:103CE80064680021204604F01BFD00283EDB2648BE
:103CF800216983681B68002B3FD09847B0BBAC682C
:103D080001260834D5E9023203EBC203A4F1080204
:103D1800934201D8002029E054F8080C05F0DEFA97
:103D280040B354F8080C14F8041C34F8023CD0F8DA
:103D380010C0D0F80880DCF80070DA0754BF43F4EC
:103D4800B01383F4D01323F4801206FA01FEDB07C4
:103D58004CBF4EEA070727EA0E07CCF80070D8F8E0
:103D680000309847002804F10804CBDA00EAE07034
:103D7800BDE8F0816FF01200F8E76FF05700F5E743
:103D88006FF01200F4E700BFF09A00082DE9F74F32
:103D9800814605690E461F46924612B9002B00F06F
:103DA800F280B3889A042BD44FF0FF324FF0FF33E0
:103DB80005F1100001F098FB6E60D9F810B0D9F841
:103DC8000480DBF80030D8F80040B2889E4240F00A
:103DD800C080130540F16781236823F44443BAF196
:103DE800000F14D043F440432360B08804F0FFFB75
:103DF8000646DAF800306B6393B1DAF804300FE066
:103E0800AB69002BD0D16B689E42CDD1D5E743F486
:103E180000432360B08804F0EAFB064600236B6386
:103E2800AB6305F14802334605F1380105F134006A
:103E380004F0BFFB6864002F40F04F81EF6300235C
:103E48002B6405F15002334605F1400105F13C00B1
:103E580004F0AFFB0023E8642B63D9F8043026682C
:103E6800D3F800A0DAF8003043F04003CAF8003075
:103E7800D9F81090D9F8000006F4444650B1037DF3
:103E880043B10121083004F060FCD9F8003018690A
:103E980005F0FEF9DAF8043043F02003CAF80430DC
:103EA8002FB1DAF8043043F04003CAF80430DAF8E6
:103EB800043043F08003CAF804304FF4FA5B4FF043
:103EC8000A0905F1200A0023A86B1946814240F02F
:103ED8000B8100212F6C0846B84240F00C818B42C0
:103EE80038BF0B460BFB03F22B681B68B2FBF3F2DF
:103EF800C832A2FB0923504601F0F6FA002840F028
:103F080001812F6B002F33D1B6F5404F1AD1AB6C1E
:103F1800ABB92B6D9BB1D8F800301A6822F4444233
:103F280042F400421A601A6842F040021A605A6865
:103F380042F020025A605A6842F040025A602668ED
:103F480006F44446AB6C002BBDD12B6D002BBAD1C7
:103F58000EE0D8F814100229C2F3451317D003292C
:103F680018D0012902D1043B1C2B17D96FF0850703
:103F78002B6813B19B889B0405D400236B6005F163
:103F8800100001F07DFA384603B0BDE8F08F043B1D
:103F98000C2BEAE7082B01D0102BE7D1636810043B
:103FA8005A484CBF43F0100323F010036360836842
:103FB800D8F81010DB68FBB101AA984700281BDB72
:103FC8000198002331681A46013320FA03FC8C4516
:103FD80015D823684E4923F040032360236851F81D
:103FE800222023F0380313432360B38899070BD4A6
:103FF800236823F002030AE06FF00407B8E7082BF0
:10400800E0D16FF01507B3E7236843F0020323609C
:10401800B38813F0040F236814BF43F0010323F09F
:1040280001032360B38813F4006F236823F4444327
:1040380004D0BAF1000F3FD043F440432360B38863
:1040480013F0100F236814BF43F0800323F080039C
:104058002360236823F400532360337D1BB998F849
:1040680018305A072BD5236843F40073236063681C
:1040780023F004036360B388264A13F0010F236812
:1040880014BF23F4827343F482732360B08804F06E
:10409800AEFA0138236852F8202023F40063134352
:1040A8002360CBF80060B08804F0A1FA0646BAF1A4
:1040B800000F7FF49EAEB1E643F40043BEE7B38839
:1040C80013F0010F236823F40073CFD143F4802346
:1040D8002360636843F00403CCE73B68EB63002B81
:1040E8003FF4ADAE7B68ABE66A6B02EBC10201310F
:1040F80052681344EAE6EA6B02EBC00201305268E8
:104108001144E9E66FF0730732E700BFF09A000840
:1041180024A6000898A6000810B54FF0E0230F4920
:104128009C691A6908689B690D4902F4803234B9A0
:1041380093B903464AB90A681044C01A10BD002B47
:1041480008BF03460AB9A342F5D90A6802440A60BF
:104158004FF0E0221269EEE70446F3E7E40F00208F
:10416800E00F0020094B102283F82320084B4FF45E
:1041780016521A60074B002018604FF0E02342F2F5
:104188007F525A61072298611A61704700ED00E07A
:10419800E40F0020E00F0020684620F007018D465C
:1041A80019B5FFF7B9FF114B1149D3E90042086867
:1041B800001942F10002C3E900020E4A00230B6015
:1041C800D2E900414FF41653001BB0FBF3F0434310
:1041D8001B1941F10001C2E9003102F00BF8FDF7AB
:1041E80051FFBDE819408546704700BF780300209D
:1041F800E00F0020700300202DE9F041DFF8DC809B
:1042080099B1421C0BD14FF0E022136923F001034E
:1042180013614FF07F43C8F80030BDE8F081D8F84B
:104228000060012807DC00270BE0431CD8F8006079
:10423800F7D140F2D26040F2D3639842A8BF184643
:10424800471EEFF31185102383F31288BFF36F8F96
:10425800FFF762FF224C4FF0E0239969D4E900236D
:10426800801843F10003C4E900031E4B00221A60C2
:104278001D4B1A68831A2ED44FF4165C0CFB0733B7
:1042880003F515533F33B3FBFCF7131A0CFB073345
:10429800B3F5806F154A38BF4FF48063934228BF47
:1042A80013464FF0E022C8F80030013B9069536193
:1042B800002393618142A1EB0003D4E9001238BFC7
:1042C8009B195B1842F10002C4E9003285F311889A
:1042D800BFF36F8FA1E74FF48063E2E7E40F00209C
:1042E80078030020E00F00207003002000C3FF00C7
:1042F80038B5EFF31185102383F31288BFF36F8F5E
:10430800084B1C68084B1B68E41AFFF705FF85F388
:104318001188BFF36F8F4FF416532044B0FBF3F0AE
:1043280038BD00BF780300207003002038B5EFF3D4
:104338001185102383F31288BFF36F8F044B1C6819
:10434800FFF7EAFE85F31188BFF36F8F204438BD6D
:104358007803002008B513498B6803F00C03042B7D
:104368001CD0082B1CD14A684B68496813F4800399
:1043780014BF0D480D48C1F3881118BF002302F07F
:104388003F02A1FB0001FCF7C5F8064B5B68C3F3CD
:10439800014301335B00B0FBF3F008BD0248FCE7C2
:1043A8000248FAE70038024040787D010024F40012
:1043B800014B1868704700BF980100202DE9F04FA5
:1043C800066889B00446304604F04EFF0390002882
:1043D80040F05281206804F019FF002800F04C8159
:1043E800D6F808382068C3F30D23C4F8D43404F091
:1043F8000DFF870741BF2268536903F00203536129
:10440800206804F003FFC00606F500652CD5226875
:10441800936923F010039361D6F82080C8F34343CF
:10442800022B08F00F0740F02A8147F6F07318EACC
:10443800030F14D0242303FB0747C8F30A19D7F83E
:1044480060124A46304604F041FED7F860324B44C9
:10445800C7F86032D7F868324B44C7F86832226828
:10446800936943F010039361206804F0CFFE0103C1
:1044780000F11781206804F0C9FE42030DD52068B9
:1044880004F0D0FE2746049006F5106B4FF0000AA2
:10449800049B2068002B40F0CE81206804F0B6FE13
:1044A800002813DA6B6823F001036B6094F8CC34AE
:1044B800012B40F06882002184F8CC14204604F0D7
:1044C80066FC2268536903F000435361206804F0D6
:1044D8009DFE02050AD5AB68DB0702D52046FEF72C
:1044E80011FE2268536903F400635361206804F0E5
:1044F8008DFEC70433D56B6823F001036B60102170
:10450800206804F0EDFC06F510634FF67F31227940
:104518000398824200F23B82EB6943F00113EB619E
:10452800E37B002B00F05082D5F8843043F00B0376
:10453800C5F884306B6C43F00B036B64D6F8003815
:1045480023F4FE63C6F8003804F29C42A17920687F
:1045580000F0F4FC2268536903F480535361206827
:1045680004F054FE800416D5206804F081FE20680B
:1045780004F001FDE0712768FFF71AFFE2790146B0
:10458800384600F05FFA2046FEF77EFD2268536940
:1045980003F400535361206804F038FE010707D57F
:1045A800204604F099FA2268536903F0080353611E
:1045B800206804F02BFE020600F11182206804F046
:1045C80025FEC3020CD5A04606F5126901272379FA
:1045D800BB4200F21D822268536903F480135361C1
:1045E800206804F013FE870229D5234606F53261B8
:1045F8000122207990421DD993F87C720868012F16
:1046080040F01C82002880F21982D4F8D4C48CEAC5
:104618001040C00700F1128283F87B72B06940F045
:104628008000B0617069000600F108826B6843F48D
:1046380000736B602268536903F4001353612068A8
:1046480004F0E4FD410007D52046FEF747FD226847
:10465800536903F080435361206804F0D7FD420793
:104668000AD523685D686B0702D52046FEF740FD32
:10467800226853682B43536009B0BDE8F08F062BBE
:104688007FF4EDAE082204F29C41304604F01EFD92
:10469800242303FB0747C8F30A18D7F868324344B2
:1046A800DBE6206804F0B6FD06F530680490A24603
:1046B8000027049B2068002B3FF4DCAE049BDB073B
:1046C80065D55FFA87FB594604F0B4FD10F0010F79
:1046D80081461ED00123C8F80830206894F806C027
:1046E800016C00F5306303EB4713BCF1010F9A68C6
:1046F8007BD112F0080F07D0B148814209D91204C2
:1047080007D54FF4004203E012F0200F48D02022D2
:104718009A6019F0080F0FD00823C8F808302368EA
:10472800A749186C03F5306303EB471388429A686E
:1047380070D82046FEF7FAFC19F0100F1CBF1023A2
:10474800C8F8083019F0020F14D07369180642BF70
:104758006B6843F480636B609AF85732012B06D17B
:1047680000238AF857325946204604F0B6F9022346
:10477800C8F8083019F0200F1CBF2023C8F80830EB
:1047880019F4005F1CBF4FF40053C8F80830049BAD
:104798005B080137049308F120080AF1240A88E726
:1047A80012F0280FB5D1DFF818C2614501D91204FB
:1047B800A7D41A69DAF87432C2F312029B1ACAF83B
:1047C80068326FB9D4F864222AB904F29C420121F4
:1047D80000F0B4FB04E0D4F860221A44C4F8602264
:1047E8005946204603F06CFA93E7DFF8D8C16145D3
:1047F80006D1100485D49106F2D520229A60EFE7FD
:10480800002FEDD1D4F86432002BE9D104F29C4298
:104818003946DDE7120444BF4FF400429A6020464F
:10482800FEF784FCA179012986D1206804F29C4214
:1048380000F084FB80E7049BD90740F19B805FFA76
:104848008AF31946079304F0FEFC10F0010F804626
:1048580020D06B6B01210AF00F0201FA02F223EA61
:1048680002036B63CBF80810A17901290DD1D7E9B0
:10487800072313443B62BAF1000F06D1636A23B9D8
:10488800206804F29C4200F059FB5FFA8AF1204646
:1048980003F02CFA18F0080F1CBF0823CBF80830D7
:1048A80018F0100F1CBF1023CBF8083018F0400F79
:1048B8001CBF4023CBF8083018F0020F10D0514627
:1048C800304604F00DFBFB7D012B06D10023FB7560
:1048D8005FFA8AF1204603F01BFA0223CBF808306E
:1048E8002368059318F0800F44D0D7E909329A421B
:1048F80040D8A3EB0208FB69984528BF9846059B5A
:1049080003F5106308F1030803EB4A134FEA98080C
:104918000693069B996989B24145D7E9093227D39D
:1049280093420BD8059B0AF00F00D3F834280121D5
:10493800814022EA0102C3F834281BE0A3EB0209F4
:10494800FB69079A0598994528BF9946A37900936A
:10495800396A1FFA89F304F0A6FB3B6A4B443B62B1
:10496800BB6A09F103084B444FEA9808BB62D0E7D9
:104978009342D7D9049B5B080AF1010A04932437B0
:104988000BF1200B84E52046FEF7C6FB99E59960FC
:104998001A6822F400121A60C3F80812D3F8002229
:1049A80022F40012C3F80022D3F8002242F0006279
:1049B800C3F80022039A013203922033A7E500BF0F
:1049C8000A30544F0A31544F6B6943F4005343F093
:1049D8002B036B612B6943F00B032B61AEE5B369C5
:1049E80023F08003B361012704F257284FF024090C
:1049F8002379BB427FF6E2AD09FB07F318F80330D1
:104A0800012B03D1F9B2204604F08EF90137EFE704
:104A180098F83C30D9F80020012B09D1002A07DA90
:104A280067F07F0188F83B30C9B2204604F07CF972
:104A3800013708F1240809F12009C8E501322433B7
:104A48002031D6E5022A4AD1274B284A0B44934203
:104A580039D9274B274A0B44934236D9264AA1F520
:104A68007403A3F51053934231D9244AA1F18373F7
:104A7800A3F5E74393422CD3214B224A0B4493429C
:104A880029D9214B214A0B44934226D3204B214A52
:104A98000B44934223D3204AA1F1B773A3F558538B
:104AA80093421ED31D4B1E4A0B4493422CBF062330
:104AB8000723C26822F47052C260C26842EA8323A4
:104AC800C360002070470F23F3E70E23F1E70D239F
:104AD800EFE70C23EDE70B23EBE70A23E9E70923CC
:104AE800E7E70823E5E700BF405327FFFF340C0042
:104AF800401E1BFF3F420F007F4F120020D61300BD
:104B080060B6E5FE5FE3160000D3CEFE40771B00DB
:104B1800C05BB3FEC091210020753800E05459FEF7
:104B2800E09C410084B0F8B5044607A880E80E0070
:104B380000239DF81C509DF82660194603F1400299
:104B480004EB820201330F2B5160F7D104F50067A3
:104B5800002E4FD17B6843F002037B60A36B43F4C4
:104B68000013A363A36B23F40023A363A36B23F4B1
:104B78008023A3630023C4F8003E9DF82130012B55
:104B880042D19DF81F1000293CD1204604F0ECF9D1
:104B98001021204604F0A4F90146204604F0C3F988
:104BA8000843C0B2002300383B6118BF01207B6175
:104BB80004F51062FB61002D4FD0D4F8001999421A
:104BC80024DA4FF00061C4F8001900214FF67F3C49
:104BD80001339D421161C2F808C002F1200218D9C0
:104BE800D2F800E0BEF1000F10DA4FF0904EC2F894
:104BF80000E0EDE7A36B23F40013A363A36B43F476
:104C08000023B6E71946C0E70321BEE7002111607B
:104C1800DBE7D4F8002B002A04F5306319DA4FF0EB
:104C28000062C4F8002B002200214FF67F3C0132BD
:104C380095421961C3F808C003F120030DD9D3F8D0
:104C480000E0BEF1000F05DA4FF0904EC3F800E027
:104C5800EDE7002200211960E6E73B6923F4807341
:104C68003B610023A3616FF0804363619DF81E30B0
:104C78001BB9A36943F01003A361A2690A4B13434C
:104C8800A3619DF822301BB1A36943F00803A36117
:104C9800012E01BFA36943F0804343F00403A361DD
:104CA800BDE8F84004B0704700383C8030B54A7819
:104CB8000B78012A00EB431300F5006029D1D3F8E3
:104CC8000029002A0BDAD3F8002942F00062C3F861
:104CD8000029D3F8002942F08042C3F800290A7855
:104CE800C56B012402F00F0204FA02F225EA02025F
:104CF800C2630978C26901F00F018C4022EA0402FC
:104D0800C261D3F80019174A0A40C3F800290020E5
:104D180030BDD3F8002B002A0BDAD3F8002B42F071
:104D28000062C3F8002BD3F8002B42F08042C3F88E
:104D3800002B0A78C56B012402F00F0204FA02F274
:104D480025EA0242C2630978C26901F00F018C406A
:104D580022EA0442C261D3F8001B034A0A40C3F89E
:104D6800002BD4E7007833EC0078F3EFF7B54B78F5
:104D78000F786F4EDFF8BCC1012B00EB471440F0F1
:104D880089800D6904F5106345BB1D6935401D61B7
:104D98001D6945F400251D611D6905EA0C05012AF8
:104DA8001D614CD1CA6902B15A610B79012B0CD132
:104DB800D0F8083813F4807FD4F800390CBF43F0DA
:104DC800005343F08053C4F80039D4F8003943F055
:104DD8000443C4F80039002003B0F0BD1D6905EA9A
:104DE8000C051D611D6935401D610D698E6867B927
:104DF800B54288BF0E611D6945F400251D610D6926
:104E08001E69C5F312053543C9E74B4FD3F810C0E7
:104E18003544013DB5FBF6F5AEB207EAC54545EAAE
:104E28000C051D610D79012DE9D11D6925F0C045DD
:104E38001D611F69750705F0C0453D43DEE7D4F8DD
:104E4800003943F00443C4F800390B79012B0DD025
:104E58000B69002BBFD00A78D0F8344802F00F0253
:104E6800012393402343C0F83438B4E7D0F8083816
:104E780013F4807FD4F800390CBF43F0005343F09B
:104E88008053C4F8003900920B8A0A78C96804F084
:104E98000AF9A0E7D4F8105B05EA0C05C4F8105B22
:104EA800D4F8105B3540C4F8105B04F530630E6924
:104EB8008D683FBB06B10D610D621E69C5F3120511
:104EC80035431D611D6945F40025012A1D6102D184
:104ED800CA6802B15A610B79012B0CD1D0F8083895
:104EE80013F4807FD4F8003B0CBF43F0005343F029
:104EF8008053C4F8003BD4F8003B43F00443C4F8A3
:104F0800003B68E7002ED8D02E44013EB6FBF5F6EC
:104F1800B6B275430D62084D1F6905EAC6453D43A3
:104F28001D610D6A1E69C5F312053543CDE700BF43
:104F3800FFFF07E00000F8FF0000F81F30B5114C34
:104F4800056CA54200F5306303D9D0F8004B002C5E
:104F580016DB00241C611C6944F400241C611C69D4
:104F680044F018041C611C69012944F0C0441C6108
:104F780001BF5A61D0F8003B43F08023C0F8003BE2
:104F8800002030BD0A30544F002876D03C4B1A68B8
:104F980002F44042B2F5404F20D13A4A904215D827
:104FA800394A904207D91A6802F44042B2F5004FD4
:104FB8005CD102201FE0354A90421A6802F4404250
:104FC80047D9B2F5004F4CD1012014E01A6802F419
:104FD8004042B2F5004F3FD103200CE01A6802F4BA
:104FE8004042B2F5004F22D1274A90423ED8274A84
:104FF80090422ED90020224B1B68012838BF01207F
:1050080003F44043B3F5804F1FD0214A136823F0BF
:10501800070303431360136803F0070398421CBF98
:10502800136803F00703C01A18BF012070471B68F4
:1050380003F44043B3F5804F0CD1134B98421AD870
:10504800124B98424FF00000DFD9012838BF0120E9
:10505800DBE71B680020D8E71B68032003F4404304
:10506800D0E71B68012003F44043CBE71B6802200C
:1050780003F44043C6E70220C7E70120704700BF9A
:1050880000700040804A5D050090D00380C3C901CC
:10509800003C024038B5EFF31185102383F31288E2
:1050A800BFF36F8F064B9C6804F02BF985F31188CA
:1050B800BFF36F8F2046BDE83840FDF713BA00BF35
:1050C800E80F002038B50A4B53F82040013053F858
:1050D8002050A54200D838BD606830B1037EDB0798
:1050E80001D404F0E3F80834F3E723689847FAE7B3
:1050F800A0A6000870B52A4B2A4C2B4D012286B079
:1051080003201A70FFF7DEFF01F0ECF80420FFF728
:10511800D9FF2646AE4204F1300410D300F07EFDDC
:10512800204C224EAC4226D300F08CFDFBF700FD4C
:105138001F4A938923F00103938106B070BD54F888
:105148000C3C059354F8103C049354F8143C039316
:1051580054F8183C029354F81C3C019354F8203C32
:10516800009354E90A2354E90C0100F04FFB54F86A
:10517800303C5E65CDE7D4E90A23B3F1FF3F08BFB1
:10518800B2F1FF3F05D052EA0301206803D100F0D5
:1051980015FE3034C6E73146183000F09BFFF8E7BB
:1051A800301000207C9F00087C9F0008FD940008B8
:1051B8000004002070B5002386B00122CDE9042345
:1051C800134E144D01930F22CDE9023212491423D4
:1051D80003FB005506EBC01604464FF4C07000FBF5
:1051E80004110E4B00954FF4A072304600F00EFBF0
:1051F800337C0B4AEE6023F0040333744FF40463EA
:1052080004FB033313442C746B6006B070BD00BFFD
:1052180080030020E80F0020C01C00201193000824
:1052280080140020BFB50020FFF74CFF284B83F304
:105238000888284C284F636943F40073636100258C
:10524800F02384F82230E57725766576A57684F80C
:105258002050636A43F4E0236362FDF713F9FDF716
:105268004DFA4FF0FF33A362E362FDF713FBFDF73E
:105278006FFA1A481A4C00F041FBFBF737FD012082
:10528800FFF720FF0220FFF71DFF00F00FFD154B71
:1052980015495C61154B05930123CDE903534FF480
:1052A80080623B46CDE901550095204600F0AEFAF4
:1052B800227C064622F004022046227404F0EEF80E
:1052C8002846FFF777FF3A4631462046FDF7F8F9BA
:1052D800C01C002000ED00E0FD5000088004002004
:1052E80000040020E80F0020401E002090B00008B5
:1052F8002DE9F341044617461E46EFF311881023A3
:1053080083F31288BFF36F8FC368334A7BB1806819
:105318009168884219D057EA060318D188F3118892
:10532800BFF36F8F6FF00F0002B0BDE8F081916896
:1053380091F90E1021610133E3609368A36088F34B
:105348001188BFF36F8F0020EEE72169F2E791F92A
:105358000E1090F90E309942A8BF19466FF07E02E0
:105368009142B8BF11468B422DDD03F0D8FF0546A8
:10537800CDE9007619482246414600F095FB002801
:10538800E1D0EFF31186102383F31288BFF36F8FF8
:10539800A068D0B1236821699C420AD04BB193F927
:1053A8000E309942A8BF19466FF07E039942B8BFE4
:1053B800194603F0B4FF40B10848314600F008FC34
:1053C8006FF00A00B0E70025D2E7002DF4D186F38C
:1053D8001188BFF36F8FF3E7E80F0020311000202A
:1053E800F8B583680546002B3FD0234A926893425C
:1053F8003ED1C368012B03D9013BC3600020F8BD2F
:10540800EFF31187102383F31288BFF36F8F0169BD
:10541800806803F084FF2C68A54207D10023C5E902
:10542800023387F31188BFF36F8FE7E7002CF5D0BD
:10543800D4E9003213605A60237C002623F002036B
:105448002374C4E90066A66004F1180004F0BFF8EC
:10545800AC6094F90E302B612046A66704F01EF864
:105468000648394600F0B4FBC8E76FF01500C6E7F8
:105478004FF0FF30C3E700BFE80F002031100020D5
:1054880070B5EFF31186102383F31288BFF36F8F83
:105498000468A0421AD0CCB1D4E9003213605A6033
:1054A800237C002523F002032374C4E90055A5607A
:1054B80004F1180004F08BF82046A56703F0EEFF0E
:1054C80031460848BDE8704000F082BBD0E902329E
:1054D8009A4218BF0133836086F31188BFF36F8F38
:1054E80070BD00BF3110002013B5EFF311811024F7
:1054F80084F31288BFF36F8F846844B1013C8460E1
:1055080081F31188BFF36F8F002002B010BD52EAFB
:10551800030406D181F31188BFF36F8F6FF00F007A
:10552800F3E7CDE900230246014800F0BDFAECE7B5
:10553800311000202DE9FF414F4E04461027EFF3AC
:10554800118887F31288BFF36F8FD4F88450F5B9A8
:10555800022104F19C0003F0F6FE002868D004F153
:10556800940500220121284603F0F8FF0028F8D10D
:10557800002302934FF0FF324FF0FF33CDE90023B1
:10558800414604F18C023D4800F0E2FCD7E7D4F82C
:1055980088202B68C4F88430954208BFC4F8883046
:1055A800D4F89C3043F00203C4F89C30EB6823F035
:1055B800040343F00103EB606B6888F31188BFF3C1
:1055C8006F8F28469847EFF3118887F31288BFF347
:1055D8006F8FEB68D80623F0010236D4EA60EB68D7
:1055E8009A0716D5306823F00203EB6088B1036888
:1055F800002170B14268954235D1036869BB726871
:105608003360824200D17360002340F8083BFFF703
:1056180037FFD4F89C3023F00203C4F89C3088F399
:105628001188BFF36F8FDB0589D400F047FB86E74D
:10563800D4F89C30D9069BD5C4F89C0088F311880F
:10564800BFF36F8F04B0BDE8F08123F01103EB6066
:1056580005F11000FFF714FFC1E70B607368834280
:1056680008BF7160D0E723B11A680146184613468F
:10567800BFE71A46F9E700BF0810002031100020E4
:10568800F8B5C3689A0704460F46C3F340062ED4FC
:105698005B071CD40B680BB983680B60E368DD07F4
:1056A80044BFA3683B603D684CBF02260126002D1D
:1056B8003CD0204B9A68D5F880309A420AD0D5F869
:1056C8009C30D807C3F3800214D46FF0120600236D
:1056D8003B6025E003F09FFED5F89C300028F0D110
:1056E800D907C3F3C002F0D552B15B0708D46FF0F5
:1056F8000F06ECE7002AFAD1C3F3C003002BF6D15A
:1057080000232360D5F8883063B9C5E921442846C9
:1057180003F024FEE36843F00403E3603B68A360FE
:105728003046F8BD1C60C5F88840F0E76FF01506F4
:10573800CDE700BFE80F0020F0B589B0044600208F
:10574800C4E921000E9D04F18C00C4E9230004F192
:105758009400C4E9250055B32879002840F20110C7
:1057680008BF0120C4F89C0000204FF0FF364FF01E
:10577800FF37CDE90330CDE90100CDE906670D4BD0
:105788000094204600F08EF855B1296811B12046E2
:1057980003F047FE6B791BB1A38943F00103A38192
:1057A800204600F00BFBC4F8804009B0F0BD012092
:1057B800D8E700BF3D55000837B501900846EFF31C
:1057C8001184102181F31288BFF36F8FC16811F023
:1057D8001E0F16D153EA020508D101A9FFF750FFA1
:1057E80084F31188BFF36F8F03B030BD41F0080117
:1057F800C160019981620449103000F06BFC0120FE
:10580800EEE70020ECE700BF739300082DE9F043B2
:10581800073285B022F007020E461F461099818193
:1058280000F158037F32C0E916330446002322F002
:105838003F020421836001743F2A0F98A073C4E9D2
:105848000633E37306F14009A2F1400805D883F353
:105858001188BFF36F8F084602DFB5182946204626
:10586800FCF7F0FB07300E9B20F00700A066C4E9A8
:10587800189802930D9B01932D1A0C9B00932A46AE
:105888003B4631462046FCF7E9FE00236365044B9E
:105898009B6803B1DB6EE366284605B0BDE8F0837C
:1058A800E80F0020F0B587B000250595109D0495F8
:1058B8000F9D03950E9D0295DDE912760D9D0195CC
:1058C8000C9D00950446FFF7A1FFB6F1FF3F08BF06
:1058D800B7F1FF3F05D056EA070305D1204600F08F
:1058E8006DFA204607B0F0BD3A46334604F1180079
:1058F800014900F0EFFBF4E7FD940008012303746D
:1059080083810023C0E91833C366014B9860704750
:10591800E80F0020094A93686FF00A01996708495F
:1059280058674B6843F080534B60002383F311881A
:10593800BFF36F8F9368986F704700BFE80F002020
:1059480000ED00E070B590F91020037C002A36DBEA
:10595800D90634D11B4C63F07F032246037452F8F6
:10596800183FE169934207D1C0E900210860E0616E
:1059780011E09942F8D01B68002BF5D090F90E5031
:1059880093F90E60B542F4D0AE42F2DD5968C0E931
:10599800003108605860A569954200D005B9E568EE
:1059A800A3681A7CD20604D1DA897F2A01D9AA69A8
:1059B80032B1AB4202D0284600F00CFB656170BDE5
:1059C8006361FCE7E80F002038B590F91020037CEC
:1059D800002A014604DA03F07F03037403F024FD70
:1059E8000D4D2A46AB6852F8184F944200D004B9BE
:1059F800EC688B4207D01A7CD20604D1DA897F2A58
:105A080001D9A2692AB1A34202D0204600F0E2FAE5
:105A180023466B6138BD00BFE80F0020B3F1FF3F9C
:105A280008BFB2F1FF3F03D00249183000F052BB63
:105A3800704700BFFD94000838B5194CA168E069AB
:105A48000B68814214BF1A46002249680B605960EE
:105A5800A368E1692AB9134AC3E900210B60E3612D
:105A68000CE093F90E0092F90E50A84214D085422A
:105A780012DD5168C3E900210B605360A569094B29
:105A88009D4200D005B9E568A3689D4202D028462A
:105A980000F0A0FA656138BD9142DCD01268D9E700
:105AA800E80F002000100020F8B50E4B0C461146F8
:105AB8000D4A98681060DDE90667EFF3118210223D
:105AC80082F31288BFF36F8F9D68284603F0BEFCEF
